{
	"constracts/RockPaperScissors.sol": {
		"RockPaperScissors": {
			"abi": [
				{
					"inputs": [],
					"stateMutability": "nonpayable",
					"type": "constructor"
				},
				{
					"inputs": [
						{
							"internalType": "address",
							"name": "spender",
							"type": "address"
						},
						{
							"internalType": "uint256",
							"name": "allowance",
							"type": "uint256"
						},
						{
							"internalType": "uint256",
							"name": "needed",
							"type": "uint256"
						}
					],
					"name": "ERC20InsufficientAllowance",
					"type": "error"
				},
				{
					"inputs": [
						{
							"internalType": "address",
							"name": "sender",
							"type": "address"
						},
						{
							"internalType": "uint256",
							"name": "balance",
							"type": "uint256"
						},
						{
							"internalType": "uint256",
							"name": "needed",
							"type": "uint256"
						}
					],
					"name": "ERC20InsufficientBalance",
					"type": "error"
				},
				{
					"inputs": [
						{
							"internalType": "address",
							"name": "approver",
							"type": "address"
						}
					],
					"name": "ERC20InvalidApprover",
					"type": "error"
				},
				{
					"inputs": [
						{
							"internalType": "address",
							"name": "receiver",
							"type": "address"
						}
					],
					"name": "ERC20InvalidReceiver",
					"type": "error"
				},
				{
					"inputs": [
						{
							"internalType": "address",
							"name": "sender",
							"type": "address"
						}
					],
					"name": "ERC20InvalidSender",
					"type": "error"
				},
				{
					"inputs": [
						{
							"internalType": "address",
							"name": "spender",
							"type": "address"
						}
					],
					"name": "ERC20InvalidSpender",
					"type": "error"
				},
				{
					"anonymous": false,
					"inputs": [
						{
							"indexed": true,
							"internalType": "address",
							"name": "owner",
							"type": "address"
						},
						{
							"indexed": true,
							"internalType": "address",
							"name": "spender",
							"type": "address"
						},
						{
							"indexed": false,
							"internalType": "uint256",
							"name": "value",
							"type": "uint256"
						}
					],
					"name": "Approval",
					"type": "event"
				},
				{
					"anonymous": false,
					"inputs": [
						{
							"indexed": true,
							"internalType": "address",
							"name": "from",
							"type": "address"
						},
						{
							"indexed": true,
							"internalType": "address",
							"name": "to",
							"type": "address"
						},
						{
							"indexed": false,
							"internalType": "uint256",
							"name": "value",
							"type": "uint256"
						}
					],
					"name": "Transfer",
					"type": "event"
				},
				{
					"inputs": [],
					"name": "CheckWinner",
					"outputs": [],
					"stateMutability": "nonpayable",
					"type": "function"
				},
				{
					"inputs": [],
					"name": "GetStatus",
					"outputs": [
						{
							"internalType": "string",
							"name": "",
							"type": "string"
						}
					],
					"stateMutability": "view",
					"type": "function"
				},
				{
					"inputs": [],
					"name": "Register",
					"outputs": [],
					"stateMutability": "nonpayable",
					"type": "function"
				},
				{
					"inputs": [
						{
							"internalType": "uint256",
							"name": "opt",
							"type": "uint256"
						}
					],
					"name": "SelectOption",
					"outputs": [],
					"stateMutability": "nonpayable",
					"type": "function"
				},
				{
					"inputs": [
						{
							"internalType": "address",
							"name": "owner",
							"type": "address"
						},
						{
							"internalType": "address",
							"name": "spender",
							"type": "address"
						}
					],
					"name": "allowance",
					"outputs": [
						{
							"internalType": "uint256",
							"name": "",
							"type": "uint256"
						}
					],
					"stateMutability": "view",
					"type": "function"
				},
				{
					"inputs": [
						{
							"internalType": "address",
							"name": "spender",
							"type": "address"
						},
						{
							"internalType": "uint256",
							"name": "value",
							"type": "uint256"
						}
					],
					"name": "approve",
					"outputs": [
						{
							"internalType": "bool",
							"name": "",
							"type": "bool"
						}
					],
					"stateMutability": "nonpayable",
					"type": "function"
				},
				{
					"inputs": [
						{
							"internalType": "address",
							"name": "account",
							"type": "address"
						}
					],
					"name": "balanceOf",
					"outputs": [
						{
							"internalType": "uint256",
							"name": "",
							"type": "uint256"
						}
					],
					"stateMutability": "view",
					"type": "function"
				},
				{
					"inputs": [],
					"name": "decimals",
					"outputs": [
						{
							"internalType": "uint8",
							"name": "",
							"type": "uint8"
						}
					],
					"stateMutability": "view",
					"type": "function"
				},
				{
					"inputs": [],
					"name": "name",
					"outputs": [
						{
							"internalType": "string",
							"name": "",
							"type": "string"
						}
					],
					"stateMutability": "view",
					"type": "function"
				},
				{
					"inputs": [],
					"name": "player1",
					"outputs": [
						{
							"internalType": "address",
							"name": "",
							"type": "address"
						}
					],
					"stateMutability": "view",
					"type": "function"
				},
				{
					"inputs": [],
					"name": "player2",
					"outputs": [
						{
							"internalType": "address",
							"name": "",
							"type": "address"
						}
					],
					"stateMutability": "view",
					"type": "function"
				},
				{
					"inputs": [],
					"name": "symbol",
					"outputs": [
						{
							"internalType": "string",
							"name": "",
							"type": "string"
						}
					],
					"stateMutability": "view",
					"type": "function"
				},
				{
					"inputs": [],
					"name": "totalSupply",
					"outputs": [
						{
							"internalType": "uint256",
							"name": "",
							"type": "uint256"
						}
					],
					"stateMutability": "view",
					"type": "function"
				},
				{
					"inputs": [
						{
							"internalType": "address",
							"name": "to",
							"type": "address"
						},
						{
							"internalType": "uint256",
							"name": "value",
							"type": "uint256"
						}
					],
					"name": "transfer",
					"outputs": [
						{
							"internalType": "bool",
							"name": "",
							"type": "bool"
						}
					],
					"stateMutability": "nonpayable",
					"type": "function"
				},
				{
					"inputs": [
						{
							"internalType": "address",
							"name": "from",
							"type": "address"
						},
						{
							"internalType": "address",
							"name": "to",
							"type": "address"
						},
						{
							"internalType": "uint256",
							"name": "value",
							"type": "uint256"
						}
					],
					"name": "transferFrom",
					"outputs": [
						{
							"internalType": "bool",
							"name": "",
							"type": "bool"
						}
					],
					"stateMutability": "nonpayable",
					"type": "function"
				}
			],
			"devdoc": {
				"errors": {
					"ERC20InsufficientAllowance(address,uint256,uint256)": [
						{
							"details": "Indicates a failure with the `spender`’s `allowance`. Used in transfers.",
							"params": {
								"allowance": "Amount of tokens a `spender` is allowed to operate with.",
								"needed": "Minimum amount required to perform a transfer.",
								"spender": "Address that may be allowed to operate on tokens without being their owner."
							}
						}
					],
					"ERC20InsufficientBalance(address,uint256,uint256)": [
						{
							"details": "Indicates an error related to the current `balance` of a `sender`. Used in transfers.",
							"params": {
								"balance": "Current balance for the interacting account.",
								"needed": "Minimum amount required to perform a transfer.",
								"sender": "Address whose tokens are being transferred."
							}
						}
					],
					"ERC20InvalidApprover(address)": [
						{
							"details": "Indicates a failure with the `approver` of a token to be approved. Used in approvals.",
							"params": {
								"approver": "Address initiating an approval operation."
							}
						}
					],
					"ERC20InvalidReceiver(address)": [
						{
							"details": "Indicates a failure with the token `receiver`. Used in transfers.",
							"params": {
								"receiver": "Address to which tokens are being transferred."
							}
						}
					],
					"ERC20InvalidSender(address)": [
						{
							"details": "Indicates a failure with the token `sender`. Used in transfers.",
							"params": {
								"sender": "Address whose tokens are being transferred."
							}
						}
					],
					"ERC20InvalidSpender(address)": [
						{
							"details": "Indicates a failure with the `spender` to be approved. Used in approvals.",
							"params": {
								"spender": "Address that may be allowed to operate on tokens without being their owner."
							}
						}
					]
				},
				"events": {
					"Approval(address,address,uint256)": {
						"details": "Emitted when the allowance of a `spender` for an `owner` is set by a call to {approve}. `value` is the new allowance."
					},
					"Transfer(address,address,uint256)": {
						"details": "Emitted when `value` tokens are moved from one account (`from`) to another (`to`). Note that `value` may be zero."
					}
				},
				"kind": "dev",
				"methods": {
					"allowance(address,address)": {
						"details": "See {IERC20-allowance}."
					},
					"approve(address,uint256)": {
						"details": "See {IERC20-approve}. NOTE: If `value` is the maximum `uint256`, the allowance is not updated on `transferFrom`. This is semantically equivalent to an infinite approval. Requirements: - `spender` cannot be the zero address."
					},
					"balanceOf(address)": {
						"details": "See {IERC20-balanceOf}."
					},
					"decimals()": {
						"details": "Returns the number of decimals used to get its user representation. For example, if `decimals` equals `2`, a balance of `505` tokens should be displayed to a user as `5.05` (`505 / 10 ** 2`). Tokens usually opt for a value of 18, imitating the relationship between Ether and Wei. This is the default value returned by this function, unless it's overridden. NOTE: This information is only used for _display_ purposes: it in no way affects any of the arithmetic of the contract, including {IERC20-balanceOf} and {IERC20-transfer}."
					},
					"name()": {
						"details": "Returns the name of the token."
					},
					"symbol()": {
						"details": "Returns the symbol of the token, usually a shorter version of the name."
					},
					"totalSupply()": {
						"details": "See {IERC20-totalSupply}."
					},
					"transfer(address,uint256)": {
						"details": "See {IERC20-transfer}. Requirements: - `to` cannot be the zero address. - the caller must have a balance of at least `value`."
					},
					"transferFrom(address,address,uint256)": {
						"details": "See {IERC20-transferFrom}. Emits an {Approval} event indicating the updated allowance. This is not required by the EIP. See the note at the beginning of {ERC20}. NOTE: Does not update the allowance if the current allowance is the maximum `uint256`. Requirements: - `from` and `to` cannot be the zero address. - `from` must have a balance of at least `value`. - the caller must have allowance for ``from``'s tokens of at least `value`."
					}
				},
				"version": 1
			},
			"evm": {
				"assembly": "    /* \"constracts/RockPaperScissors.sol\":308:3400  contract RockPaperScissors is ERC20 {... */\n  mstore(0x40, 0x80)\n    /* \"constracts/RockPaperScissors.sol\":486:493  1000000 */\n  0x0f4240\n    /* \"constracts/RockPaperScissors.sol\":467:493  uint private bet = 1000000 */\n  0x07\n  sstore\n    /* \"constracts/RockPaperScissors.sol\":502:543  string gameStatus = \"Waiting for palyers\" */\n  mload(0x40)\n  dup1\n  0x40\n  add\n  0x40\n  mstore\n  dup1\n  0x13\n  dup2\n  mstore\n  0x20\n  add\n  0x57616974696e6720666f722070616c7965727300000000000000000000000000\n  dup2\n  mstore\n  pop\n  0x08\n  swap1\n  dup2\n  tag_1\n  swap2\n  swap1\n  tag_2\n  jump\t// in\ntag_1:\n  pop\n    /* \"constracts/RockPaperScissors.sol\":605:698  constructor() ERC20(\"RPS_Token\", \"RPS\") {... */\n  callvalue\n  dup1\n  iszero\n  tag_3\n  jumpi\n  0x00\n  dup1\n  revert\ntag_3:\n  pop\n    /* \"@openzeppelin/contracts/token/ERC20/ERC20.sol\":1896:2009  constructor(string memory name_, string memory symbol_) {... */\n  mload(0x40)\n  dup1\n  0x40\n  add\n  0x40\n  mstore\n  dup1\n  0x09\n  dup2\n  mstore\n  0x20\n  add\n  0x5250535f546f6b656e0000000000000000000000000000000000000000000000\n  dup2\n  mstore\n  pop\n  mload(0x40)\n  dup1\n  0x40\n  add\n  0x40\n  mstore\n  dup1\n  0x03\n  dup2\n  mstore\n  0x20\n  add\n  0x5250530000000000000000000000000000000000000000000000000000000000\n  dup2\n  mstore\n  pop\n    /* \"@openzeppelin/contracts/token/ERC20/ERC20.sol\":1970:1975  name_ */\n  dup2\n    /* \"@openzeppelin/contracts/token/ERC20/ERC20.sol\":1962:1967  _name */\n  0x03\n    /* \"@openzeppelin/contracts/token/ERC20/ERC20.sol\":1962:1975  _name = name_ */\n  swap1\n  dup2\n  tag_7\n  swap2\n  swap1\n  tag_2\n  jump\t// in\ntag_7:\n  pop\n    /* \"@openzeppelin/contracts/token/ERC20/ERC20.sol\":1995:2002  symbol_ */\n  dup1\n    /* \"@openzeppelin/contracts/token/ERC20/ERC20.sol\":1985:1992  _symbol */\n  0x04\n    /* \"@openzeppelin/contracts/token/ERC20/ERC20.sol\":1985:2002  _symbol = symbol_ */\n  swap1\n  dup2\n  tag_8\n  swap2\n  swap1\n  tag_2\n  jump\t// in\ntag_8:\n  pop\n    /* \"@openzeppelin/contracts/token/ERC20/ERC20.sol\":1896:2009  constructor(string memory name_, string memory symbol_) {... */\n  pop\n  pop\n    /* \"constracts/RockPaperScissors.sol\":656:690  _mint(msg.sender, _initial_supply) */\n  tag_10\n    /* \"constracts/RockPaperScissors.sol\":662:672  msg.sender */\n  caller\n    /* \"constracts/RockPaperScissors.sol\":584:598  100 * (10**18) */\n  0x056bc75e2d63100000\n    /* \"constracts/RockPaperScissors.sol\":656:661  _mint */\n  shl(0x20, tag_11)\n    /* \"constracts/RockPaperScissors.sol\":656:690  _mint(msg.sender, _initial_supply) */\n  0x20\n  shr\n  jump\t// in\ntag_10:\n    /* \"constracts/RockPaperScissors.sol\":308:3400  contract RockPaperScissors is ERC20 {... */\n  jump(tag_12)\n    /* \"@openzeppelin/contracts/token/ERC20/ERC20.sol\":7721:7929  function _mint(address account, uint256 value) internal {... */\ntag_11:\n    /* \"@openzeppelin/contracts/token/ERC20/ERC20.sol\":7810:7811  0 */\n  0x00\n    /* \"@openzeppelin/contracts/token/ERC20/ERC20.sol\":7791:7812  account == address(0) */\n  0xffffffffffffffffffffffffffffffffffffffff\n  and\n    /* \"@openzeppelin/contracts/token/ERC20/ERC20.sol\":7791:7798  account */\n  dup3\n    /* \"@openzeppelin/contracts/token/ERC20/ERC20.sol\":7791:7812  account == address(0) */\n  0xffffffffffffffffffffffffffffffffffffffff\n  and\n  sub\n    /* \"@openzeppelin/contracts/token/ERC20/ERC20.sol\":7787:7878  if (account == address(0)) {... */\n  tag_14\n  jumpi\n    /* \"@openzeppelin/contracts/token/ERC20/ERC20.sol\":7864:7865  0 */\n  0x00\n    /* \"@openzeppelin/contracts/token/ERC20/ERC20.sol\":7835:7867  ERC20InvalidReceiver(address(0)) */\n  mload(0x40)\n  0xec442f0500000000000000000000000000000000000000000000000000000000\n  dup2\n  mstore\n  0x04\n  add\n  tag_15\n  swap2\n  swap1\n  tag_16\n  jump\t// in\ntag_15:\n  mload(0x40)\n  dup1\n  swap2\n  sub\n  swap1\n  revert\n    /* \"@openzeppelin/contracts/token/ERC20/ERC20.sol\":7787:7878  if (account == address(0)) {... */\ntag_14:\n    /* \"@openzeppelin/contracts/token/ERC20/ERC20.sol\":7887:7922  _update(address(0), account, value) */\n  tag_17\n    /* \"@openzeppelin/contracts/token/ERC20/ERC20.sol\":7903:7904  0 */\n  0x00\n    /* \"@openzeppelin/contracts/token/ERC20/ERC20.sol\":7907:7914  account */\n  dup4\n    /* \"@openzeppelin/contracts/token/ERC20/ERC20.sol\":7916:7921  value */\n  dup4\n    /* \"@openzeppelin/contracts/token/ERC20/ERC20.sol\":7887:7894  _update */\n  shl(0x20, tag_18)\n    /* \"@openzeppelin/contracts/token/ERC20/ERC20.sol\":7887:7922  _update(address(0), account, value) */\n  0x20\n  shr\n  jump\t// in\ntag_17:\n    /* \"@openzeppelin/contracts/token/ERC20/ERC20.sol\":7721:7929  function _mint(address account, uint256 value) internal {... */\n  pop\n  pop\n  jump\t// out\n    /* \"@openzeppelin/contracts/token/ERC20/ERC20.sol\":6271:7378  function _update(address from, address to, uint256 value) internal virtual {... */\ntag_18:\n    /* \"@openzeppelin/contracts/token/ERC20/ERC20.sol\":6376:6377  0 */\n  0x00\n    /* \"@openzeppelin/contracts/token/ERC20/ERC20.sol\":6360:6378  from == address(0) */\n  0xffffffffffffffffffffffffffffffffffffffff\n  and\n    /* \"@openzeppelin/contracts/token/ERC20/ERC20.sol\":6360:6364  from */\n  dup4\n    /* \"@openzeppelin/contracts/token/ERC20/ERC20.sol\":6360:6378  from == address(0) */\n  0xffffffffffffffffffffffffffffffffffffffff\n  and\n  sub\n    /* \"@openzeppelin/contracts/token/ERC20/ERC20.sol\":6356:6896  if (from == address(0)) {... */\n  tag_20\n  jumpi\n    /* \"@openzeppelin/contracts/token/ERC20/ERC20.sol\":6512:6517  value */\n  dup1\n    /* \"@openzeppelin/contracts/token/ERC20/ERC20.sol\":6496:6508  _totalSupply */\n  0x02\n  0x00\n    /* \"@openzeppelin/contracts/token/ERC20/ERC20.sol\":6496:6517  _totalSupply += value */\n  dup3\n  dup3\n  sload\n  tag_21\n  swap2\n  swap1\n  tag_22\n  jump\t// in\ntag_21:\n  swap3\n  pop\n  pop\n  dup2\n  swap1\n  sstore\n  pop\n    /* \"@openzeppelin/contracts/token/ERC20/ERC20.sol\":6356:6896  if (from == address(0)) {... */\n  jump(tag_23)\ntag_20:\n    /* \"@openzeppelin/contracts/token/ERC20/ERC20.sol\":6548:6567  uint256 fromBalance */\n  0x00\n    /* \"@openzeppelin/contracts/token/ERC20/ERC20.sol\":6570:6579  _balances */\n  dup1\n    /* \"@openzeppelin/contracts/token/ERC20/ERC20.sol\":6570:6585  _balances[from] */\n  0x00\n    /* \"@openzeppelin/contracts/token/ERC20/ERC20.sol\":6580:6584  from */\n  dup6\n    /* \"@openzeppelin/contracts/token/ERC20/ERC20.sol\":6570:6585  _balances[from] */\n  0xffffffffffffffffffffffffffffffffffffffff\n  and\n  0xffffffffffffffffffffffffffffffffffffffff\n  and\n  dup2\n  mstore\n  0x20\n  add\n  swap1\n  dup2\n  mstore\n  0x20\n  add\n  0x00\n  keccak256\n  sload\n    /* \"@openzeppelin/contracts/token/ERC20/ERC20.sol\":6548:6585  uint256 fromBalance = _balances[from] */\n  swap1\n  pop\n    /* \"@openzeppelin/contracts/token/ERC20/ERC20.sol\":6617:6622  value */\n  dup2\n    /* \"@openzeppelin/contracts/token/ERC20/ERC20.sol\":6603:6614  fromBalance */\n  dup2\n    /* \"@openzeppelin/contracts/token/ERC20/ERC20.sol\":6603:6622  fromBalance < value */\n  lt\n    /* \"@openzeppelin/contracts/token/ERC20/ERC20.sol\":6599:6714  if (fromBalance < value) {... */\n  iszero\n  tag_24\n  jumpi\n    /* \"@openzeppelin/contracts/token/ERC20/ERC20.sol\":6674:6678  from */\n  dup4\n    /* \"@openzeppelin/contracts/token/ERC20/ERC20.sol\":6680:6691  fromBalance */\n  dup2\n    /* \"@openzeppelin/contracts/token/ERC20/ERC20.sol\":6693:6698  value */\n  dup4\n    /* \"@openzeppelin/contracts/token/ERC20/ERC20.sol\":6649:6699  ERC20InsufficientBalance(from, fromBalance, value) */\n  mload(0x40)\n  0xe450d38c00000000000000000000000000000000000000000000000000000000\n  dup2\n  mstore\n  0x04\n  add\n  tag_25\n  swap4\n  swap3\n  swap2\n  swap1\n  tag_26\n  jump\t// in\ntag_25:\n  mload(0x40)\n  dup1\n  swap2\n  sub\n  swap1\n  revert\n    /* \"@openzeppelin/contracts/token/ERC20/ERC20.sol\":6599:6714  if (fromBalance < value) {... */\ntag_24:\n    /* \"@openzeppelin/contracts/token/ERC20/ERC20.sol\":6866:6871  value */\n  dup2\n    /* \"@openzeppelin/contracts/token/ERC20/ERC20.sol\":6852:6863  fromBalance */\n  dup2\n    /* \"@openzeppelin/contracts/token/ERC20/ERC20.sol\":6852:6871  fromBalance - value */\n  sub\n    /* \"@openzeppelin/contracts/token/ERC20/ERC20.sol\":6834:6843  _balances */\n  0x00\n    /* \"@openzeppelin/contracts/token/ERC20/ERC20.sol\":6834:6849  _balances[from] */\n  dup1\n    /* \"@openzeppelin/contracts/token/ERC20/ERC20.sol\":6844:6848  from */\n  dup7\n    /* \"@openzeppelin/contracts/token/ERC20/ERC20.sol\":6834:6849  _balances[from] */\n  0xffffffffffffffffffffffffffffffffffffffff\n  and\n  0xffffffffffffffffffffffffffffffffffffffff\n  and\n  dup2\n  mstore\n  0x20\n  add\n  swap1\n  dup2\n  mstore\n  0x20\n  add\n  0x00\n  keccak256\n    /* \"@openzeppelin/contracts/token/ERC20/ERC20.sol\":6834:6871  _balances[from] = fromBalance - value */\n  dup2\n  swap1\n  sstore\n  pop\n    /* \"@openzeppelin/contracts/token/ERC20/ERC20.sol\":6534:6896  {... */\n  pop\n    /* \"@openzeppelin/contracts/token/ERC20/ERC20.sol\":6356:6896  if (from == address(0)) {... */\ntag_23:\n    /* \"@openzeppelin/contracts/token/ERC20/ERC20.sol\":6924:6925  0 */\n  0x00\n    /* \"@openzeppelin/contracts/token/ERC20/ERC20.sol\":6910:6926  to == address(0) */\n  0xffffffffffffffffffffffffffffffffffffffff\n  and\n    /* \"@openzeppelin/contracts/token/ERC20/ERC20.sol\":6910:6912  to */\n  dup3\n    /* \"@openzeppelin/contracts/token/ERC20/ERC20.sol\":6910:6926  to == address(0) */\n  0xffffffffffffffffffffffffffffffffffffffff\n  and\n  sub\n    /* \"@openzeppelin/contracts/token/ERC20/ERC20.sol\":6906:7331  if (to == address(0)) {... */\n  tag_27\n  jumpi\n    /* \"@openzeppelin/contracts/token/ERC20/ERC20.sol\":7089:7094  value */\n  dup1\n    /* \"@openzeppelin/contracts/token/ERC20/ERC20.sol\":7073:7085  _totalSupply */\n  0x02\n  0x00\n    /* \"@openzeppelin/contracts/token/ERC20/ERC20.sol\":7073:7094  _totalSupply -= value */\n  dup3\n  dup3\n  sload\n  sub\n  swap3\n  pop\n  pop\n  dup2\n  swap1\n  sstore\n  pop\n    /* \"@openzeppelin/contracts/token/ERC20/ERC20.sol\":6906:7331  if (to == address(0)) {... */\n  jump(tag_28)\ntag_27:\n    /* \"@openzeppelin/contracts/token/ERC20/ERC20.sol\":7301:7306  value */\n  dup1\n    /* \"@openzeppelin/contracts/token/ERC20/ERC20.sol\":7284:7293  _balances */\n  0x00\n    /* \"@openzeppelin/contracts/token/ERC20/ERC20.sol\":7284:7297  _balances[to] */\n  dup1\n    /* \"@openzeppelin/contracts/token/ERC20/ERC20.sol\":7294:7296  to */\n  dup5\n    /* \"@openzeppelin/contracts/token/ERC20/ERC20.sol\":7284:7297  _balances[to] */\n  0xffffffffffffffffffffffffffffffffffffffff\n  and\n  0xffffffffffffffffffffffffffffffffffffffff\n  and\n  dup2\n  mstore\n  0x20\n  add\n  swap1\n  dup2\n  mstore\n  0x20\n  add\n  0x00\n  keccak256\n  0x00\n    /* \"@openzeppelin/contracts/token/ERC20/ERC20.sol\":7284:7306  _balances[to] += value */\n  dup3\n  dup3\n  sload\n  add\n  swap3\n  pop\n  pop\n  dup2\n  swap1\n  sstore\n  pop\n    /* \"@openzeppelin/contracts/token/ERC20/ERC20.sol\":6906:7331  if (to == address(0)) {... */\ntag_28:\n    /* \"@openzeppelin/contracts/token/ERC20/ERC20.sol\":7361:7363  to */\n  dup2\n    /* \"@openzeppelin/contracts/token/ERC20/ERC20.sol\":7346:7371  Transfer(from, to, value) */\n  0xffffffffffffffffffffffffffffffffffffffff\n  and\n    /* \"@openzeppelin/contracts/token/ERC20/ERC20.sol\":7355:7359  from */\n  dup4\n    /* \"@openzeppelin/contracts/token/ERC20/ERC20.sol\":7346:7371  Transfer(from, to, value) */\n  0xffffffffffffffffffffffffffffffffffffffff\n  and\n  0xddf252ad1be2c89b69c2b068fc378daa952ba7f163c4a11628f55a4df523b3ef\n    /* \"@openzeppelin/contracts/token/ERC20/ERC20.sol\":7365:7370  value */\n  dup4\n    /* \"@openzeppelin/contracts/token/ERC20/ERC20.sol\":7346:7371  Transfer(from, to, value) */\n  mload(0x40)\n  tag_29\n  swap2\n  swap1\n  tag_30\n  jump\t// in\ntag_29:\n  mload(0x40)\n  dup1\n  swap2\n  sub\n  swap1\n  log3\n    /* \"@openzeppelin/contracts/token/ERC20/ERC20.sol\":6271:7378  function _update(address from, address to, uint256 value) internal virtual {... */\n  pop\n  pop\n  pop\n  jump\t// out\n    /* \"#utility.yul\":7:106   */\ntag_31:\n    /* \"#utility.yul\":59:65   */\n  0x00\n    /* \"#utility.yul\":93:98   */\n  dup2\n    /* \"#utility.yul\":87:99   */\n  mload\n    /* \"#utility.yul\":77:99   */\n  swap1\n  pop\n    /* \"#utility.yul\":7:106   */\n  swap2\n  swap1\n  pop\n  jump\t// out\n    /* \"#utility.yul\":112:292   */\ntag_32:\n    /* \"#utility.yul\":160:237   */\n  0x4e487b7100000000000000000000000000000000000000000000000000000000\n    /* \"#utility.yul\":157:158   */\n  0x00\n    /* \"#utility.yul\":150:238   */\n  mstore\n    /* \"#utility.yul\":257:261   */\n  0x41\n    /* \"#utility.yul\":254:255   */\n  0x04\n    /* \"#utility.yul\":247:262   */\n  mstore\n    /* \"#utility.yul\":281:285   */\n  0x24\n    /* \"#utility.yul\":278:279   */\n  0x00\n    /* \"#utility.yul\":271:286   */\n  revert\n    /* \"#utility.yul\":298:478   */\ntag_33:\n    /* \"#utility.yul\":346:423   */\n  0x4e487b7100000000000000000000000000000000000000000000000000000000\n    /* \"#utility.yul\":343:344   */\n  0x00\n    /* \"#utility.yul\":336:424   */\n  mstore\n    /* \"#utility.yul\":443:447   */\n  0x22\n    /* \"#utility.yul\":440:441   */\n  0x04\n    /* \"#utility.yul\":433:448   */\n  mstore\n    /* \"#utility.yul\":467:471   */\n  0x24\n    /* \"#utility.yul\":464:465   */\n  0x00\n    /* \"#utility.yul\":457:472   */\n  revert\n    /* \"#utility.yul\":484:804   */\ntag_34:\n    /* \"#utility.yul\":528:534   */\n  0x00\n    /* \"#utility.yul\":565:566   */\n  0x02\n    /* \"#utility.yul\":559:563   */\n  dup3\n    /* \"#utility.yul\":555:567   */\n  div\n    /* \"#utility.yul\":545:567   */\n  swap1\n  pop\n    /* \"#utility.yul\":612:613   */\n  0x01\n    /* \"#utility.yul\":606:610   */\n  dup3\n    /* \"#utility.yul\":602:614   */\n  and\n    /* \"#utility.yul\":633:651   */\n  dup1\n    /* \"#utility.yul\":623:704   */\n  tag_61\n  jumpi\n    /* \"#utility.yul\":689:693   */\n  0x7f\n    /* \"#utility.yul\":681:687   */\n  dup3\n    /* \"#utility.yul\":677:694   */\n  and\n    /* \"#utility.yul\":667:694   */\n  swap2\n  pop\n    /* \"#utility.yul\":623:704   */\ntag_61:\n    /* \"#utility.yul\":751:753   */\n  0x20\n    /* \"#utility.yul\":743:749   */\n  dup3\n    /* \"#utility.yul\":740:754   */\n  lt\n    /* \"#utility.yul\":720:738   */\n  dup2\n    /* \"#utility.yul\":717:755   */\n  sub\n    /* \"#utility.yul\":714:798   */\n  tag_62\n  jumpi\n    /* \"#utility.yul\":770:788   */\n  tag_63\n  tag_33\n  jump\t// in\ntag_63:\n    /* \"#utility.yul\":714:798   */\ntag_62:\n    /* \"#utility.yul\":535:804   */\n  pop\n    /* \"#utility.yul\":484:804   */\n  swap2\n  swap1\n  pop\n  jump\t// out\n    /* \"#utility.yul\":810:951   */\ntag_35:\n    /* \"#utility.yul\":859:863   */\n  0x00\n    /* \"#utility.yul\":882:885   */\n  dup2\n    /* \"#utility.yul\":874:885   */\n  swap1\n  pop\n    /* \"#utility.yul\":905:908   */\n  dup2\n    /* \"#utility.yul\":902:903   */\n  0x00\n    /* \"#utility.yul\":895:909   */\n  mstore\n    /* \"#utility.yul\":939:943   */\n  0x20\n    /* \"#utility.yul\":936:937   */\n  0x00\n    /* \"#utility.yul\":926:944   */\n  keccak256\n    /* \"#utility.yul\":918:944   */\n  swap1\n  pop\n    /* \"#utility.yul\":810:951   */\n  swap2\n  swap1\n  pop\n  jump\t// out\n    /* \"#utility.yul\":957:1050   */\ntag_36:\n    /* \"#utility.yul\":994:1000   */\n  0x00\n    /* \"#utility.yul\":1041:1043   */\n  0x20\n    /* \"#utility.yul\":1036:1038   */\n  0x1f\n    /* \"#utility.yul\":1029:1034   */\n  dup4\n    /* \"#utility.yul\":1025:1039   */\n  add\n    /* \"#utility.yul\":1021:1044   */\n  div\n    /* \"#utility.yul\":1011:1044   */\n  swap1\n  pop\n    /* \"#utility.yul\":957:1050   */\n  swap2\n  swap1\n  pop\n  jump\t// out\n    /* \"#utility.yul\":1056:1163   */\ntag_37:\n    /* \"#utility.yul\":1100:1108   */\n  0x00\n    /* \"#utility.yul\":1150:1155   */\n  dup3\n    /* \"#utility.yul\":1144:1148   */\n  dup3\n    /* \"#utility.yul\":1140:1156   */\n  shl\n    /* \"#utility.yul\":1119:1156   */\n  swap1\n  pop\n    /* \"#utility.yul\":1056:1163   */\n  swap3\n  swap2\n  pop\n  pop\n  jump\t// out\n    /* \"#utility.yul\":1169:1562   */\ntag_38:\n    /* \"#utility.yul\":1238:1244   */\n  0x00\n    /* \"#utility.yul\":1288:1289   */\n  0x08\n    /* \"#utility.yul\":1276:1286   */\n  dup4\n    /* \"#utility.yul\":1272:1290   */\n  mul\n    /* \"#utility.yul\":1311:1408   */\n  tag_68\n    /* \"#utility.yul\":1341:1407   */\n  0xffffffffffffffffffffffffffffffffffffffffffffffffffffffffffffffff\n    /* \"#utility.yul\":1330:1339   */\n  dup3\n    /* \"#utility.yul\":1311:1408   */\n  tag_37\n  jump\t// in\ntag_68:\n    /* \"#utility.yul\":1429:1468   */\n  tag_69\n    /* \"#utility.yul\":1459:1467   */\n  dup7\n    /* \"#utility.yul\":1448:1457   */\n  dup4\n    /* \"#utility.yul\":1429:1468   */\n  tag_37\n  jump\t// in\ntag_69:\n    /* \"#utility.yul\":1417:1468   */\n  swap6\n  pop\n    /* \"#utility.yul\":1501:1505   */\n  dup1\n    /* \"#utility.yul\":1497:1506   */\n  not\n    /* \"#utility.yul\":1490:1495   */\n  dup5\n    /* \"#utility.yul\":1486:1507   */\n  and\n    /* \"#utility.yul\":1477:1507   */\n  swap4\n  pop\n    /* \"#utility.yul\":1550:1554   */\n  dup1\n    /* \"#utility.yul\":1540:1548   */\n  dup7\n    /* \"#utility.yul\":1536:1555   */\n  and\n    /* \"#utility.yul\":1529:1534   */\n  dup5\n    /* \"#utility.yul\":1526:1556   */\n  or\n    /* \"#utility.yul\":1516:1556   */\n  swap3\n  pop\n    /* \"#utility.yul\":1245:1562   */\n  pop\n  pop\n    /* \"#utility.yul\":1169:1562   */\n  swap4\n  swap3\n  pop\n  pop\n  pop\n  jump\t// out\n    /* \"#utility.yul\":1568:1645   */\ntag_39:\n    /* \"#utility.yul\":1605:1612   */\n  0x00\n    /* \"#utility.yul\":1634:1639   */\n  dup2\n    /* \"#utility.yul\":1623:1639   */\n  swap1\n  pop\n    /* \"#utility.yul\":1568:1645   */\n  swap2\n  swap1\n  pop\n  jump\t// out\n    /* \"#utility.yul\":1651:1711   */\ntag_40:\n    /* \"#utility.yul\":1679:1682   */\n  0x00\n    /* \"#utility.yul\":1700:1705   */\n  dup2\n    /* \"#utility.yul\":1693:1705   */\n  swap1\n  pop\n    /* \"#utility.yul\":1651:1711   */\n  swap2\n  swap1\n  pop\n  jump\t// out\n    /* \"#utility.yul\":1717:1859   */\ntag_41:\n    /* \"#utility.yul\":1767:1776   */\n  0x00\n    /* \"#utility.yul\":1800:1853   */\n  tag_73\n    /* \"#utility.yul\":1818:1852   */\n  tag_74\n    /* \"#utility.yul\":1827:1851   */\n  tag_75\n    /* \"#utility.yul\":1845:1850   */\n  dup5\n    /* \"#utility.yul\":1827:1851   */\n  tag_39\n  jump\t// in\ntag_75:\n    /* \"#utility.yul\":1818:1852   */\n  tag_40\n  jump\t// in\ntag_74:\n    /* \"#utility.yul\":1800:1853   */\n  tag_39\n  jump\t// in\ntag_73:\n    /* \"#utility.yul\":1787:1853   */\n  swap1\n  pop\n    /* \"#utility.yul\":1717:1859   */\n  swap2\n  swap1\n  pop\n  jump\t// out\n    /* \"#utility.yul\":1865:1940   */\ntag_42:\n    /* \"#utility.yul\":1908:1911   */\n  0x00\n    /* \"#utility.yul\":1929:1934   */\n  dup2\n    /* \"#utility.yul\":1922:1934   */\n  swap1\n  pop\n    /* \"#utility.yul\":1865:1940   */\n  swap2\n  swap1\n  pop\n  jump\t// out\n    /* \"#utility.yul\":1946:2215   */\ntag_43:\n    /* \"#utility.yul\":2056:2095   */\n  tag_78\n    /* \"#utility.yul\":2087:2094   */\n  dup4\n    /* \"#utility.yul\":2056:2095   */\n  tag_41\n  jump\t// in\ntag_78:\n    /* \"#utility.yul\":2117:2208   */\n  tag_79\n    /* \"#utility.yul\":2166:2207   */\n  tag_80\n    /* \"#utility.yul\":2190:2206   */\n  dup3\n    /* \"#utility.yul\":2166:2207   */\n  tag_42\n  jump\t// in\ntag_80:\n    /* \"#utility.yul\":2158:2164   */\n  dup5\n    /* \"#utility.yul\":2151:2155   */\n  dup5\n    /* \"#utility.yul\":2145:2156   */\n  sload\n    /* \"#utility.yul\":2117:2208   */\n  tag_38\n  jump\t// in\ntag_79:\n    /* \"#utility.yul\":2111:2115   */\n  dup3\n    /* \"#utility.yul\":2104:2209   */\n  sstore\n    /* \"#utility.yul\":2022:2215   */\n  pop\n    /* \"#utility.yul\":1946:2215   */\n  pop\n  pop\n  pop\n  jump\t// out\n    /* \"#utility.yul\":2221:2294   */\ntag_44:\n    /* \"#utility.yul\":2266:2269   */\n  0x00\n    /* \"#utility.yul\":2221:2294   */\n  swap1\n  jump\t// out\n    /* \"#utility.yul\":2300:2489   */\ntag_45:\n    /* \"#utility.yul\":2377:2409   */\n  tag_83\n  tag_44\n  jump\t// in\ntag_83:\n    /* \"#utility.yul\":2418:2483   */\n  tag_84\n    /* \"#utility.yul\":2476:2482   */\n  dup2\n    /* \"#utility.yul\":2468:2474   */\n  dup5\n    /* \"#utility.yul\":2462:2466   */\n  dup5\n    /* \"#utility.yul\":2418:2483   */\n  tag_43\n  jump\t// in\ntag_84:\n    /* \"#utility.yul\":2353:2489   */\n  pop\n    /* \"#utility.yul\":2300:2489   */\n  pop\n  pop\n  jump\t// out\n    /* \"#utility.yul\":2495:2681   */\ntag_46:\n    /* \"#utility.yul\":2555:2675   */\ntag_86:\n    /* \"#utility.yul\":2572:2575   */\n  dup2\n    /* \"#utility.yul\":2565:2570   */\n  dup2\n    /* \"#utility.yul\":2562:2576   */\n  lt\n    /* \"#utility.yul\":2555:2675   */\n  iszero\n  tag_88\n  jumpi\n    /* \"#utility.yul\":2626:2665   */\n  tag_89\n    /* \"#utility.yul\":2663:2664   */\n  0x00\n    /* \"#utility.yul\":2656:2661   */\n  dup3\n    /* \"#utility.yul\":2626:2665   */\n  tag_45\n  jump\t// in\ntag_89:\n    /* \"#utility.yul\":2599:2600   */\n  0x01\n    /* \"#utility.yul\":2592:2597   */\n  dup2\n    /* \"#utility.yul\":2588:2601   */\n  add\n    /* \"#utility.yul\":2579:2601   */\n  swap1\n  pop\n    /* \"#utility.yul\":2555:2675   */\n  jump(tag_86)\ntag_88:\n    /* \"#utility.yul\":2495:2681   */\n  pop\n  pop\n  jump\t// out\n    /* \"#utility.yul\":2687:3230   */\ntag_47:\n    /* \"#utility.yul\":2788:2790   */\n  0x1f\n    /* \"#utility.yul\":2783:2786   */\n  dup3\n    /* \"#utility.yul\":2780:2791   */\n  gt\n    /* \"#utility.yul\":2777:3223   */\n  iszero\n  tag_91\n  jumpi\n    /* \"#utility.yul\":2822:2860   */\n  tag_92\n    /* \"#utility.yul\":2854:2859   */\n  dup2\n    /* \"#utility.yul\":2822:2860   */\n  tag_35\n  jump\t// in\ntag_92:\n    /* \"#utility.yul\":2906:2935   */\n  tag_93\n    /* \"#utility.yul\":2924:2934   */\n  dup5\n    /* \"#utility.yul\":2906:2935   */\n  tag_36\n  jump\t// in\ntag_93:\n    /* \"#utility.yul\":2896:2904   */\n  dup2\n    /* \"#utility.yul\":2892:2936   */\n  add\n    /* \"#utility.yul\":3089:3091   */\n  0x20\n    /* \"#utility.yul\":3077:3087   */\n  dup6\n    /* \"#utility.yul\":3074:3092   */\n  lt\n    /* \"#utility.yul\":3071:3120   */\n  iszero\n  tag_94\n  jumpi\n    /* \"#utility.yul\":3110:3118   */\n  dup2\n    /* \"#utility.yul\":3095:3118   */\n  swap1\n  pop\n    /* \"#utility.yul\":3071:3120   */\ntag_94:\n    /* \"#utility.yul\":3133:3213   */\n  tag_95\n    /* \"#utility.yul\":3189:3211   */\n  tag_96\n    /* \"#utility.yul\":3207:3210   */\n  dup6\n    /* \"#utility.yul\":3189:3211   */\n  tag_36\n  jump\t// in\ntag_96:\n    /* \"#utility.yul\":3179:3187   */\n  dup4\n    /* \"#utility.yul\":3175:3212   */\n  add\n    /* \"#utility.yul\":3162:3173   */\n  dup3\n    /* \"#utility.yul\":3133:3213   */\n  tag_46\n  jump\t// in\ntag_95:\n    /* \"#utility.yul\":2792:3223   */\n  pop\n  pop\n    /* \"#utility.yul\":2777:3223   */\ntag_91:\n    /* \"#utility.yul\":2687:3230   */\n  pop\n  pop\n  pop\n  jump\t// out\n    /* \"#utility.yul\":3236:3353   */\ntag_48:\n    /* \"#utility.yul\":3290:3298   */\n  0x00\n    /* \"#utility.yul\":3340:3345   */\n  dup3\n    /* \"#utility.yul\":3334:3338   */\n  dup3\n    /* \"#utility.yul\":3330:3346   */\n  shr\n    /* \"#utility.yul\":3309:3346   */\n  swap1\n  pop\n    /* \"#utility.yul\":3236:3353   */\n  swap3\n  swap2\n  pop\n  pop\n  jump\t// out\n    /* \"#utility.yul\":3359:3528   */\ntag_49:\n    /* \"#utility.yul\":3403:3409   */\n  0x00\n    /* \"#utility.yul\":3436:3487   */\n  tag_99\n    /* \"#utility.yul\":3484:3485   */\n  0x00\n    /* \"#utility.yul\":3480:3486   */\n  not\n    /* \"#utility.yul\":3472:3477   */\n  dup5\n    /* \"#utility.yul\":3469:3470   */\n  0x08\n    /* \"#utility.yul\":3465:3478   */\n  mul\n    /* \"#utility.yul\":3436:3487   */\n  tag_48\n  jump\t// in\ntag_99:\n    /* \"#utility.yul\":3432:3488   */\n  not\n    /* \"#utility.yul\":3517:3521   */\n  dup1\n    /* \"#utility.yul\":3511:3515   */\n  dup4\n    /* \"#utility.yul\":3507:3522   */\n  and\n    /* \"#utility.yul\":3497:3522   */\n  swap2\n  pop\n    /* \"#utility.yul\":3410:3528   */\n  pop\n    /* \"#utility.yul\":3359:3528   */\n  swap3\n  swap2\n  pop\n  pop\n  jump\t// out\n    /* \"#utility.yul\":3533:3828   */\ntag_50:\n    /* \"#utility.yul\":3609:3613   */\n  0x00\n    /* \"#utility.yul\":3755:3784   */\n  tag_101\n    /* \"#utility.yul\":3780:3783   */\n  dup4\n    /* \"#utility.yul\":3774:3778   */\n  dup4\n    /* \"#utility.yul\":3755:3784   */\n  tag_49\n  jump\t// in\ntag_101:\n    /* \"#utility.yul\":3747:3784   */\n  swap2\n  pop\n    /* \"#utility.yul\":3817:3820   */\n  dup3\n    /* \"#utility.yul\":3814:3815   */\n  0x02\n    /* \"#utility.yul\":3810:3821   */\n  mul\n    /* \"#utility.yul\":3804:3808   */\n  dup3\n    /* \"#utility.yul\":3801:3822   */\n  or\n    /* \"#utility.yul\":3793:3822   */\n  swap1\n  pop\n    /* \"#utility.yul\":3533:3828   */\n  swap3\n  swap2\n  pop\n  pop\n  jump\t// out\n    /* \"#utility.yul\":3833:5228   */\ntag_2:\n    /* \"#utility.yul\":3950:3987   */\n  tag_103\n    /* \"#utility.yul\":3983:3986   */\n  dup3\n    /* \"#utility.yul\":3950:3987   */\n  tag_31\n  jump\t// in\ntag_103:\n    /* \"#utility.yul\":4052:4070   */\n  0xffffffffffffffff\n    /* \"#utility.yul\":4044:4050   */\n  dup2\n    /* \"#utility.yul\":4041:4071   */\n  gt\n    /* \"#utility.yul\":4038:4094   */\n  iszero\n  tag_104\n  jumpi\n    /* \"#utility.yul\":4074:4092   */\n  tag_105\n  tag_32\n  jump\t// in\ntag_105:\n    /* \"#utility.yul\":4038:4094   */\ntag_104:\n    /* \"#utility.yul\":4118:4156   */\n  tag_106\n    /* \"#utility.yul\":4150:4154   */\n  dup3\n    /* \"#utility.yul\":4144:4155   */\n  sload\n    /* \"#utility.yul\":4118:4156   */\n  tag_34\n  jump\t// in\ntag_106:\n    /* \"#utility.yul\":4203:4270   */\n  tag_107\n    /* \"#utility.yul\":4263:4269   */\n  dup3\n    /* \"#utility.yul\":4255:4261   */\n  dup3\n    /* \"#utility.yul\":4249:4253   */\n  dup6\n    /* \"#utility.yul\":4203:4270   */\n  tag_47\n  jump\t// in\ntag_107:\n    /* \"#utility.yul\":4297:4298   */\n  0x00\n    /* \"#utility.yul\":4321:4325   */\n  0x20\n    /* \"#utility.yul\":4308:4325   */\n  swap1\n  pop\n    /* \"#utility.yul\":4353:4355   */\n  0x1f\n    /* \"#utility.yul\":4345:4351   */\n  dup4\n    /* \"#utility.yul\":4342:4356   */\n  gt\n    /* \"#utility.yul\":4370:4371   */\n  0x01\n    /* \"#utility.yul\":4365:4983   */\n  dup2\n  eq\n  tag_109\n  jumpi\n    /* \"#utility.yul\":5027:5028   */\n  0x00\n    /* \"#utility.yul\":5044:5050   */\n  dup5\n    /* \"#utility.yul\":5041:5118   */\n  iszero\n  tag_110\n  jumpi\n    /* \"#utility.yul\":5093:5102   */\n  dup3\n    /* \"#utility.yul\":5088:5091   */\n  dup8\n    /* \"#utility.yul\":5084:5103   */\n  add\n    /* \"#utility.yul\":5078:5104   */\n  mload\n    /* \"#utility.yul\":5069:5104   */\n  swap1\n  pop\n    /* \"#utility.yul\":5041:5118   */\ntag_110:\n    /* \"#utility.yul\":5144:5211   */\n  tag_111\n    /* \"#utility.yul\":5204:5210   */\n  dup6\n    /* \"#utility.yul\":5197:5202   */\n  dup3\n    /* \"#utility.yul\":5144:5211   */\n  tag_50\n  jump\t// in\ntag_111:\n    /* \"#utility.yul\":5138:5142   */\n  dup7\n    /* \"#utility.yul\":5131:5212   */\n  sstore\n    /* \"#utility.yul\":5000:5222   */\n  pop\n    /* \"#utility.yul\":4335:5222   */\n  jump(tag_108)\n    /* \"#utility.yul\":4365:4983   */\ntag_109:\n    /* \"#utility.yul\":4417:4421   */\n  0x1f\n    /* \"#utility.yul\":4413:4422   */\n  not\n    /* \"#utility.yul\":4405:4411   */\n  dup5\n    /* \"#utility.yul\":4401:4423   */\n  and\n    /* \"#utility.yul\":4451:4488   */\n  tag_112\n    /* \"#utility.yul\":4483:4487   */\n  dup7\n    /* \"#utility.yul\":4451:4488   */\n  tag_35\n  jump\t// in\ntag_112:\n    /* \"#utility.yul\":4510:4511   */\n  0x00\n    /* \"#utility.yul\":4524:4732   */\ntag_113:\n    /* \"#utility.yul\":4538:4545   */\n  dup3\n    /* \"#utility.yul\":4535:4536   */\n  dup2\n    /* \"#utility.yul\":4532:4546   */\n  lt\n    /* \"#utility.yul\":4524:4732   */\n  iszero\n  tag_115\n  jumpi\n    /* \"#utility.yul\":4617:4626   */\n  dup5\n    /* \"#utility.yul\":4612:4615   */\n  dup10\n    /* \"#utility.yul\":4608:4627   */\n  add\n    /* \"#utility.yul\":4602:4628   */\n  mload\n    /* \"#utility.yul\":4594:4600   */\n  dup3\n    /* \"#utility.yul\":4587:4629   */\n  sstore\n    /* \"#utility.yul\":4668:4669   */\n  0x01\n    /* \"#utility.yul\":4660:4666   */\n  dup3\n    /* \"#utility.yul\":4656:4670   */\n  add\n    /* \"#utility.yul\":4646:4670   */\n  swap2\n  pop\n    /* \"#utility.yul\":4715:4717   */\n  0x20\n    /* \"#utility.yul\":4704:4713   */\n  dup6\n    /* \"#utility.yul\":4700:4718   */\n  add\n    /* \"#utility.yul\":4687:4718   */\n  swap5\n  pop\n    /* \"#utility.yul\":4561:4565   */\n  0x20\n    /* \"#utility.yul\":4558:4559   */\n  dup2\n    /* \"#utility.yul\":4554:4566   */\n  add\n    /* \"#utility.yul\":4549:4566   */\n  swap1\n  pop\n    /* \"#utility.yul\":4524:4732   */\n  jump(tag_113)\ntag_115:\n    /* \"#utility.yul\":4760:4766   */\n  dup7\n    /* \"#utility.yul\":4751:4758   */\n  dup4\n    /* \"#utility.yul\":4748:4767   */\n  lt\n    /* \"#utility.yul\":4745:4924   */\n  iszero\n  tag_116\n  jumpi\n    /* \"#utility.yul\":4818:4827   */\n  dup5\n    /* \"#utility.yul\":4813:4816   */\n  dup10\n    /* \"#utility.yul\":4809:4828   */\n  add\n    /* \"#utility.yul\":4803:4829   */\n  mload\n    /* \"#utility.yul\":4861:4909   */\n  tag_117\n    /* \"#utility.yul\":4903:4907   */\n  0x1f\n    /* \"#utility.yul\":4895:4901   */\n  dup10\n    /* \"#utility.yul\":4891:4908   */\n  and\n    /* \"#utility.yul\":4880:4889   */\n  dup3\n    /* \"#utility.yul\":4861:4909   */\n  tag_49\n  jump\t// in\ntag_117:\n    /* \"#utility.yul\":4853:4859   */\n  dup4\n    /* \"#utility.yul\":4846:4910   */\n  sstore\n    /* \"#utility.yul\":4768:4924   */\n  pop\n    /* \"#utility.yul\":4745:4924   */\ntag_116:\n    /* \"#utility.yul\":4970:4971   */\n  0x01\n    /* \"#utility.yul\":4966:4967   */\n  0x02\n    /* \"#utility.yul\":4958:4964   */\n  dup9\n    /* \"#utility.yul\":4954:4968   */\n  mul\n    /* \"#utility.yul\":4950:4972   */\n  add\n    /* \"#utility.yul\":4944:4948   */\n  dup9\n    /* \"#utility.yul\":4937:4973   */\n  sstore\n    /* \"#utility.yul\":4372:4983   */\n  pop\n  pop\n  pop\n    /* \"#utility.yul\":4335:5222   */\ntag_108:\n  pop\n    /* \"#utility.yul\":3925:5228   */\n  pop\n  pop\n  pop\n    /* \"#utility.yul\":3833:5228   */\n  pop\n  pop\n  jump\t// out\n    /* \"#utility.yul\":5234:5360   */\ntag_51:\n    /* \"#utility.yul\":5271:5278   */\n  0x00\n    /* \"#utility.yul\":5311:5353   */\n  0xffffffffffffffffffffffffffffffffffffffff\n    /* \"#utility.yul\":5304:5309   */\n  dup3\n    /* \"#utility.yul\":5300:5354   */\n  and\n    /* \"#utility.yul\":5289:5354   */\n  swap1\n  pop\n    /* \"#utility.yul\":5234:5360   */\n  swap2\n  swap1\n  pop\n  jump\t// out\n    /* \"#utility.yul\":5366:5462   */\ntag_52:\n    /* \"#utility.yul\":5403:5410   */\n  0x00\n    /* \"#utility.yul\":5432:5456   */\n  tag_120\n    /* \"#utility.yul\":5450:5455   */\n  dup3\n    /* \"#utility.yul\":5432:5456   */\n  tag_51\n  jump\t// in\ntag_120:\n    /* \"#utility.yul\":5421:5456   */\n  swap1\n  pop\n    /* \"#utility.yul\":5366:5462   */\n  swap2\n  swap1\n  pop\n  jump\t// out\n    /* \"#utility.yul\":5468:5586   */\ntag_53:\n    /* \"#utility.yul\":5555:5579   */\n  tag_122\n    /* \"#utility.yul\":5573:5578   */\n  dup2\n    /* \"#utility.yul\":5555:5579   */\n  tag_52\n  jump\t// in\ntag_122:\n    /* \"#utility.yul\":5550:5553   */\n  dup3\n    /* \"#utility.yul\":5543:5580   */\n  mstore\n    /* \"#utility.yul\":5468:5586   */\n  pop\n  pop\n  jump\t// out\n    /* \"#utility.yul\":5592:5814   */\ntag_16:\n    /* \"#utility.yul\":5685:5689   */\n  0x00\n    /* \"#utility.yul\":5723:5725   */\n  0x20\n    /* \"#utility.yul\":5712:5721   */\n  dup3\n    /* \"#utility.yul\":5708:5726   */\n  add\n    /* \"#utility.yul\":5700:5726   */\n  swap1\n  pop\n    /* \"#utility.yul\":5736:5807   */\n  tag_124\n    /* \"#utility.yul\":5804:5805   */\n  0x00\n    /* \"#utility.yul\":5793:5802   */\n  dup4\n    /* \"#utility.yul\":5789:5806   */\n  add\n    /* \"#utility.yul\":5780:5786   */\n  dup5\n    /* \"#utility.yul\":5736:5807   */\n  tag_53\n  jump\t// in\ntag_124:\n    /* \"#utility.yul\":5592:5814   */\n  swap3\n  swap2\n  pop\n  pop\n  jump\t// out\n    /* \"#utility.yul\":5820:6000   */\ntag_54:\n    /* \"#utility.yul\":5868:5945   */\n  0x4e487b7100000000000000000000000000000000000000000000000000000000\n    /* \"#utility.yul\":5865:5866   */\n  0x00\n    /* \"#utility.yul\":5858:5946   */\n  mstore\n    /* \"#utility.yul\":5965:5969   */\n  0x11\n    /* \"#utility.yul\":5962:5963   */\n  0x04\n    /* \"#utility.yul\":5955:5970   */\n  mstore\n    /* \"#utility.yul\":5989:5993   */\n  0x24\n    /* \"#utility.yul\":5986:5987   */\n  0x00\n    /* \"#utility.yul\":5979:5994   */\n  revert\n    /* \"#utility.yul\":6006:6197   */\ntag_22:\n    /* \"#utility.yul\":6046:6049   */\n  0x00\n    /* \"#utility.yul\":6065:6085   */\n  tag_127\n    /* \"#utility.yul\":6083:6084   */\n  dup3\n    /* \"#utility.yul\":6065:6085   */\n  tag_39\n  jump\t// in\ntag_127:\n    /* \"#utility.yul\":6060:6085   */\n  swap2\n  pop\n    /* \"#utility.yul\":6099:6119   */\n  tag_128\n    /* \"#utility.yul\":6117:6118   */\n  dup4\n    /* \"#utility.yul\":6099:6119   */\n  tag_39\n  jump\t// in\ntag_128:\n    /* \"#utility.yul\":6094:6119   */\n  swap3\n  pop\n    /* \"#utility.yul\":6142:6143   */\n  dup3\n    /* \"#utility.yul\":6139:6140   */\n  dup3\n    /* \"#utility.yul\":6135:6144   */\n  add\n    /* \"#utility.yul\":6128:6144   */\n  swap1\n  pop\n    /* \"#utility.yul\":6163:6166   */\n  dup1\n    /* \"#utility.yul\":6160:6161   */\n  dup3\n    /* \"#utility.yul\":6157:6167   */\n  gt\n    /* \"#utility.yul\":6154:6190   */\n  iszero\n  tag_129\n  jumpi\n    /* \"#utility.yul\":6170:6188   */\n  tag_130\n  tag_54\n  jump\t// in\ntag_130:\n    /* \"#utility.yul\":6154:6190   */\ntag_129:\n    /* \"#utility.yul\":6006:6197   */\n  swap3\n  swap2\n  pop\n  pop\n  jump\t// out\n    /* \"#utility.yul\":6203:6321   */\ntag_55:\n    /* \"#utility.yul\":6290:6314   */\n  tag_132\n    /* \"#utility.yul\":6308:6313   */\n  dup2\n    /* \"#utility.yul\":6290:6314   */\n  tag_39\n  jump\t// in\ntag_132:\n    /* \"#utility.yul\":6285:6288   */\n  dup3\n    /* \"#utility.yul\":6278:6315   */\n  mstore\n    /* \"#utility.yul\":6203:6321   */\n  pop\n  pop\n  jump\t// out\n    /* \"#utility.yul\":6327:6769   */\ntag_26:\n    /* \"#utility.yul\":6476:6480   */\n  0x00\n    /* \"#utility.yul\":6514:6516   */\n  0x60\n    /* \"#utility.yul\":6503:6512   */\n  dup3\n    /* \"#utility.yul\":6499:6517   */\n  add\n    /* \"#utility.yul\":6491:6517   */\n  swap1\n  pop\n    /* \"#utility.yul\":6527:6598   */\n  tag_134\n    /* \"#utility.yul\":6595:6596   */\n  0x00\n    /* \"#utility.yul\":6584:6593   */\n  dup4\n    /* \"#utility.yul\":6580:6597   */\n  add\n    /* \"#utility.yul\":6571:6577   */\n  dup7\n    /* \"#utility.yul\":6527:6598   */\n  tag_53\n  jump\t// in\ntag_134:\n    /* \"#utility.yul\":6608:6680   */\n  tag_135\n    /* \"#utility.yul\":6676:6678   */\n  0x20\n    /* \"#utility.yul\":6665:6674   */\n  dup4\n    /* \"#utility.yul\":6661:6679   */\n  add\n    /* \"#utility.yul\":6652:6658   */\n  dup6\n    /* \"#utility.yul\":6608:6680   */\n  tag_55\n  jump\t// in\ntag_135:\n    /* \"#utility.yul\":6690:6762   */\n  tag_136\n    /* \"#utility.yul\":6758:6760   */\n  0x40\n    /* \"#utility.yul\":6747:6756   */\n  dup4\n    /* \"#utility.yul\":6743:6761   */\n  add\n    /* \"#utility.yul\":6734:6740   */\n  dup5\n    /* \"#utility.yul\":6690:6762   */\n  tag_55\n  jump\t// in\ntag_136:\n    /* \"#utility.yul\":6327:6769   */\n  swap5\n  swap4\n  pop\n  pop\n  pop\n  pop\n  jump\t// out\n    /* \"#utility.yul\":6775:6997   */\ntag_30:\n    /* \"#utility.yul\":6868:6872   */\n  0x00\n    /* \"#utility.yul\":6906:6908   */\n  0x20\n    /* \"#utility.yul\":6895:6904   */\n  dup3\n    /* \"#utility.yul\":6891:6909   */\n  add\n    /* \"#utility.yul\":6883:6909   */\n  swap1\n  pop\n    /* \"#utility.yul\":6919:6990   */\n  tag_138\n    /* \"#utility.yul\":6987:6988   */\n  0x00\n    /* \"#utility.yul\":6976:6985   */\n  dup4\n    /* \"#utility.yul\":6972:6989   */\n  add\n    /* \"#utility.yul\":6963:6969   */\n  dup5\n    /* \"#utility.yul\":6919:6990   */\n  tag_55\n  jump\t// in\ntag_138:\n    /* \"#utility.yul\":6775:6997   */\n  swap3\n  swap2\n  pop\n  pop\n  jump\t// out\n    /* \"constracts/RockPaperScissors.sol\":308:3400  contract RockPaperScissors is ERC20 {... */\ntag_12:\n  dataSize(sub_0)\n  dup1\n  dataOffset(sub_0)\n  0x00\n  codecopy\n  0x00\n  return\nstop\n\nsub_0: assembly {\n        /* \"constracts/RockPaperScissors.sol\":308:3400  contract RockPaperScissors is ERC20 {... */\n      mstore(0x40, 0x80)\n      callvalue\n      dup1\n      iszero\n      tag_1\n      jumpi\n      0x00\n      dup1\n      revert\n    tag_1:\n      pop\n      jumpi(tag_2, lt(calldatasize, 0x04))\n      shr(0xe0, calldataload(0x00))\n      dup1\n      0x70a08231\n      gt\n      tag_18\n      jumpi\n      dup1\n      0xabd95b95\n      gt\n      tag_19\n      jumpi\n      dup1\n      0xabd95b95\n      eq\n      tag_14\n      jumpi\n      dup1\n      0xc4fb5707\n      eq\n      tag_15\n      jumpi\n      dup1\n      0xd30895e4\n      eq\n      tag_16\n      jumpi\n      dup1\n      0xdd62ed3e\n      eq\n      tag_17\n      jumpi\n      jump(tag_2)\n    tag_19:\n      dup1\n      0x70a08231\n      eq\n      tag_10\n      jumpi\n      dup1\n      0x95d89b41\n      eq\n      tag_11\n      jumpi\n      dup1\n      0xa2f3d16e\n      eq\n      tag_12\n      jumpi\n      dup1\n      0xa9059cbb\n      eq\n      tag_13\n      jumpi\n      jump(tag_2)\n    tag_18:\n      dup1\n      0x19e5bf3a\n      gt\n      tag_20\n      jumpi\n      dup1\n      0x19e5bf3a\n      eq\n      tag_6\n      jumpi\n      dup1\n      0x23b872dd\n      eq\n      tag_7\n      jumpi\n      dup1\n      0x313ce567\n      eq\n      tag_8\n      jumpi\n      dup1\n      0x59a5f12d\n      eq\n      tag_9\n      jumpi\n      jump(tag_2)\n    tag_20:\n      dup1\n      0x06fdde03\n      eq\n      tag_3\n      jumpi\n      dup1\n      0x095ea7b3\n      eq\n      tag_4\n      jumpi\n      dup1\n      0x18160ddd\n      eq\n      tag_5\n      jumpi\n    tag_2:\n      0x00\n      dup1\n      revert\n        /* \"@openzeppelin/contracts/token/ERC20/ERC20.sol\":2074:2163  function name() public view virtual returns (string memory) {... */\n    tag_3:\n      tag_21\n      tag_22\n      jump\t// in\n    tag_21:\n      mload(0x40)\n      tag_23\n      swap2\n      swap1\n      tag_24\n      jump\t// in\n    tag_23:\n      mload(0x40)\n      dup1\n      swap2\n      sub\n      swap1\n      return\n        /* \"@openzeppelin/contracts/token/ERC20/ERC20.sol\":4293:4479  function approve(address spender, uint256 value) public virtual returns (bool) {... */\n    tag_4:\n      tag_25\n      0x04\n      dup1\n      calldatasize\n      sub\n      dup2\n      add\n      swap1\n      tag_26\n      swap2\n      swap1\n      tag_27\n      jump\t// in\n    tag_26:\n      tag_28\n      jump\t// in\n    tag_25:\n      mload(0x40)\n      tag_29\n      swap2\n      swap1\n      tag_30\n      jump\t// in\n    tag_29:\n      mload(0x40)\n      dup1\n      swap2\n      sub\n      swap1\n      return\n        /* \"@openzeppelin/contracts/token/ERC20/ERC20.sol\":3144:3241  function totalSupply() public view virtual returns (uint256) {... */\n    tag_5:\n      tag_31\n      tag_32\n      jump\t// in\n    tag_31:\n      mload(0x40)\n      tag_33\n      swap2\n      swap1\n      tag_34\n      jump\t// in\n    tag_33:\n      mload(0x40)\n      dup1\n      swap2\n      sub\n      swap1\n      return\n        /* \"constracts/RockPaperScissors.sol\":2599:3216  function Register() public {... */\n    tag_6:\n      tag_35\n      tag_36\n      jump\t// in\n    tag_35:\n      stop\n        /* \"@openzeppelin/contracts/token/ERC20/ERC20.sol\":5039:5283  function transferFrom(address from, address to, uint256 value) public virtual returns (bool) {... */\n    tag_7:\n      tag_37\n      0x04\n      dup1\n      calldatasize\n      sub\n      dup2\n      add\n      swap1\n      tag_38\n      swap2\n      swap1\n      tag_39\n      jump\t// in\n    tag_38:\n      tag_40\n      jump\t// in\n    tag_37:\n      mload(0x40)\n      tag_41\n      swap2\n      swap1\n      tag_30\n      jump\t// in\n    tag_41:\n      mload(0x40)\n      dup1\n      swap2\n      sub\n      swap1\n      return\n        /* \"@openzeppelin/contracts/token/ERC20/ERC20.sol\":3002:3084  function decimals() public view virtual returns (uint8) {... */\n    tag_8:\n      tag_42\n      tag_43\n      jump\t// in\n    tag_42:\n      mload(0x40)\n      tag_44\n      swap2\n      swap1\n      tag_45\n      jump\t// in\n    tag_44:\n      mload(0x40)\n      dup1\n      swap2\n      sub\n      swap1\n      return\n        /* \"constracts/RockPaperScissors.sol\":409:431  address public player2 */\n    tag_9:\n      tag_46\n      tag_47\n      jump\t// in\n    tag_46:\n      mload(0x40)\n      tag_48\n      swap2\n      swap1\n      tag_49\n      jump\t// in\n    tag_48:\n      mload(0x40)\n      dup1\n      swap2\n      sub\n      swap1\n      return\n        /* \"@openzeppelin/contracts/token/ERC20/ERC20.sol\":3299:3415  function balanceOf(address account) public view virtual returns (uint256) {... */\n    tag_10:\n      tag_50\n      0x04\n      dup1\n      calldatasize\n      sub\n      dup2\n      add\n      swap1\n      tag_51\n      swap2\n      swap1\n      tag_52\n      jump\t// in\n    tag_51:\n      tag_53\n      jump\t// in\n    tag_50:\n      mload(0x40)\n      tag_54\n      swap2\n      swap1\n      tag_34\n      jump\t// in\n    tag_54:\n      mload(0x40)\n      dup1\n      swap2\n      sub\n      swap1\n      return\n        /* \"@openzeppelin/contracts/token/ERC20/ERC20.sol\":2276:2369  function symbol() public view virtual returns (string memory) {... */\n    tag_11:\n      tag_55\n      tag_56\n      jump\t// in\n    tag_55:\n      mload(0x40)\n      tag_57\n      swap2\n      swap1\n      tag_24\n      jump\t// in\n    tag_57:\n      mload(0x40)\n      dup1\n      swap2\n      sub\n      swap1\n      return\n        /* \"constracts/RockPaperScissors.sol\":1129:1894  function CheckWinner() public {... */\n    tag_12:\n      tag_58\n      tag_59\n      jump\t// in\n    tag_58:\n      stop\n        /* \"@openzeppelin/contracts/token/ERC20/ERC20.sol\":3610:3788  function transfer(address to, uint256 value) public virtual returns (bool) {... */\n    tag_13:\n      tag_60\n      0x04\n      dup1\n      calldatasize\n      sub\n      dup2\n      add\n      swap1\n      tag_61\n      swap2\n      swap1\n      tag_27\n      jump\t// in\n    tag_61:\n      tag_62\n      jump\t// in\n    tag_60:\n      mload(0x40)\n      tag_63\n      swap2\n      swap1\n      tag_30\n      jump\t// in\n    tag_63:\n      mload(0x40)\n      dup1\n      swap2\n      sub\n      swap1\n      return\n        /* \"constracts/RockPaperScissors.sol\":2498:2591  function GetStatus() public view returns (string memory) {... */\n    tag_14:\n      tag_64\n      tag_65\n      jump\t// in\n    tag_64:\n      mload(0x40)\n      tag_66\n      swap2\n      swap1\n      tag_24\n      jump\t// in\n    tag_66:\n      mload(0x40)\n      dup1\n      swap2\n      sub\n      swap1\n      return\n        /* \"constracts/RockPaperScissors.sol\":1902:2490  function SelectOption(uint opt) public  {... */\n    tag_15:\n      tag_67\n      0x04\n      dup1\n      calldatasize\n      sub\n      dup2\n      add\n      swap1\n      tag_68\n      swap2\n      swap1\n      tag_69\n      jump\t// in\n    tag_68:\n      tag_70\n      jump\t// in\n    tag_67:\n      stop\n        /* \"constracts/RockPaperScissors.sol\":351:373  address public player1 */\n    tag_16:\n      tag_71\n      tag_72\n      jump\t// in\n    tag_71:\n      mload(0x40)\n      tag_73\n      swap2\n      swap1\n      tag_49\n      jump\t// in\n    tag_73:\n      mload(0x40)\n      dup1\n      swap2\n      sub\n      swap1\n      return\n        /* \"@openzeppelin/contracts/token/ERC20/ERC20.sol\":3846:3986  function allowance(address owner, address spender) public view virtual returns (uint256) {... */\n    tag_17:\n      tag_74\n      0x04\n      dup1\n      calldatasize\n      sub\n      dup2\n      add\n      swap1\n      tag_75\n      swap2\n      swap1\n      tag_76\n      jump\t// in\n    tag_75:\n      tag_77\n      jump\t// in\n    tag_74:\n      mload(0x40)\n      tag_78\n      swap2\n      swap1\n      tag_34\n      jump\t// in\n    tag_78:\n      mload(0x40)\n      dup1\n      swap2\n      sub\n      swap1\n      return\n        /* \"@openzeppelin/contracts/token/ERC20/ERC20.sol\":2074:2163  function name() public view virtual returns (string memory) {... */\n    tag_22:\n        /* \"@openzeppelin/contracts/token/ERC20/ERC20.sol\":2119:2132  string memory */\n      0x60\n        /* \"@openzeppelin/contracts/token/ERC20/ERC20.sol\":2151:2156  _name */\n      0x03\n        /* \"@openzeppelin/contracts/token/ERC20/ERC20.sol\":2144:2156  return _name */\n      dup1\n      sload\n      tag_80\n      swap1\n      tag_81\n      jump\t// in\n    tag_80:\n      dup1\n      0x1f\n      add\n      0x20\n      dup1\n      swap2\n      div\n      mul\n      0x20\n      add\n      mload(0x40)\n      swap1\n      dup2\n      add\n      0x40\n      mstore\n      dup1\n      swap3\n      swap2\n      swap1\n      dup2\n      dup2\n      mstore\n      0x20\n      add\n      dup3\n      dup1\n      sload\n      tag_82\n      swap1\n      tag_81\n      jump\t// in\n    tag_82:\n      dup1\n      iszero\n      tag_83\n      jumpi\n      dup1\n      0x1f\n      lt\n      tag_84\n      jumpi\n      0x0100\n      dup1\n      dup4\n      sload\n      div\n      mul\n      dup4\n      mstore\n      swap2\n      0x20\n      add\n      swap2\n      jump(tag_83)\n    tag_84:\n      dup3\n      add\n      swap2\n      swap1\n      0x00\n      mstore\n      keccak256(0x00, 0x20)\n      swap1\n    tag_85:\n      dup2\n      sload\n      dup2\n      mstore\n      swap1\n      0x01\n      add\n      swap1\n      0x20\n      add\n      dup1\n      dup4\n      gt\n      tag_85\n      jumpi\n      dup3\n      swap1\n      sub\n      0x1f\n      and\n      dup3\n      add\n      swap2\n    tag_83:\n      pop\n      pop\n      pop\n      pop\n      pop\n      swap1\n      pop\n        /* \"@openzeppelin/contracts/token/ERC20/ERC20.sol\":2074:2163  function name() public view virtual returns (string memory) {... */\n      swap1\n      jump\t// out\n        /* \"@openzeppelin/contracts/token/ERC20/ERC20.sol\":4293:4479  function approve(address spender, uint256 value) public virtual returns (bool) {... */\n    tag_28:\n        /* \"@openzeppelin/contracts/token/ERC20/ERC20.sol\":4366:4370  bool */\n      0x00\n        /* \"@openzeppelin/contracts/token/ERC20/ERC20.sol\":4382:4395  address owner */\n      dup1\n        /* \"@openzeppelin/contracts/token/ERC20/ERC20.sol\":4398:4410  _msgSender() */\n      tag_87\n        /* \"@openzeppelin/contracts/token/ERC20/ERC20.sol\":4398:4408  _msgSender */\n      tag_88\n        /* \"@openzeppelin/contracts/token/ERC20/ERC20.sol\":4398:4410  _msgSender() */\n      jump\t// in\n    tag_87:\n        /* \"@openzeppelin/contracts/token/ERC20/ERC20.sol\":4382:4410  address owner = _msgSender() */\n      swap1\n      pop\n        /* \"@openzeppelin/contracts/token/ERC20/ERC20.sol\":4420:4451  _approve(owner, spender, value) */\n      tag_89\n        /* \"@openzeppelin/contracts/token/ERC20/ERC20.sol\":4429:4434  owner */\n      dup2\n        /* \"@openzeppelin/contracts/token/ERC20/ERC20.sol\":4436:4443  spender */\n      dup6\n        /* \"@openzeppelin/contracts/token/ERC20/ERC20.sol\":4445:4450  value */\n      dup6\n        /* \"@openzeppelin/contracts/token/ERC20/ERC20.sol\":4420:4428  _approve */\n      tag_90\n        /* \"@openzeppelin/contracts/token/ERC20/ERC20.sol\":4420:4451  _approve(owner, spender, value) */\n      jump\t// in\n    tag_89:\n        /* \"@openzeppelin/contracts/token/ERC20/ERC20.sol\":4468:4472  true */\n      0x01\n        /* \"@openzeppelin/contracts/token/ERC20/ERC20.sol\":4461:4472  return true */\n      swap2\n      pop\n      pop\n        /* \"@openzeppelin/contracts/token/ERC20/ERC20.sol\":4293:4479  function approve(address spender, uint256 value) public virtual returns (bool) {... */\n      swap3\n      swap2\n      pop\n      pop\n      jump\t// out\n        /* \"@openzeppelin/contracts/token/ERC20/ERC20.sol\":3144:3241  function totalSupply() public view virtual returns (uint256) {... */\n    tag_32:\n        /* \"@openzeppelin/contracts/token/ERC20/ERC20.sol\":3196:3203  uint256 */\n      0x00\n        /* \"@openzeppelin/contracts/token/ERC20/ERC20.sol\":3222:3234  _totalSupply */\n      sload(0x02)\n        /* \"@openzeppelin/contracts/token/ERC20/ERC20.sol\":3215:3234  return _totalSupply */\n      swap1\n      pop\n        /* \"@openzeppelin/contracts/token/ERC20/ERC20.sol\":3144:3241  function totalSupply() public view virtual returns (uint256) {... */\n      swap1\n      jump\t// out\n        /* \"constracts/RockPaperScissors.sol\":2599:3216  function Register() public {... */\n    tag_36:\n        /* \"constracts/RockPaperScissors.sol\":2664:2665  0 */\n      0x00\n        /* \"constracts/RockPaperScissors.sol\":2645:2666  player1 == address(0) */\n      0xffffffffffffffffffffffffffffffffffffffff\n      and\n        /* \"constracts/RockPaperScissors.sol\":2645:2652  player1 */\n      0x05\n      0x00\n      swap1\n      sload\n      swap1\n      0x0100\n      exp\n      swap1\n      div\n      0xffffffffffffffffffffffffffffffffffffffff\n      and\n        /* \"constracts/RockPaperScissors.sol\":2645:2666  player1 == address(0) */\n      0xffffffffffffffffffffffffffffffffffffffff\n      and\n      eq\n        /* \"constracts/RockPaperScissors.sol\":2645:2691  player1 == address(0) || player2 == address(0) */\n      dup1\n      tag_93\n      jumpi\n      pop\n        /* \"constracts/RockPaperScissors.sol\":2689:2690  0 */\n      0x00\n        /* \"constracts/RockPaperScissors.sol\":2670:2691  player2 == address(0) */\n      0xffffffffffffffffffffffffffffffffffffffff\n      and\n        /* \"constracts/RockPaperScissors.sol\":2670:2677  player2 */\n      0x06\n      0x00\n      swap1\n      sload\n      swap1\n      0x0100\n      exp\n      swap1\n      div\n      0xffffffffffffffffffffffffffffffffffffffff\n      and\n        /* \"constracts/RockPaperScissors.sol\":2670:2691  player2 == address(0) */\n      0xffffffffffffffffffffffffffffffffffffffff\n      and\n      eq\n        /* \"constracts/RockPaperScissors.sol\":2645:2691  player1 == address(0) || player2 == address(0) */\n    tag_93:\n        /* \"constracts/RockPaperScissors.sol\":2637:2714  require(player1 == address(0) || player2 == address(0), \"Game lobby is full\") */\n      tag_94\n      jumpi\n      mload(0x40)\n      0x08c379a000000000000000000000000000000000000000000000000000000000\n      dup2\n      mstore\n      0x04\n      add\n      tag_95\n      swap1\n      tag_96\n      jump\t// in\n    tag_95:\n      mload(0x40)\n      dup1\n      swap2\n      sub\n      swap1\n      revert\n    tag_94:\n        /* \"constracts/RockPaperScissors.sol\":2758:2761  bet */\n      sload(0x07)\n        /* \"constracts/RockPaperScissors.sol\":2733:2754  balanceOf(msg.sender) */\n      tag_97\n        /* \"constracts/RockPaperScissors.sol\":2743:2753  msg.sender */\n      caller\n        /* \"constracts/RockPaperScissors.sol\":2733:2742  balanceOf */\n      tag_53\n        /* \"constracts/RockPaperScissors.sol\":2733:2754  balanceOf(msg.sender) */\n      jump\t// in\n    tag_97:\n        /* \"constracts/RockPaperScissors.sol\":2733:2761  balanceOf(msg.sender) >= bet */\n      lt\n      iszero\n        /* \"constracts/RockPaperScissors.sol\":2725:2801  require(balanceOf(msg.sender) >= bet, \"You do not have enough money to bet\") */\n      tag_98\n      jumpi\n      mload(0x40)\n      0x08c379a000000000000000000000000000000000000000000000000000000000\n      dup2\n      mstore\n      0x04\n      add\n      tag_99\n      swap1\n      tag_100\n      jump\t// in\n    tag_99:\n      mload(0x40)\n      dup1\n      swap2\n      sub\n      swap1\n      revert\n    tag_98:\n        /* \"constracts/RockPaperScissors.sol\":2836:2837  0 */\n      0x00\n        /* \"constracts/RockPaperScissors.sol\":2817:2838  player1 == address(0) */\n      0xffffffffffffffffffffffffffffffffffffffff\n      and\n        /* \"constracts/RockPaperScissors.sol\":2817:2824  player1 */\n      0x05\n      0x00\n      swap1\n      sload\n      swap1\n      0x0100\n      exp\n      swap1\n      div\n      0xffffffffffffffffffffffffffffffffffffffff\n      and\n        /* \"constracts/RockPaperScissors.sol\":2817:2838  player1 == address(0) */\n      0xffffffffffffffffffffffffffffffffffffffff\n      and\n      sub\n        /* \"constracts/RockPaperScissors.sol\":2814:3062  if(player1 == address(0)) {... */\n      tag_101\n      jumpi\n        /* \"constracts/RockPaperScissors.sol\":2855:2888  gameStatus = \"Player1 registered\" */\n      mload(0x40)\n      dup1\n      0x40\n      add\n      0x40\n      mstore\n      dup1\n      0x12\n      dup2\n      mstore\n      0x20\n      add\n      0x506c617965723120726567697374657265640000000000000000000000000000\n      dup2\n      mstore\n      pop\n        /* \"constracts/RockPaperScissors.sol\":2855:2865  gameStatus */\n      0x08\n        /* \"constracts/RockPaperScissors.sol\":2855:2888  gameStatus = \"Player1 registered\" */\n      swap1\n      dup2\n      tag_102\n      swap2\n      swap1\n      tag_103\n      jump\t// in\n    tag_102:\n      pop\n        /* \"constracts/RockPaperScissors.sol\":2913:2923  msg.sender */\n      caller\n        /* \"constracts/RockPaperScissors.sol\":2903:2910  player1 */\n      0x05\n      0x00\n        /* \"constracts/RockPaperScissors.sol\":2903:2923  player1 = msg.sender */\n      0x0100\n      exp\n      dup2\n      sload\n      dup2\n      0xffffffffffffffffffffffffffffffffffffffff\n      mul\n      not\n      and\n      swap1\n      dup4\n      0xffffffffffffffffffffffffffffffffffffffff\n      and\n      mul\n      or\n      swap1\n      sstore\n      pop\n        /* \"constracts/RockPaperScissors.sol\":2814:3062  if(player1 == address(0)) {... */\n      jump(tag_104)\n    tag_101:\n        /* \"constracts/RockPaperScissors.sol\":2963:2964  0 */\n      0x00\n        /* \"constracts/RockPaperScissors.sol\":2944:2965  player2 == address(0) */\n      0xffffffffffffffffffffffffffffffffffffffff\n      and\n        /* \"constracts/RockPaperScissors.sol\":2944:2951  player2 */\n      0x06\n      0x00\n      swap1\n      sload\n      swap1\n      0x0100\n      exp\n      swap1\n      div\n      0xffffffffffffffffffffffffffffffffffffffff\n      and\n        /* \"constracts/RockPaperScissors.sol\":2944:2965  player2 == address(0) */\n      0xffffffffffffffffffffffffffffffffffffffff\n      and\n      sub\n        /* \"constracts/RockPaperScissors.sol\":2941:3062  if(player2 == address(0)) {... */\n      tag_105\n      jumpi\n        /* \"constracts/RockPaperScissors.sol\":2982:3015  gameStatus = \"Player2 registered\" */\n      mload(0x40)\n      dup1\n      0x40\n      add\n      0x40\n      mstore\n      dup1\n      0x12\n      dup2\n      mstore\n      0x20\n      add\n      0x506c617965723220726567697374657265640000000000000000000000000000\n      dup2\n      mstore\n      pop\n        /* \"constracts/RockPaperScissors.sol\":2982:2992  gameStatus */\n      0x08\n        /* \"constracts/RockPaperScissors.sol\":2982:3015  gameStatus = \"Player2 registered\" */\n      swap1\n      dup2\n      tag_106\n      swap2\n      swap1\n      tag_103\n      jump\t// in\n    tag_106:\n      pop\n        /* \"constracts/RockPaperScissors.sol\":3040:3050  msg.sender */\n      caller\n        /* \"constracts/RockPaperScissors.sol\":3030:3037  player2 */\n      0x06\n      0x00\n        /* \"constracts/RockPaperScissors.sol\":3030:3050  player2 = msg.sender */\n      0x0100\n      exp\n      dup2\n      sload\n      dup2\n      0xffffffffffffffffffffffffffffffffffffffff\n      mul\n      not\n      and\n      swap1\n      dup4\n      0xffffffffffffffffffffffffffffffffffffffff\n      and\n      mul\n      or\n      swap1\n      sstore\n      pop\n        /* \"constracts/RockPaperScissors.sol\":2941:3062  if(player2 == address(0)) {... */\n    tag_105:\n        /* \"constracts/RockPaperScissors.sol\":2814:3062  if(player1 == address(0)) {... */\n    tag_104:\n        /* \"constracts/RockPaperScissors.sol\":3096:3097  0 */\n      0x00\n        /* \"constracts/RockPaperScissors.sol\":3077:3098  player1 != address(0) */\n      0xffffffffffffffffffffffffffffffffffffffff\n      and\n        /* \"constracts/RockPaperScissors.sol\":3077:3084  player1 */\n      0x05\n      0x00\n      swap1\n      sload\n      swap1\n      0x0100\n      exp\n      swap1\n      div\n      0xffffffffffffffffffffffffffffffffffffffff\n      and\n        /* \"constracts/RockPaperScissors.sol\":3077:3098  player1 != address(0) */\n      0xffffffffffffffffffffffffffffffffffffffff\n      and\n      eq\n      iszero\n        /* \"constracts/RockPaperScissors.sol\":3077:3123  player1 != address(0) && player2 != address(0) */\n      dup1\n      iszero\n      tag_107\n      jumpi\n      pop\n        /* \"constracts/RockPaperScissors.sol\":3121:3122  0 */\n      0x00\n        /* \"constracts/RockPaperScissors.sol\":3102:3123  player2 != address(0) */\n      0xffffffffffffffffffffffffffffffffffffffff\n      and\n        /* \"constracts/RockPaperScissors.sol\":3102:3109  player2 */\n      0x06\n      0x00\n      swap1\n      sload\n      swap1\n      0x0100\n      exp\n      swap1\n      div\n      0xffffffffffffffffffffffffffffffffffffffff\n      and\n        /* \"constracts/RockPaperScissors.sol\":3102:3123  player2 != address(0) */\n      0xffffffffffffffffffffffffffffffffffffffff\n      and\n      eq\n      iszero\n        /* \"constracts/RockPaperScissors.sol\":3077:3123  player1 != address(0) && player2 != address(0) */\n    tag_107:\n        /* \"constracts/RockPaperScissors.sol\":3074:3209  if(player1 != address(0) && player2 != address(0)) {... */\n      iszero\n      tag_108\n      jumpi\n        /* \"constracts/RockPaperScissors.sol\":3140:3197  gameStatus = \"Game lobby is full. Awaiting players input\" */\n      mload(0x40)\n      dup1\n      0x60\n      add\n      0x40\n      mstore\n      dup1\n      0x2a\n      dup2\n      mstore\n      0x20\n      add\n      data_6e07bb7a9b518e193f630c0cc8bbfc9088763a136fccd7699b37b1dc65bab0fd\n      0x2a\n      swap2\n      codecopy\n        /* \"constracts/RockPaperScissors.sol\":3140:3150  gameStatus */\n      0x08\n        /* \"constracts/RockPaperScissors.sol\":3140:3197  gameStatus = \"Game lobby is full. Awaiting players input\" */\n      swap1\n      dup2\n      tag_109\n      swap2\n      swap1\n      tag_103\n      jump\t// in\n    tag_109:\n      pop\n        /* \"constracts/RockPaperScissors.sol\":3074:3209  if(player1 != address(0) && player2 != address(0)) {... */\n    tag_108:\n        /* \"constracts/RockPaperScissors.sol\":2599:3216  function Register() public {... */\n      jump\t// out\n        /* \"@openzeppelin/contracts/token/ERC20/ERC20.sol\":5039:5283  function transferFrom(address from, address to, uint256 value) public virtual returns (bool) {... */\n    tag_40:\n        /* \"@openzeppelin/contracts/token/ERC20/ERC20.sol\":5126:5130  bool */\n      0x00\n        /* \"@openzeppelin/contracts/token/ERC20/ERC20.sol\":5142:5157  address spender */\n      dup1\n        /* \"@openzeppelin/contracts/token/ERC20/ERC20.sol\":5160:5172  _msgSender() */\n      tag_111\n        /* \"@openzeppelin/contracts/token/ERC20/ERC20.sol\":5160:5170  _msgSender */\n      tag_88\n        /* \"@openzeppelin/contracts/token/ERC20/ERC20.sol\":5160:5172  _msgSender() */\n      jump\t// in\n    tag_111:\n        /* \"@openzeppelin/contracts/token/ERC20/ERC20.sol\":5142:5172  address spender = _msgSender() */\n      swap1\n      pop\n        /* \"@openzeppelin/contracts/token/ERC20/ERC20.sol\":5182:5219  _spendAllowance(from, spender, value) */\n      tag_112\n        /* \"@openzeppelin/contracts/token/ERC20/ERC20.sol\":5198:5202  from */\n      dup6\n        /* \"@openzeppelin/contracts/token/ERC20/ERC20.sol\":5204:5211  spender */\n      dup3\n        /* \"@openzeppelin/contracts/token/ERC20/ERC20.sol\":5213:5218  value */\n      dup6\n        /* \"@openzeppelin/contracts/token/ERC20/ERC20.sol\":5182:5197  _spendAllowance */\n      tag_113\n        /* \"@openzeppelin/contracts/token/ERC20/ERC20.sol\":5182:5219  _spendAllowance(from, spender, value) */\n      jump\t// in\n    tag_112:\n        /* \"@openzeppelin/contracts/token/ERC20/ERC20.sol\":5229:5255  _transfer(from, to, value) */\n      tag_114\n        /* \"@openzeppelin/contracts/token/ERC20/ERC20.sol\":5239:5243  from */\n      dup6\n        /* \"@openzeppelin/contracts/token/ERC20/ERC20.sol\":5245:5247  to */\n      dup6\n        /* \"@openzeppelin/contracts/token/ERC20/ERC20.sol\":5249:5254  value */\n      dup6\n        /* \"@openzeppelin/contracts/token/ERC20/ERC20.sol\":5229:5238  _transfer */\n      tag_115\n        /* \"@openzeppelin/contracts/token/ERC20/ERC20.sol\":5229:5255  _transfer(from, to, value) */\n      jump\t// in\n    tag_114:\n        /* \"@openzeppelin/contracts/token/ERC20/ERC20.sol\":5272:5276  true */\n      0x01\n        /* \"@openzeppelin/contracts/token/ERC20/ERC20.sol\":5265:5276  return true */\n      swap2\n      pop\n      pop\n        /* \"@openzeppelin/contracts/token/ERC20/ERC20.sol\":5039:5283  function transferFrom(address from, address to, uint256 value) public virtual returns (bool) {... */\n      swap4\n      swap3\n      pop\n      pop\n      pop\n      jump\t// out\n        /* \"@openzeppelin/contracts/token/ERC20/ERC20.sol\":3002:3084  function decimals() public view virtual returns (uint8) {... */\n    tag_43:\n        /* \"@openzeppelin/contracts/token/ERC20/ERC20.sol\":3051:3056  uint8 */\n      0x00\n        /* \"@openzeppelin/contracts/token/ERC20/ERC20.sol\":3075:3077  18 */\n      0x12\n        /* \"@openzeppelin/contracts/token/ERC20/ERC20.sol\":3068:3077  return 18 */\n      swap1\n      pop\n        /* \"@openzeppelin/contracts/token/ERC20/ERC20.sol\":3002:3084  function decimals() public view virtual returns (uint8) {... */\n      swap1\n      jump\t// out\n        /* \"constracts/RockPaperScissors.sol\":409:431  address public player2 */\n    tag_47:\n      0x06\n      0x00\n      swap1\n      sload\n      swap1\n      0x0100\n      exp\n      swap1\n      div\n      0xffffffffffffffffffffffffffffffffffffffff\n      and\n      dup2\n      jump\t// out\n        /* \"@openzeppelin/contracts/token/ERC20/ERC20.sol\":3299:3415  function balanceOf(address account) public view virtual returns (uint256) {... */\n    tag_53:\n        /* \"@openzeppelin/contracts/token/ERC20/ERC20.sol\":3364:3371  uint256 */\n      0x00\n        /* \"@openzeppelin/contracts/token/ERC20/ERC20.sol\":3390:3399  _balances */\n      dup1\n        /* \"@openzeppelin/contracts/token/ERC20/ERC20.sol\":3390:3408  _balances[account] */\n      0x00\n        /* \"@openzeppelin/contracts/token/ERC20/ERC20.sol\":3400:3407  account */\n      dup4\n        /* \"@openzeppelin/contracts/token/ERC20/ERC20.sol\":3390:3408  _balances[account] */\n      0xffffffffffffffffffffffffffffffffffffffff\n      and\n      0xffffffffffffffffffffffffffffffffffffffff\n      and\n      dup2\n      mstore\n      0x20\n      add\n      swap1\n      dup2\n      mstore\n      0x20\n      add\n      0x00\n      keccak256\n      sload\n        /* \"@openzeppelin/contracts/token/ERC20/ERC20.sol\":3383:3408  return _balances[account] */\n      swap1\n      pop\n        /* \"@openzeppelin/contracts/token/ERC20/ERC20.sol\":3299:3415  function balanceOf(address account) public view virtual returns (uint256) {... */\n      swap2\n      swap1\n      pop\n      jump\t// out\n        /* \"@openzeppelin/contracts/token/ERC20/ERC20.sol\":2276:2369  function symbol() public view virtual returns (string memory) {... */\n    tag_56:\n        /* \"@openzeppelin/contracts/token/ERC20/ERC20.sol\":2323:2336  string memory */\n      0x60\n        /* \"@openzeppelin/contracts/token/ERC20/ERC20.sol\":2355:2362  _symbol */\n      0x04\n        /* \"@openzeppelin/contracts/token/ERC20/ERC20.sol\":2348:2362  return _symbol */\n      dup1\n      sload\n      tag_119\n      swap1\n      tag_81\n      jump\t// in\n    tag_119:\n      dup1\n      0x1f\n      add\n      0x20\n      dup1\n      swap2\n      div\n      mul\n      0x20\n      add\n      mload(0x40)\n      swap1\n      dup2\n      add\n      0x40\n      mstore\n      dup1\n      swap3\n      swap2\n      swap1\n      dup2\n      dup2\n      mstore\n      0x20\n      add\n      dup3\n      dup1\n      sload\n      tag_120\n      swap1\n      tag_81\n      jump\t// in\n    tag_120:\n      dup1\n      iszero\n      tag_121\n      jumpi\n      dup1\n      0x1f\n      lt\n      tag_122\n      jumpi\n      0x0100\n      dup1\n      dup4\n      sload\n      div\n      mul\n      dup4\n      mstore\n      swap2\n      0x20\n      add\n      swap2\n      jump(tag_121)\n    tag_122:\n      dup3\n      add\n      swap2\n      swap1\n      0x00\n      mstore\n      keccak256(0x00, 0x20)\n      swap1\n    tag_123:\n      dup2\n      sload\n      dup2\n      mstore\n      swap1\n      0x01\n      add\n      swap1\n      0x20\n      add\n      dup1\n      dup4\n      gt\n      tag_123\n      jumpi\n      dup3\n      swap1\n      sub\n      0x1f\n      and\n      dup3\n      add\n      swap2\n    tag_121:\n      pop\n      pop\n      pop\n      pop\n      pop\n      swap1\n      pop\n        /* \"@openzeppelin/contracts/token/ERC20/ERC20.sol\":2276:2369  function symbol() public view virtual returns (string memory) {... */\n      swap1\n      jump\t// out\n        /* \"constracts/RockPaperScissors.sol\":1129:1894  function CheckWinner() public {... */\n    tag_59:\n        /* \"constracts/RockPaperScissors.sol\":1190:1201  Option.None */\n      0x00\n        /* \"constracts/RockPaperScissors.sol\":1173:1201  player1Option == Option.None */\n      0x03\n      dup2\n      gt\n      iszero\n      tag_125\n      jumpi\n      tag_126\n      tag_127\n      jump\t// in\n    tag_126:\n    tag_125:\n        /* \"constracts/RockPaperScissors.sol\":1173:1186  player1Option */\n      0x05\n      0x14\n      swap1\n      sload\n      swap1\n      0x0100\n      exp\n      swap1\n      div\n      0xff\n      and\n        /* \"constracts/RockPaperScissors.sol\":1173:1201  player1Option == Option.None */\n      0x03\n      dup2\n      gt\n      iszero\n      tag_128\n      jumpi\n      tag_129\n      tag_127\n      jump\t// in\n    tag_129:\n    tag_128:\n      eq\n        /* \"constracts/RockPaperScissors.sol\":1173:1233  player1Option == Option.None && player2Option == Option.None */\n      dup1\n      iszero\n      tag_130\n      jumpi\n      pop\n        /* \"constracts/RockPaperScissors.sol\":1222:1233  Option.None */\n      0x00\n        /* \"constracts/RockPaperScissors.sol\":1205:1233  player2Option == Option.None */\n      0x03\n      dup2\n      gt\n      iszero\n      tag_131\n      jumpi\n      tag_132\n      tag_127\n      jump\t// in\n    tag_132:\n    tag_131:\n        /* \"constracts/RockPaperScissors.sol\":1205:1218  player2Option */\n      0x06\n      0x14\n      swap1\n      sload\n      swap1\n      0x0100\n      exp\n      swap1\n      div\n      0xff\n      and\n        /* \"constracts/RockPaperScissors.sol\":1205:1233  player2Option == Option.None */\n      0x03\n      dup2\n      gt\n      iszero\n      tag_133\n      jumpi\n      tag_134\n      tag_127\n      jump\t// in\n    tag_134:\n    tag_133:\n      eq\n        /* \"constracts/RockPaperScissors.sol\":1173:1233  player1Option == Option.None && player2Option == Option.None */\n    tag_130:\n        /* \"constracts/RockPaperScissors.sol\":1170:1365  if(player1Option == Option.None && player2Option == Option.None) {... */\n      iszero\n      tag_135\n      jumpi\n        /* \"constracts/RockPaperScissors.sol\":1250:1332  gameStatus = \"Cannot check for winner. Both players haven't selected their inputs\" */\n      mload(0x40)\n      dup1\n      0x80\n      add\n      0x40\n      mstore\n      dup1\n      0x43\n      dup2\n      mstore\n      0x20\n      add\n      data_1554493d5c04afc23b5560181a0e1a5175b28cb56ca8e3a26a60c1ae44203dd1\n      0x43\n      swap2\n      codecopy\n        /* \"constracts/RockPaperScissors.sol\":1250:1260  gameStatus */\n      0x08\n        /* \"constracts/RockPaperScissors.sol\":1250:1332  gameStatus = \"Cannot check for winner. Both players haven't selected their inputs\" */\n      swap1\n      dup2\n      tag_136\n      swap2\n      swap1\n      tag_103\n      jump\t// in\n    tag_136:\n      pop\n        /* \"constracts/RockPaperScissors.sol\":1347:1354  return; */\n      jump(tag_124)\n        /* \"constracts/RockPaperScissors.sol\":1170:1365  if(player1Option == Option.None && player2Option == Option.None) {... */\n    tag_135:\n        /* \"constracts/RockPaperScissors.sol\":1397:1410  player2Option */\n      0x06\n      0x14\n      swap1\n      sload\n      swap1\n      0x0100\n      exp\n      swap1\n      div\n      0xff\n      and\n        /* \"constracts/RockPaperScissors.sol\":1380:1410  player1Option == player2Option */\n      0x03\n      dup2\n      gt\n      iszero\n      tag_137\n      jumpi\n      tag_138\n      tag_127\n      jump\t// in\n    tag_138:\n    tag_137:\n        /* \"constracts/RockPaperScissors.sol\":1380:1393  player1Option */\n      0x05\n      0x14\n      swap1\n      sload\n      swap1\n      0x0100\n      exp\n      swap1\n      div\n      0xff\n      and\n        /* \"constracts/RockPaperScissors.sol\":1380:1410  player1Option == player2Option */\n      0x03\n      dup2\n      gt\n      iszero\n      tag_139\n      jumpi\n      tag_140\n      tag_127\n      jump\t// in\n    tag_140:\n    tag_139:\n      sub\n        /* \"constracts/RockPaperScissors.sol\":1377:1483  if(player1Option == player2Option) {... */\n      tag_141\n      jumpi\n        /* \"constracts/RockPaperScissors.sol\":1427:1471  gameStatus = \"Draw. Waiting for new players\" */\n      mload(0x40)\n      dup1\n      0x40\n      add\n      0x40\n      mstore\n      dup1\n      0x1d\n      dup2\n      mstore\n      0x20\n      add\n      0x447261772e2057616974696e6720666f72206e657720706c6179657273000000\n      dup2\n      mstore\n      pop\n        /* \"constracts/RockPaperScissors.sol\":1427:1437  gameStatus */\n      0x08\n        /* \"constracts/RockPaperScissors.sol\":1427:1471  gameStatus = \"Draw. Waiting for new players\" */\n      swap1\n      dup2\n      tag_142\n      swap2\n      swap1\n      tag_103\n      jump\t// in\n    tag_142:\n      pop\n        /* \"constracts/RockPaperScissors.sol\":1377:1483  if(player1Option == player2Option) {... */\n    tag_141:\n        /* \"constracts/RockPaperScissors.sol\":1496:1535  PlayerWin(player1Option, player2Option) */\n      tag_143\n        /* \"constracts/RockPaperScissors.sol\":1506:1519  player1Option */\n      0x05\n      0x14\n      swap1\n      sload\n      swap1\n      0x0100\n      exp\n      swap1\n      div\n      0xff\n      and\n        /* \"constracts/RockPaperScissors.sol\":1521:1534  player2Option */\n      0x06\n      0x14\n      swap1\n      sload\n      swap1\n      0x0100\n      exp\n      swap1\n      div\n      0xff\n      and\n        /* \"constracts/RockPaperScissors.sol\":1496:1505  PlayerWin */\n      tag_144\n        /* \"constracts/RockPaperScissors.sol\":1496:1535  PlayerWin(player1Option, player2Option) */\n      jump\t// in\n    tag_143:\n        /* \"constracts/RockPaperScissors.sol\":1493:1678  if(PlayerWin(player1Option, player2Option)) {... */\n      iszero\n      tag_145\n      jumpi\n        /* \"constracts/RockPaperScissors.sol\":1575:1582  player1 */\n      0x05\n      0x00\n      swap1\n      sload\n      swap1\n      0x0100\n      exp\n      swap1\n      div\n      0xffffffffffffffffffffffffffffffffffffffff\n      and\n        /* \"constracts/RockPaperScissors.sol\":1557:1588  Transfer(player2, player1, bet) */\n      0xffffffffffffffffffffffffffffffffffffffff\n      and\n        /* \"constracts/RockPaperScissors.sol\":1566:1573  player2 */\n      0x06\n      0x00\n      swap1\n      sload\n      swap1\n      0x0100\n      exp\n      swap1\n      div\n      0xffffffffffffffffffffffffffffffffffffffff\n      and\n        /* \"constracts/RockPaperScissors.sol\":1557:1588  Transfer(player2, player1, bet) */\n      0xffffffffffffffffffffffffffffffffffffffff\n      and\n      0xddf252ad1be2c89b69c2b068fc378daa952ba7f163c4a11628f55a4df523b3ef\n        /* \"constracts/RockPaperScissors.sol\":1584:1587  bet */\n      sload(0x07)\n        /* \"constracts/RockPaperScissors.sol\":1557:1588  Transfer(player2, player1, bet) */\n      mload(0x40)\n      tag_146\n      swap2\n      swap1\n      tag_34\n      jump\t// in\n    tag_146:\n      mload(0x40)\n      dup1\n      swap2\n      sub\n      swap1\n      log3\n        /* \"constracts/RockPaperScissors.sol\":1605:1666  gameStatus = \"Last game player1 won. Waiting for new players\" */\n      mload(0x40)\n      dup1\n      0x60\n      add\n      0x40\n      mstore\n      dup1\n      0x2e\n      dup2\n      mstore\n      0x20\n      add\n      data_514e7c6e98a4bf63d2a0a3dd887e97f9946dbfcda401525d76fa1f8e4098977d\n      0x2e\n      swap2\n      codecopy\n        /* \"constracts/RockPaperScissors.sol\":1605:1615  gameStatus */\n      0x08\n        /* \"constracts/RockPaperScissors.sol\":1605:1666  gameStatus = \"Last game player1 won. Waiting for new players\" */\n      swap1\n      dup2\n      tag_147\n      swap2\n      swap1\n      tag_103\n      jump\t// in\n    tag_147:\n      pop\n        /* \"constracts/RockPaperScissors.sol\":1493:1678  if(PlayerWin(player1Option, player2Option)) {... */\n    tag_145:\n        /* \"constracts/RockPaperScissors.sol\":1691:1730  PlayerWin(player2Option, player1Option) */\n      tag_148\n        /* \"constracts/RockPaperScissors.sol\":1701:1714  player2Option */\n      0x06\n      0x14\n      swap1\n      sload\n      swap1\n      0x0100\n      exp\n      swap1\n      div\n      0xff\n      and\n        /* \"constracts/RockPaperScissors.sol\":1716:1729  player1Option */\n      0x05\n      0x14\n      swap1\n      sload\n      swap1\n      0x0100\n      exp\n      swap1\n      div\n      0xff\n      and\n        /* \"constracts/RockPaperScissors.sol\":1691:1700  PlayerWin */\n      tag_144\n        /* \"constracts/RockPaperScissors.sol\":1691:1730  PlayerWin(player2Option, player1Option) */\n      jump\t// in\n    tag_148:\n        /* \"constracts/RockPaperScissors.sol\":1688:1867  if(PlayerWin(player2Option, player1Option)) {... */\n      iszero\n      tag_149\n      jumpi\n        /* \"constracts/RockPaperScissors.sol\":1747:1779  _transfer(player1, player2, bet) */\n      tag_150\n        /* \"constracts/RockPaperScissors.sol\":1757:1764  player1 */\n      0x05\n      0x00\n      swap1\n      sload\n      swap1\n      0x0100\n      exp\n      swap1\n      div\n      0xffffffffffffffffffffffffffffffffffffffff\n      and\n        /* \"constracts/RockPaperScissors.sol\":1766:1773  player2 */\n      0x06\n      0x00\n      swap1\n      sload\n      swap1\n      0x0100\n      exp\n      swap1\n      div\n      0xffffffffffffffffffffffffffffffffffffffff\n      and\n        /* \"constracts/RockPaperScissors.sol\":1775:1778  bet */\n      sload(0x07)\n        /* \"constracts/RockPaperScissors.sol\":1747:1756  _transfer */\n      tag_115\n        /* \"constracts/RockPaperScissors.sol\":1747:1779  _transfer(player1, player2, bet) */\n      jump\t// in\n    tag_150:\n        /* \"constracts/RockPaperScissors.sol\":1794:1855  gameStatus = \"Last game player2 won. Waiting for new players\" */\n      mload(0x40)\n      dup1\n      0x60\n      add\n      0x40\n      mstore\n      dup1\n      0x2e\n      dup2\n      mstore\n      0x20\n      add\n      data_fc8f230bd8294a514de7dfd7e28a78c7534bca2e8671c6953ef4923eb044c839\n      0x2e\n      swap2\n      codecopy\n        /* \"constracts/RockPaperScissors.sol\":1794:1804  gameStatus */\n      0x08\n        /* \"constracts/RockPaperScissors.sol\":1794:1855  gameStatus = \"Last game player2 won. Waiting for new players\" */\n      swap1\n      dup2\n      tag_151\n      swap2\n      swap1\n      tag_103\n      jump\t// in\n    tag_151:\n      pop\n        /* \"constracts/RockPaperScissors.sol\":1688:1867  if(PlayerWin(player2Option, player1Option)) {... */\n    tag_149:\n        /* \"constracts/RockPaperScissors.sol\":1877:1886  Restart() */\n      tag_152\n        /* \"constracts/RockPaperScissors.sol\":1877:1884  Restart */\n      tag_153\n        /* \"constracts/RockPaperScissors.sol\":1877:1886  Restart() */\n      jump\t// in\n    tag_152:\n        /* \"constracts/RockPaperScissors.sol\":1129:1894  function CheckWinner() public {... */\n    tag_124:\n      jump\t// out\n        /* \"@openzeppelin/contracts/token/ERC20/ERC20.sol\":3610:3788  function transfer(address to, uint256 value) public virtual returns (bool) {... */\n    tag_62:\n        /* \"@openzeppelin/contracts/token/ERC20/ERC20.sol\":3679:3683  bool */\n      0x00\n        /* \"@openzeppelin/contracts/token/ERC20/ERC20.sol\":3695:3708  address owner */\n      dup1\n        /* \"@openzeppelin/contracts/token/ERC20/ERC20.sol\":3711:3723  _msgSender() */\n      tag_155\n        /* \"@openzeppelin/contracts/token/ERC20/ERC20.sol\":3711:3721  _msgSender */\n      tag_88\n        /* \"@openzeppelin/contracts/token/ERC20/ERC20.sol\":3711:3723  _msgSender() */\n      jump\t// in\n    tag_155:\n        /* \"@openzeppelin/contracts/token/ERC20/ERC20.sol\":3695:3723  address owner = _msgSender() */\n      swap1\n      pop\n        /* \"@openzeppelin/contracts/token/ERC20/ERC20.sol\":3733:3760  _transfer(owner, to, value) */\n      tag_156\n        /* \"@openzeppelin/contracts/token/ERC20/ERC20.sol\":3743:3748  owner */\n      dup2\n        /* \"@openzeppelin/contracts/token/ERC20/ERC20.sol\":3750:3752  to */\n      dup6\n        /* \"@openzeppelin/contracts/token/ERC20/ERC20.sol\":3754:3759  value */\n      dup6\n        /* \"@openzeppelin/contracts/token/ERC20/ERC20.sol\":3733:3742  _transfer */\n      tag_115\n        /* \"@openzeppelin/contracts/token/ERC20/ERC20.sol\":3733:3760  _transfer(owner, to, value) */\n      jump\t// in\n    tag_156:\n        /* \"@openzeppelin/contracts/token/ERC20/ERC20.sol\":3777:3781  true */\n      0x01\n        /* \"@openzeppelin/contracts/token/ERC20/ERC20.sol\":3770:3781  return true */\n      swap2\n      pop\n      pop\n        /* \"@openzeppelin/contracts/token/ERC20/ERC20.sol\":3610:3788  function transfer(address to, uint256 value) public virtual returns (bool) {... */\n      swap3\n      swap2\n      pop\n      pop\n      jump\t// out\n        /* \"constracts/RockPaperScissors.sol\":2498:2591  function GetStatus() public view returns (string memory) {... */\n    tag_65:\n        /* \"constracts/RockPaperScissors.sol\":2540:2553  string memory */\n      0x60\n        /* \"constracts/RockPaperScissors.sol\":2573:2583  gameStatus */\n      0x08\n        /* \"constracts/RockPaperScissors.sol\":2566:2583  return gameStatus */\n      dup1\n      sload\n      tag_158\n      swap1\n      tag_81\n      jump\t// in\n    tag_158:\n      dup1\n      0x1f\n      add\n      0x20\n      dup1\n      swap2\n      div\n      mul\n      0x20\n      add\n      mload(0x40)\n      swap1\n      dup2\n      add\n      0x40\n      mstore\n      dup1\n      swap3\n      swap2\n      swap1\n      dup2\n      dup2\n      mstore\n      0x20\n      add\n      dup3\n      dup1\n      sload\n      tag_159\n      swap1\n      tag_81\n      jump\t// in\n    tag_159:\n      dup1\n      iszero\n      tag_160\n      jumpi\n      dup1\n      0x1f\n      lt\n      tag_161\n      jumpi\n      0x0100\n      dup1\n      dup4\n      sload\n      div\n      mul\n      dup4\n      mstore\n      swap2\n      0x20\n      add\n      swap2\n      jump(tag_160)\n    tag_161:\n      dup3\n      add\n      swap2\n      swap1\n      0x00\n      mstore\n      keccak256(0x00, 0x20)\n      swap1\n    tag_162:\n      dup2\n      sload\n      dup2\n      mstore\n      swap1\n      0x01\n      add\n      swap1\n      0x20\n      add\n      dup1\n      dup4\n      gt\n      tag_162\n      jumpi\n      dup3\n      swap1\n      sub\n      0x1f\n      and\n      dup3\n      add\n      swap2\n    tag_160:\n      pop\n      pop\n      pop\n      pop\n      pop\n      swap1\n      pop\n        /* \"constracts/RockPaperScissors.sol\":2498:2591  function GetStatus() public view returns (string memory) {... */\n      swap1\n      jump\t// out\n        /* \"constracts/RockPaperScissors.sol\":1902:2490  function SelectOption(uint opt) public  {... */\n    tag_70:\n        /* \"constracts/RockPaperScissors.sol\":1975:1982  player1 */\n      0x05\n      0x00\n      swap1\n      sload\n      swap1\n      0x0100\n      exp\n      swap1\n      div\n      0xffffffffffffffffffffffffffffffffffffffff\n      and\n        /* \"constracts/RockPaperScissors.sol\":1961:1982  msg.sender == player1 */\n      0xffffffffffffffffffffffffffffffffffffffff\n      and\n        /* \"constracts/RockPaperScissors.sol\":1961:1971  msg.sender */\n      caller\n        /* \"constracts/RockPaperScissors.sol\":1961:1982  msg.sender == player1 */\n      0xffffffffffffffffffffffffffffffffffffffff\n      and\n      eq\n        /* \"constracts/RockPaperScissors.sol\":1961:2007  msg.sender == player1 || msg.sender == player2 */\n      dup1\n      tag_164\n      jumpi\n      pop\n        /* \"constracts/RockPaperScissors.sol\":2000:2007  player2 */\n      0x06\n      0x00\n      swap1\n      sload\n      swap1\n      0x0100\n      exp\n      swap1\n      div\n      0xffffffffffffffffffffffffffffffffffffffff\n      and\n        /* \"constracts/RockPaperScissors.sol\":1986:2007  msg.sender == player2 */\n      0xffffffffffffffffffffffffffffffffffffffff\n      and\n        /* \"constracts/RockPaperScissors.sol\":1986:1996  msg.sender */\n      caller\n        /* \"constracts/RockPaperScissors.sol\":1986:2007  msg.sender == player2 */\n      0xffffffffffffffffffffffffffffffffffffffff\n      and\n      eq\n        /* \"constracts/RockPaperScissors.sol\":1961:2007  msg.sender == player1 || msg.sender == player2 */\n    tag_164:\n        /* \"constracts/RockPaperScissors.sol\":1953:2032  require(msg.sender == player1 || msg.sender == player2, \"Not an active player\") */\n      tag_165\n      jumpi\n      mload(0x40)\n      0x08c379a000000000000000000000000000000000000000000000000000000000\n      dup2\n      mstore\n      0x04\n      add\n      tag_166\n      swap1\n      tag_167\n      jump\t// in\n    tag_166:\n      mload(0x40)\n      dup1\n      swap2\n      sub\n      swap1\n      revert\n    tag_165:\n        /* \"constracts/RockPaperScissors.sol\":2062:2069  player1 */\n      0x05\n      0x00\n      swap1\n      sload\n      swap1\n      0x0100\n      exp\n      swap1\n      div\n      0xffffffffffffffffffffffffffffffffffffffff\n      and\n        /* \"constracts/RockPaperScissors.sol\":2048:2069  msg.sender == player1 */\n      0xffffffffffffffffffffffffffffffffffffffff\n      and\n        /* \"constracts/RockPaperScissors.sol\":2048:2058  msg.sender */\n      caller\n        /* \"constracts/RockPaperScissors.sol\":2048:2069  msg.sender == player1 */\n      0xffffffffffffffffffffffffffffffffffffffff\n      and\n      sub\n        /* \"constracts/RockPaperScissors.sol\":2045:2177  if(msg.sender == player1) {... */\n      tag_168\n      jumpi\n        /* \"constracts/RockPaperScissors.sol\":2086:2123  gameStatus = \"Player1 selected input\" */\n      mload(0x40)\n      dup1\n      0x40\n      add\n      0x40\n      mstore\n      dup1\n      0x16\n      dup2\n      mstore\n      0x20\n      add\n      0x506c61796572312073656c656374656420696e70757400000000000000000000\n      dup2\n      mstore\n      pop\n        /* \"constracts/RockPaperScissors.sol\":2086:2096  gameStatus */\n      0x08\n        /* \"constracts/RockPaperScissors.sol\":2086:2123  gameStatus = \"Player1 selected input\" */\n      swap1\n      dup2\n      tag_169\n      swap2\n      swap1\n      tag_103\n      jump\t// in\n    tag_169:\n      pop\n        /* \"constracts/RockPaperScissors.sol\":2161:2164  opt */\n      dup1\n        /* \"constracts/RockPaperScissors.sol\":2154:2165  Option(opt) */\n      0x03\n      dup2\n      gt\n      iszero\n      tag_170\n      jumpi\n      tag_171\n      tag_127\n      jump\t// in\n    tag_171:\n    tag_170:\n        /* \"constracts/RockPaperScissors.sol\":2138:2151  player1Option */\n      0x05\n      0x14\n        /* \"constracts/RockPaperScissors.sol\":2138:2165  player1Option = Option(opt) */\n      0x0100\n      exp\n      dup2\n      sload\n      dup2\n      0xff\n      mul\n      not\n      and\n      swap1\n      dup4\n      0x03\n      dup2\n      gt\n      iszero\n      tag_172\n      jumpi\n      tag_173\n      tag_127\n      jump\t// in\n    tag_173:\n    tag_172:\n      mul\n      or\n      swap1\n      sstore\n      pop\n        /* \"constracts/RockPaperScissors.sol\":2045:2177  if(msg.sender == player1) {... */\n    tag_168:\n        /* \"constracts/RockPaperScissors.sol\":2204:2211  player2 */\n      0x06\n      0x00\n      swap1\n      sload\n      swap1\n      0x0100\n      exp\n      swap1\n      div\n      0xffffffffffffffffffffffffffffffffffffffff\n      and\n        /* \"constracts/RockPaperScissors.sol\":2190:2211  msg.sender == player2 */\n      0xffffffffffffffffffffffffffffffffffffffff\n      and\n        /* \"constracts/RockPaperScissors.sol\":2190:2200  msg.sender */\n      caller\n        /* \"constracts/RockPaperScissors.sol\":2190:2211  msg.sender == player2 */\n      0xffffffffffffffffffffffffffffffffffffffff\n      and\n      sub\n        /* \"constracts/RockPaperScissors.sol\":2187:2319  if(msg.sender == player2) {... */\n      tag_174\n      jumpi\n        /* \"constracts/RockPaperScissors.sol\":2228:2265  gameStatus = \"Player2 selected input\" */\n      mload(0x40)\n      dup1\n      0x40\n      add\n      0x40\n      mstore\n      dup1\n      0x16\n      dup2\n      mstore\n      0x20\n      add\n      0x506c61796572322073656c656374656420696e70757400000000000000000000\n      dup2\n      mstore\n      pop\n        /* \"constracts/RockPaperScissors.sol\":2228:2238  gameStatus */\n      0x08\n        /* \"constracts/RockPaperScissors.sol\":2228:2265  gameStatus = \"Player2 selected input\" */\n      swap1\n      dup2\n      tag_175\n      swap2\n      swap1\n      tag_103\n      jump\t// in\n    tag_175:\n      pop\n        /* \"constracts/RockPaperScissors.sol\":2303:2306  opt */\n      dup1\n        /* \"constracts/RockPaperScissors.sol\":2296:2307  Option(opt) */\n      0x03\n      dup2\n      gt\n      iszero\n      tag_176\n      jumpi\n      tag_177\n      tag_127\n      jump\t// in\n    tag_177:\n    tag_176:\n        /* \"constracts/RockPaperScissors.sol\":2280:2293  player2Option */\n      0x06\n      0x14\n        /* \"constracts/RockPaperScissors.sol\":2280:2307  player2Option = Option(opt) */\n      0x0100\n      exp\n      dup2\n      sload\n      dup2\n      0xff\n      mul\n      not\n      and\n      swap1\n      dup4\n      0x03\n      dup2\n      gt\n      iszero\n      tag_178\n      jumpi\n      tag_179\n      tag_127\n      jump\t// in\n    tag_179:\n    tag_178:\n      mul\n      or\n      swap1\n      sstore\n      pop\n        /* \"constracts/RockPaperScissors.sol\":2187:2319  if(msg.sender == player2) {... */\n    tag_174:\n        /* \"constracts/RockPaperScissors.sol\":2351:2362  Option.None */\n      0x00\n        /* \"constracts/RockPaperScissors.sol\":2334:2362  player1Option != Option.None */\n      0x03\n      dup2\n      gt\n      iszero\n      tag_180\n      jumpi\n      tag_181\n      tag_127\n      jump\t// in\n    tag_181:\n    tag_180:\n        /* \"constracts/RockPaperScissors.sol\":2334:2347  player1Option */\n      0x05\n      0x14\n      swap1\n      sload\n      swap1\n      0x0100\n      exp\n      swap1\n      div\n      0xff\n      and\n        /* \"constracts/RockPaperScissors.sol\":2334:2362  player1Option != Option.None */\n      0x03\n      dup2\n      gt\n      iszero\n      tag_182\n      jumpi\n      tag_183\n      tag_127\n      jump\t// in\n    tag_183:\n    tag_182:\n      eq\n      iszero\n        /* \"constracts/RockPaperScissors.sol\":2334:2394  player1Option != Option.None && player2Option != Option.None */\n      dup1\n      iszero\n      tag_184\n      jumpi\n      pop\n        /* \"constracts/RockPaperScissors.sol\":2383:2394  Option.None */\n      0x00\n        /* \"constracts/RockPaperScissors.sol\":2366:2394  player2Option != Option.None */\n      0x03\n      dup2\n      gt\n      iszero\n      tag_185\n      jumpi\n      tag_186\n      tag_127\n      jump\t// in\n    tag_186:\n    tag_185:\n        /* \"constracts/RockPaperScissors.sol\":2366:2379  player2Option */\n      0x06\n      0x14\n      swap1\n      sload\n      swap1\n      0x0100\n      exp\n      swap1\n      div\n      0xff\n      and\n        /* \"constracts/RockPaperScissors.sol\":2366:2394  player2Option != Option.None */\n      0x03\n      dup2\n      gt\n      iszero\n      tag_187\n      jumpi\n      tag_188\n      tag_127\n      jump\t// in\n    tag_188:\n    tag_187:\n      eq\n      iszero\n        /* \"constracts/RockPaperScissors.sol\":2334:2394  player1Option != Option.None && player2Option != Option.None */\n    tag_184:\n        /* \"constracts/RockPaperScissors.sol\":2331:2483  if(player1Option != Option.None && player2Option != Option.None) {... */\n      iszero\n      tag_189\n      jumpi\n        /* \"constracts/RockPaperScissors.sol\":2411:2471  gameStatus = \"Both players selected input. Check for winner\" */\n      mload(0x40)\n      dup1\n      0x60\n      add\n      0x40\n      mstore\n      dup1\n      0x2d\n      dup2\n      mstore\n      0x20\n      add\n      data_e12729e553c254a85cb89ae6c53efc602a02e57f302add82bcfca29afc08d0c0\n      0x2d\n      swap2\n      codecopy\n        /* \"constracts/RockPaperScissors.sol\":2411:2421  gameStatus */\n      0x08\n        /* \"constracts/RockPaperScissors.sol\":2411:2471  gameStatus = \"Both players selected input. Check for winner\" */\n      swap1\n      dup2\n      tag_190\n      swap2\n      swap1\n      tag_103\n      jump\t// in\n    tag_190:\n      pop\n        /* \"constracts/RockPaperScissors.sol\":2331:2483  if(player1Option != Option.None && player2Option != Option.None) {... */\n    tag_189:\n        /* \"constracts/RockPaperScissors.sol\":1902:2490  function SelectOption(uint opt) public  {... */\n      pop\n      jump\t// out\n        /* \"constracts/RockPaperScissors.sol\":351:373  address public player1 */\n    tag_72:\n      0x05\n      0x00\n      swap1\n      sload\n      swap1\n      0x0100\n      exp\n      swap1\n      div\n      0xffffffffffffffffffffffffffffffffffffffff\n      and\n      dup2\n      jump\t// out\n        /* \"@openzeppelin/contracts/token/ERC20/ERC20.sol\":3846:3986  function allowance(address owner, address spender) public view virtual returns (uint256) {... */\n    tag_77:\n        /* \"@openzeppelin/contracts/token/ERC20/ERC20.sol\":3926:3933  uint256 */\n      0x00\n        /* \"@openzeppelin/contracts/token/ERC20/ERC20.sol\":3952:3963  _allowances */\n      0x01\n        /* \"@openzeppelin/contracts/token/ERC20/ERC20.sol\":3952:3970  _allowances[owner] */\n      0x00\n        /* \"@openzeppelin/contracts/token/ERC20/ERC20.sol\":3964:3969  owner */\n      dup5\n        /* \"@openzeppelin/contracts/token/ERC20/ERC20.sol\":3952:3970  _allowances[owner] */\n      0xffffffffffffffffffffffffffffffffffffffff\n      and\n      0xffffffffffffffffffffffffffffffffffffffff\n      and\n      dup2\n      mstore\n      0x20\n      add\n      swap1\n      dup2\n      mstore\n      0x20\n      add\n      0x00\n      keccak256\n        /* \"@openzeppelin/contracts/token/ERC20/ERC20.sol\":3952:3979  _allowances[owner][spender] */\n      0x00\n        /* \"@openzeppelin/contracts/token/ERC20/ERC20.sol\":3971:3978  spender */\n      dup4\n        /* \"@openzeppelin/contracts/token/ERC20/ERC20.sol\":3952:3979  _allowances[owner][spender] */\n      0xffffffffffffffffffffffffffffffffffffffff\n      and\n      0xffffffffffffffffffffffffffffffffffffffff\n      and\n      dup2\n      mstore\n      0x20\n      add\n      swap1\n      dup2\n      mstore\n      0x20\n      add\n      0x00\n      keccak256\n      sload\n        /* \"@openzeppelin/contracts/token/ERC20/ERC20.sol\":3945:3979  return _allowances[owner][spender] */\n      swap1\n      pop\n        /* \"@openzeppelin/contracts/token/ERC20/ERC20.sol\":3846:3986  function allowance(address owner, address spender) public view virtual returns (uint256) {... */\n      swap3\n      swap2\n      pop\n      pop\n      jump\t// out\n        /* \"@openzeppelin/contracts/utils/Context.sol\":656:752  function _msgSender() internal view virtual returns (address) {... */\n    tag_88:\n        /* \"@openzeppelin/contracts/utils/Context.sol\":709:716  address */\n      0x00\n        /* \"@openzeppelin/contracts/utils/Context.sol\":735:745  msg.sender */\n      caller\n        /* \"@openzeppelin/contracts/utils/Context.sol\":728:745  return msg.sender */\n      swap1\n      pop\n        /* \"@openzeppelin/contracts/utils/Context.sol\":656:752  function _msgSender() internal view virtual returns (address) {... */\n      swap1\n      jump\t// out\n        /* \"@openzeppelin/contracts/token/ERC20/ERC20.sol\":8989:9117  function _approve(address owner, address spender, uint256 value) internal {... */\n    tag_90:\n        /* \"@openzeppelin/contracts/token/ERC20/ERC20.sol\":9073:9110  _approve(owner, spender, value, true) */\n      tag_194\n        /* \"@openzeppelin/contracts/token/ERC20/ERC20.sol\":9082:9087  owner */\n      dup4\n        /* \"@openzeppelin/contracts/token/ERC20/ERC20.sol\":9089:9096  spender */\n      dup4\n        /* \"@openzeppelin/contracts/token/ERC20/ERC20.sol\":9098:9103  value */\n      dup4\n        /* \"@openzeppelin/contracts/token/ERC20/ERC20.sol\":9105:9109  true */\n      0x01\n        /* \"@openzeppelin/contracts/token/ERC20/ERC20.sol\":9073:9081  _approve */\n      tag_195\n        /* \"@openzeppelin/contracts/token/ERC20/ERC20.sol\":9073:9110  _approve(owner, spender, value, true) */\n      jump\t// in\n    tag_194:\n        /* \"@openzeppelin/contracts/token/ERC20/ERC20.sol\":8989:9117  function _approve(address owner, address spender, uint256 value) internal {... */\n      pop\n      pop\n      pop\n      jump\t// out\n        /* \"@openzeppelin/contracts/token/ERC20/ERC20.sol\":10663:11140  function _spendAllowance(address owner, address spender, uint256 value) internal virtual {... */\n    tag_113:\n        /* \"@openzeppelin/contracts/token/ERC20/ERC20.sol\":10762:10786  uint256 currentAllowance */\n      0x00\n        /* \"@openzeppelin/contracts/token/ERC20/ERC20.sol\":10789:10814  allowance(owner, spender) */\n      tag_197\n        /* \"@openzeppelin/contracts/token/ERC20/ERC20.sol\":10799:10804  owner */\n      dup5\n        /* \"@openzeppelin/contracts/token/ERC20/ERC20.sol\":10806:10813  spender */\n      dup5\n        /* \"@openzeppelin/contracts/token/ERC20/ERC20.sol\":10789:10798  allowance */\n      tag_77\n        /* \"@openzeppelin/contracts/token/ERC20/ERC20.sol\":10789:10814  allowance(owner, spender) */\n      jump\t// in\n    tag_197:\n        /* \"@openzeppelin/contracts/token/ERC20/ERC20.sol\":10762:10814  uint256 currentAllowance = allowance(owner, spender) */\n      swap1\n      pop\n        /* \"@openzeppelin/contracts/token/ERC20/ERC20.sol\":10848:10865  type(uint256).max */\n      0xffffffffffffffffffffffffffffffffffffffffffffffffffffffffffffffff\n        /* \"@openzeppelin/contracts/token/ERC20/ERC20.sol\":10828:10844  currentAllowance */\n      dup2\n        /* \"@openzeppelin/contracts/token/ERC20/ERC20.sol\":10828:10865  currentAllowance != type(uint256).max */\n      eq\n        /* \"@openzeppelin/contracts/token/ERC20/ERC20.sol\":10824:11134  if (currentAllowance != type(uint256).max) {... */\n      tag_198\n      jumpi\n        /* \"@openzeppelin/contracts/token/ERC20/ERC20.sol\":10904:10909  value */\n      dup2\n        /* \"@openzeppelin/contracts/token/ERC20/ERC20.sol\":10885:10901  currentAllowance */\n      dup2\n        /* \"@openzeppelin/contracts/token/ERC20/ERC20.sol\":10885:10909  currentAllowance < value */\n      lt\n        /* \"@openzeppelin/contracts/token/ERC20/ERC20.sol\":10881:11011  if (currentAllowance < value) {... */\n      iszero\n      tag_199\n      jumpi\n        /* \"@openzeppelin/contracts/token/ERC20/ERC20.sol\":10963:10970  spender */\n      dup3\n        /* \"@openzeppelin/contracts/token/ERC20/ERC20.sol\":10972:10988  currentAllowance */\n      dup2\n        /* \"@openzeppelin/contracts/token/ERC20/ERC20.sol\":10990:10995  value */\n      dup4\n        /* \"@openzeppelin/contracts/token/ERC20/ERC20.sol\":10936:10996  ERC20InsufficientAllowance(spender, currentAllowance, value) */\n      mload(0x40)\n      0xfb8f41b200000000000000000000000000000000000000000000000000000000\n      dup2\n      mstore\n      0x04\n      add\n      tag_200\n      swap4\n      swap3\n      swap2\n      swap1\n      tag_201\n      jump\t// in\n    tag_200:\n      mload(0x40)\n      dup1\n      swap2\n      sub\n      swap1\n      revert\n        /* \"@openzeppelin/contracts/token/ERC20/ERC20.sol\":10881:11011  if (currentAllowance < value) {... */\n    tag_199:\n        /* \"@openzeppelin/contracts/token/ERC20/ERC20.sol\":11052:11109  _approve(owner, spender, currentAllowance - value, false) */\n      tag_202\n        /* \"@openzeppelin/contracts/token/ERC20/ERC20.sol\":11061:11066  owner */\n      dup5\n        /* \"@openzeppelin/contracts/token/ERC20/ERC20.sol\":11068:11075  spender */\n      dup5\n        /* \"@openzeppelin/contracts/token/ERC20/ERC20.sol\":11096:11101  value */\n      dup5\n        /* \"@openzeppelin/contracts/token/ERC20/ERC20.sol\":11077:11093  currentAllowance */\n      dup5\n        /* \"@openzeppelin/contracts/token/ERC20/ERC20.sol\":11077:11101  currentAllowance - value */\n      sub\n        /* \"@openzeppelin/contracts/token/ERC20/ERC20.sol\":11103:11108  false */\n      0x00\n        /* \"@openzeppelin/contracts/token/ERC20/ERC20.sol\":11052:11060  _approve */\n      tag_195\n        /* \"@openzeppelin/contracts/token/ERC20/ERC20.sol\":11052:11109  _approve(owner, spender, currentAllowance - value, false) */\n      jump\t// in\n    tag_202:\n        /* \"@openzeppelin/contracts/token/ERC20/ERC20.sol\":10824:11134  if (currentAllowance != type(uint256).max) {... */\n    tag_198:\n        /* \"@openzeppelin/contracts/token/ERC20/ERC20.sol\":10752:11140  {... */\n      pop\n        /* \"@openzeppelin/contracts/token/ERC20/ERC20.sol\":10663:11140  function _spendAllowance(address owner, address spender, uint256 value) internal virtual {... */\n      pop\n      pop\n      pop\n      jump\t// out\n        /* \"@openzeppelin/contracts/token/ERC20/ERC20.sol\":5656:5956  function _transfer(address from, address to, uint256 value) internal {... */\n    tag_115:\n        /* \"@openzeppelin/contracts/token/ERC20/ERC20.sol\":5755:5756  0 */\n      0x00\n        /* \"@openzeppelin/contracts/token/ERC20/ERC20.sol\":5739:5757  from == address(0) */\n      0xffffffffffffffffffffffffffffffffffffffff\n      and\n        /* \"@openzeppelin/contracts/token/ERC20/ERC20.sol\":5739:5743  from */\n      dup4\n        /* \"@openzeppelin/contracts/token/ERC20/ERC20.sol\":5739:5757  from == address(0) */\n      0xffffffffffffffffffffffffffffffffffffffff\n      and\n      sub\n        /* \"@openzeppelin/contracts/token/ERC20/ERC20.sol\":5735:5821  if (from == address(0)) {... */\n      tag_204\n      jumpi\n        /* \"@openzeppelin/contracts/token/ERC20/ERC20.sol\":5807:5808  0 */\n      0x00\n        /* \"@openzeppelin/contracts/token/ERC20/ERC20.sol\":5780:5810  ERC20InvalidSender(address(0)) */\n      mload(0x40)\n      0x96c6fd1e00000000000000000000000000000000000000000000000000000000\n      dup2\n      mstore\n      0x04\n      add\n      tag_205\n      swap2\n      swap1\n      tag_49\n      jump\t// in\n    tag_205:\n      mload(0x40)\n      dup1\n      swap2\n      sub\n      swap1\n      revert\n        /* \"@openzeppelin/contracts/token/ERC20/ERC20.sol\":5735:5821  if (from == address(0)) {... */\n    tag_204:\n        /* \"@openzeppelin/contracts/token/ERC20/ERC20.sol\":5848:5849  0 */\n      0x00\n        /* \"@openzeppelin/contracts/token/ERC20/ERC20.sol\":5834:5850  to == address(0) */\n      0xffffffffffffffffffffffffffffffffffffffff\n      and\n        /* \"@openzeppelin/contracts/token/ERC20/ERC20.sol\":5834:5836  to */\n      dup3\n        /* \"@openzeppelin/contracts/token/ERC20/ERC20.sol\":5834:5850  to == address(0) */\n      0xffffffffffffffffffffffffffffffffffffffff\n      and\n      sub\n        /* \"@openzeppelin/contracts/token/ERC20/ERC20.sol\":5830:5916  if (to == address(0)) {... */\n      tag_206\n      jumpi\n        /* \"@openzeppelin/contracts/token/ERC20/ERC20.sol\":5902:5903  0 */\n      0x00\n        /* \"@openzeppelin/contracts/token/ERC20/ERC20.sol\":5873:5905  ERC20InvalidReceiver(address(0)) */\n      mload(0x40)\n      0xec442f0500000000000000000000000000000000000000000000000000000000\n      dup2\n      mstore\n      0x04\n      add\n      tag_207\n      swap2\n      swap1\n      tag_49\n      jump\t// in\n    tag_207:\n      mload(0x40)\n      dup1\n      swap2\n      sub\n      swap1\n      revert\n        /* \"@openzeppelin/contracts/token/ERC20/ERC20.sol\":5830:5916  if (to == address(0)) {... */\n    tag_206:\n        /* \"@openzeppelin/contracts/token/ERC20/ERC20.sol\":5925:5949  _update(from, to, value) */\n      tag_208\n        /* \"@openzeppelin/contracts/token/ERC20/ERC20.sol\":5933:5937  from */\n      dup4\n        /* \"@openzeppelin/contracts/token/ERC20/ERC20.sol\":5939:5941  to */\n      dup4\n        /* \"@openzeppelin/contracts/token/ERC20/ERC20.sol\":5943:5948  value */\n      dup4\n        /* \"@openzeppelin/contracts/token/ERC20/ERC20.sol\":5925:5932  _update */\n      tag_209\n        /* \"@openzeppelin/contracts/token/ERC20/ERC20.sol\":5925:5949  _update(from, to, value) */\n      jump\t// in\n    tag_208:\n        /* \"@openzeppelin/contracts/token/ERC20/ERC20.sol\":5656:5956  function _transfer(address from, address to, uint256 value) internal {... */\n      pop\n      pop\n      pop\n      jump\t// out\n        /* \"constracts/RockPaperScissors.sol\":706:1121  function PlayerWin(Option first, Option second) private pure returns (bool win) {... */\n    tag_144:\n        /* \"constracts/RockPaperScissors.sol\":776:784  bool win */\n      0x00\n        /* \"constracts/RockPaperScissors.sol\":809:820  Option.Rock */\n      0x01\n        /* \"constracts/RockPaperScissors.sol\":800:820  first == Option.Rock */\n      0x03\n      dup2\n      gt\n      iszero\n      tag_211\n      jumpi\n      tag_212\n      tag_127\n      jump\t// in\n    tag_212:\n    tag_211:\n        /* \"constracts/RockPaperScissors.sol\":800:805  first */\n      dup4\n        /* \"constracts/RockPaperScissors.sol\":800:820  first == Option.Rock */\n      0x03\n      dup2\n      gt\n      iszero\n      tag_213\n      jumpi\n      tag_214\n      tag_127\n      jump\t// in\n    tag_214:\n    tag_213:\n      eq\n        /* \"constracts/RockPaperScissors.sol\":800:849  first == Option.Rock && second == Option.Scissors */\n      dup1\n      iszero\n      tag_215\n      jumpi\n      pop\n        /* \"constracts/RockPaperScissors.sol\":834:849  Option.Scissors */\n      0x03\n        /* \"constracts/RockPaperScissors.sol\":824:849  second == Option.Scissors */\n      dup1\n      dup2\n      gt\n      iszero\n      tag_216\n      jumpi\n      tag_217\n      tag_127\n      jump\t// in\n    tag_217:\n    tag_216:\n        /* \"constracts/RockPaperScissors.sol\":824:830  second */\n      dup3\n        /* \"constracts/RockPaperScissors.sol\":824:849  second == Option.Scissors */\n      0x03\n      dup2\n      gt\n      iszero\n      tag_218\n      jumpi\n      tag_219\n      tag_127\n      jump\t// in\n    tag_219:\n    tag_218:\n      eq\n        /* \"constracts/RockPaperScissors.sol\":800:849  first == Option.Rock && second == Option.Scissors */\n    tag_215:\n        /* \"constracts/RockPaperScissors.sol\":797:889  if(first == Option.Rock && second == Option.Scissors) {... */\n      iszero\n      tag_220\n      jumpi\n        /* \"constracts/RockPaperScissors.sol\":873:877  true */\n      0x01\n        /* \"constracts/RockPaperScissors.sol\":866:877  return true */\n      swap1\n      pop\n      jump(tag_210)\n        /* \"constracts/RockPaperScissors.sol\":797:889  if(first == Option.Rock && second == Option.Scissors) {... */\n    tag_220:\n        /* \"constracts/RockPaperScissors.sol\":911:923  Option.Paper */\n      0x02\n        /* \"constracts/RockPaperScissors.sol\":902:923  first == Option.Paper */\n      0x03\n      dup2\n      gt\n      iszero\n      tag_221\n      jumpi\n      tag_222\n      tag_127\n      jump\t// in\n    tag_222:\n    tag_221:\n        /* \"constracts/RockPaperScissors.sol\":902:907  first */\n      dup4\n        /* \"constracts/RockPaperScissors.sol\":902:923  first == Option.Paper */\n      0x03\n      dup2\n      gt\n      iszero\n      tag_223\n      jumpi\n      tag_224\n      tag_127\n      jump\t// in\n    tag_224:\n    tag_223:\n      eq\n        /* \"constracts/RockPaperScissors.sol\":902:948  first == Option.Paper && second == Option.Rock */\n      dup1\n      iszero\n      tag_225\n      jumpi\n      pop\n        /* \"constracts/RockPaperScissors.sol\":937:948  Option.Rock */\n      0x01\n        /* \"constracts/RockPaperScissors.sol\":927:948  second == Option.Rock */\n      0x03\n      dup2\n      gt\n      iszero\n      tag_226\n      jumpi\n      tag_227\n      tag_127\n      jump\t// in\n    tag_227:\n    tag_226:\n        /* \"constracts/RockPaperScissors.sol\":927:933  second */\n      dup3\n        /* \"constracts/RockPaperScissors.sol\":927:948  second == Option.Rock */\n      0x03\n      dup2\n      gt\n      iszero\n      tag_228\n      jumpi\n      tag_229\n      tag_127\n      jump\t// in\n    tag_229:\n    tag_228:\n      eq\n        /* \"constracts/RockPaperScissors.sol\":902:948  first == Option.Paper && second == Option.Rock */\n    tag_225:\n        /* \"constracts/RockPaperScissors.sol\":899:988  if(first == Option.Paper && second == Option.Rock) {... */\n      iszero\n      tag_230\n      jumpi\n        /* \"constracts/RockPaperScissors.sol\":972:976  true */\n      0x01\n        /* \"constracts/RockPaperScissors.sol\":965:976  return true */\n      swap1\n      pop\n      jump(tag_210)\n        /* \"constracts/RockPaperScissors.sol\":899:988  if(first == Option.Paper && second == Option.Rock) {... */\n    tag_230:\n        /* \"constracts/RockPaperScissors.sol\":1010:1025  Option.Scissors */\n      0x03\n        /* \"constracts/RockPaperScissors.sol\":1001:1025  first == Option.Scissors */\n      dup1\n      dup2\n      gt\n      iszero\n      tag_231\n      jumpi\n      tag_232\n      tag_127\n      jump\t// in\n    tag_232:\n    tag_231:\n        /* \"constracts/RockPaperScissors.sol\":1001:1006  first */\n      dup4\n        /* \"constracts/RockPaperScissors.sol\":1001:1025  first == Option.Scissors */\n      0x03\n      dup2\n      gt\n      iszero\n      tag_233\n      jumpi\n      tag_234\n      tag_127\n      jump\t// in\n    tag_234:\n    tag_233:\n      eq\n        /* \"constracts/RockPaperScissors.sol\":1001:1051  first == Option.Scissors && second == Option.Paper */\n      dup1\n      iszero\n      tag_235\n      jumpi\n      pop\n        /* \"constracts/RockPaperScissors.sol\":1039:1051  Option.Paper */\n      0x02\n        /* \"constracts/RockPaperScissors.sol\":1029:1051  second == Option.Paper */\n      0x03\n      dup2\n      gt\n      iszero\n      tag_236\n      jumpi\n      tag_237\n      tag_127\n      jump\t// in\n    tag_237:\n    tag_236:\n        /* \"constracts/RockPaperScissors.sol\":1029:1035  second */\n      dup3\n        /* \"constracts/RockPaperScissors.sol\":1029:1051  second == Option.Paper */\n      0x03\n      dup2\n      gt\n      iszero\n      tag_238\n      jumpi\n      tag_239\n      tag_127\n      jump\t// in\n    tag_239:\n    tag_238:\n      eq\n        /* \"constracts/RockPaperScissors.sol\":1001:1051  first == Option.Scissors && second == Option.Paper */\n    tag_235:\n        /* \"constracts/RockPaperScissors.sol\":998:1091  if(first == Option.Scissors && second == Option.Paper) {... */\n      iszero\n      tag_240\n      jumpi\n        /* \"constracts/RockPaperScissors.sol\":1075:1079  true */\n      0x01\n        /* \"constracts/RockPaperScissors.sol\":1068:1079  return true */\n      swap1\n      pop\n      jump(tag_210)\n        /* \"constracts/RockPaperScissors.sol\":998:1091  if(first == Option.Scissors && second == Option.Paper) {... */\n    tag_240:\n        /* \"constracts/RockPaperScissors.sol\":1108:1113  false */\n      0x00\n        /* \"constracts/RockPaperScissors.sol\":1101:1113  return false */\n      swap1\n      pop\n        /* \"constracts/RockPaperScissors.sol\":706:1121  function PlayerWin(Option first, Option second) private pure returns (bool win) {... */\n    tag_210:\n      swap3\n      swap2\n      pop\n      pop\n      jump\t// out\n        /* \"constracts/RockPaperScissors.sol\":3224:3397  function Restart() private {... */\n    tag_153:\n        /* \"constracts/RockPaperScissors.sol\":3280:3281  0 */\n      0x00\n        /* \"constracts/RockPaperScissors.sol\":3262:3269  player1 */\n      0x05\n      0x00\n        /* \"constracts/RockPaperScissors.sol\":3262:3282  player1 = address(0) */\n      0x0100\n      exp\n      dup2\n      sload\n      dup2\n      0xffffffffffffffffffffffffffffffffffffffff\n      mul\n      not\n      and\n      swap1\n      dup4\n      0xffffffffffffffffffffffffffffffffffffffff\n      and\n      mul\n      or\n      swap1\n      sstore\n      pop\n        /* \"constracts/RockPaperScissors.sol\":3311:3312  0 */\n      0x00\n        /* \"constracts/RockPaperScissors.sol\":3293:3300  player2 */\n      0x06\n      0x00\n        /* \"constracts/RockPaperScissors.sol\":3293:3313  player2 = address(0) */\n      0x0100\n      exp\n      dup2\n      sload\n      dup2\n      0xffffffffffffffffffffffffffffffffffffffff\n      mul\n      not\n      and\n      swap1\n      dup4\n      0xffffffffffffffffffffffffffffffffffffffff\n      and\n      mul\n      or\n      swap1\n      sstore\n      pop\n        /* \"constracts/RockPaperScissors.sol\":3340:3351  Option.None */\n      0x00\n        /* \"constracts/RockPaperScissors.sol\":3324:3337  player1Option */\n      0x05\n      0x14\n        /* \"constracts/RockPaperScissors.sol\":3324:3351  player1Option = Option.None */\n      0x0100\n      exp\n      dup2\n      sload\n      dup2\n      0xff\n      mul\n      not\n      and\n      swap1\n      dup4\n      0x03\n      dup2\n      gt\n      iszero\n      tag_242\n      jumpi\n      tag_243\n      tag_127\n      jump\t// in\n    tag_243:\n    tag_242:\n      mul\n      or\n      swap1\n      sstore\n      pop\n        /* \"constracts/RockPaperScissors.sol\":3378:3389  Option.None */\n      0x00\n        /* \"constracts/RockPaperScissors.sol\":3362:3375  player2Option */\n      0x06\n      0x14\n        /* \"constracts/RockPaperScissors.sol\":3362:3389  player2Option = Option.None */\n      0x0100\n      exp\n      dup2\n      sload\n      dup2\n      0xff\n      mul\n      not\n      and\n      swap1\n      dup4\n      0x03\n      dup2\n      gt\n      iszero\n      tag_244\n      jumpi\n      tag_245\n      tag_127\n      jump\t// in\n    tag_245:\n    tag_244:\n      mul\n      or\n      swap1\n      sstore\n      pop\n        /* \"constracts/RockPaperScissors.sol\":3224:3397  function Restart() private {... */\n      jump\t// out\n        /* \"@openzeppelin/contracts/token/ERC20/ERC20.sol\":9949:10381  function _approve(address owner, address spender, uint256 value, bool emitEvent) internal virtual {... */\n    tag_195:\n        /* \"@openzeppelin/contracts/token/ERC20/ERC20.sol\":10078:10079  0 */\n      0x00\n        /* \"@openzeppelin/contracts/token/ERC20/ERC20.sol\":10061:10080  owner == address(0) */\n      0xffffffffffffffffffffffffffffffffffffffff\n      and\n        /* \"@openzeppelin/contracts/token/ERC20/ERC20.sol\":10061:10066  owner */\n      dup5\n        /* \"@openzeppelin/contracts/token/ERC20/ERC20.sol\":10061:10080  owner == address(0) */\n      0xffffffffffffffffffffffffffffffffffffffff\n      and\n      sub\n        /* \"@openzeppelin/contracts/token/ERC20/ERC20.sol\":10057:10146  if (owner == address(0)) {... */\n      tag_247\n      jumpi\n        /* \"@openzeppelin/contracts/token/ERC20/ERC20.sol\":10132:10133  0 */\n      0x00\n        /* \"@openzeppelin/contracts/token/ERC20/ERC20.sol\":10103:10135  ERC20InvalidApprover(address(0)) */\n      mload(0x40)\n      0xe602df0500000000000000000000000000000000000000000000000000000000\n      dup2\n      mstore\n      0x04\n      add\n      tag_248\n      swap2\n      swap1\n      tag_49\n      jump\t// in\n    tag_248:\n      mload(0x40)\n      dup1\n      swap2\n      sub\n      swap1\n      revert\n        /* \"@openzeppelin/contracts/token/ERC20/ERC20.sol\":10057:10146  if (owner == address(0)) {... */\n    tag_247:\n        /* \"@openzeppelin/contracts/token/ERC20/ERC20.sol\":10178:10179  0 */\n      0x00\n        /* \"@openzeppelin/contracts/token/ERC20/ERC20.sol\":10159:10180  spender == address(0) */\n      0xffffffffffffffffffffffffffffffffffffffff\n      and\n        /* \"@openzeppelin/contracts/token/ERC20/ERC20.sol\":10159:10166  spender */\n      dup4\n        /* \"@openzeppelin/contracts/token/ERC20/ERC20.sol\":10159:10180  spender == address(0) */\n      0xffffffffffffffffffffffffffffffffffffffff\n      and\n      sub\n        /* \"@openzeppelin/contracts/token/ERC20/ERC20.sol\":10155:10245  if (spender == address(0)) {... */\n      tag_249\n      jumpi\n        /* \"@openzeppelin/contracts/token/ERC20/ERC20.sol\":10231:10232  0 */\n      0x00\n        /* \"@openzeppelin/contracts/token/ERC20/ERC20.sol\":10203:10234  ERC20InvalidSpender(address(0)) */\n      mload(0x40)\n      0x94280d6200000000000000000000000000000000000000000000000000000000\n      dup2\n      mstore\n      0x04\n      add\n      tag_250\n      swap2\n      swap1\n      tag_49\n      jump\t// in\n    tag_250:\n      mload(0x40)\n      dup1\n      swap2\n      sub\n      swap1\n      revert\n        /* \"@openzeppelin/contracts/token/ERC20/ERC20.sol\":10155:10245  if (spender == address(0)) {... */\n    tag_249:\n        /* \"@openzeppelin/contracts/token/ERC20/ERC20.sol\":10284:10289  value */\n      dup2\n        /* \"@openzeppelin/contracts/token/ERC20/ERC20.sol\":10254:10265  _allowances */\n      0x01\n        /* \"@openzeppelin/contracts/token/ERC20/ERC20.sol\":10254:10272  _allowances[owner] */\n      0x00\n        /* \"@openzeppelin/contracts/token/ERC20/ERC20.sol\":10266:10271  owner */\n      dup7\n        /* \"@openzeppelin/contracts/token/ERC20/ERC20.sol\":10254:10272  _allowances[owner] */\n      0xffffffffffffffffffffffffffffffffffffffff\n      and\n      0xffffffffffffffffffffffffffffffffffffffff\n      and\n      dup2\n      mstore\n      0x20\n      add\n      swap1\n      dup2\n      mstore\n      0x20\n      add\n      0x00\n      keccak256\n        /* \"@openzeppelin/contracts/token/ERC20/ERC20.sol\":10254:10281  _allowances[owner][spender] */\n      0x00\n        /* \"@openzeppelin/contracts/token/ERC20/ERC20.sol\":10273:10280  spender */\n      dup6\n        /* \"@openzeppelin/contracts/token/ERC20/ERC20.sol\":10254:10281  _allowances[owner][spender] */\n      0xffffffffffffffffffffffffffffffffffffffff\n      and\n      0xffffffffffffffffffffffffffffffffffffffff\n      and\n      dup2\n      mstore\n      0x20\n      add\n      swap1\n      dup2\n      mstore\n      0x20\n      add\n      0x00\n      keccak256\n        /* \"@openzeppelin/contracts/token/ERC20/ERC20.sol\":10254:10289  _allowances[owner][spender] = value */\n      dup2\n      swap1\n      sstore\n      pop\n        /* \"@openzeppelin/contracts/token/ERC20/ERC20.sol\":10303:10312  emitEvent */\n      dup1\n        /* \"@openzeppelin/contracts/token/ERC20/ERC20.sol\":10299:10375  if (emitEvent) {... */\n      iszero\n      tag_251\n      jumpi\n        /* \"@openzeppelin/contracts/token/ERC20/ERC20.sol\":10349:10356  spender */\n      dup3\n        /* \"@openzeppelin/contracts/token/ERC20/ERC20.sol\":10333:10364  Approval(owner, spender, value) */\n      0xffffffffffffffffffffffffffffffffffffffff\n      and\n        /* \"@openzeppelin/contracts/token/ERC20/ERC20.sol\":10342:10347  owner */\n      dup5\n        /* \"@openzeppelin/contracts/token/ERC20/ERC20.sol\":10333:10364  Approval(owner, spender, value) */\n      0xffffffffffffffffffffffffffffffffffffffff\n      and\n      0x8c5be1e5ebec7d5bd14f71427d1e84f3dd0314c0f7b2291e5b200ac8c7c3b925\n        /* \"@openzeppelin/contracts/token/ERC20/ERC20.sol\":10358:10363  value */\n      dup5\n        /* \"@openzeppelin/contracts/token/ERC20/ERC20.sol\":10333:10364  Approval(owner, spender, value) */\n      mload(0x40)\n      tag_252\n      swap2\n      swap1\n      tag_34\n      jump\t// in\n    tag_252:\n      mload(0x40)\n      dup1\n      swap2\n      sub\n      swap1\n      log3\n        /* \"@openzeppelin/contracts/token/ERC20/ERC20.sol\":10299:10375  if (emitEvent) {... */\n    tag_251:\n        /* \"@openzeppelin/contracts/token/ERC20/ERC20.sol\":9949:10381  function _approve(address owner, address spender, uint256 value, bool emitEvent) internal virtual {... */\n      pop\n      pop\n      pop\n      pop\n      jump\t// out\n        /* \"@openzeppelin/contracts/token/ERC20/ERC20.sol\":6271:7378  function _update(address from, address to, uint256 value) internal virtual {... */\n    tag_209:\n        /* \"@openzeppelin/contracts/token/ERC20/ERC20.sol\":6376:6377  0 */\n      0x00\n        /* \"@openzeppelin/contracts/token/ERC20/ERC20.sol\":6360:6378  from == address(0) */\n      0xffffffffffffffffffffffffffffffffffffffff\n      and\n        /* \"@openzeppelin/contracts/token/ERC20/ERC20.sol\":6360:6364  from */\n      dup4\n        /* \"@openzeppelin/contracts/token/ERC20/ERC20.sol\":6360:6378  from == address(0) */\n      0xffffffffffffffffffffffffffffffffffffffff\n      and\n      sub\n        /* \"@openzeppelin/contracts/token/ERC20/ERC20.sol\":6356:6896  if (from == address(0)) {... */\n      tag_254\n      jumpi\n        /* \"@openzeppelin/contracts/token/ERC20/ERC20.sol\":6512:6517  value */\n      dup1\n        /* \"@openzeppelin/contracts/token/ERC20/ERC20.sol\":6496:6508  _totalSupply */\n      0x02\n      0x00\n        /* \"@openzeppelin/contracts/token/ERC20/ERC20.sol\":6496:6517  _totalSupply += value */\n      dup3\n      dup3\n      sload\n      tag_255\n      swap2\n      swap1\n      tag_256\n      jump\t// in\n    tag_255:\n      swap3\n      pop\n      pop\n      dup2\n      swap1\n      sstore\n      pop\n        /* \"@openzeppelin/contracts/token/ERC20/ERC20.sol\":6356:6896  if (from == address(0)) {... */\n      jump(tag_257)\n    tag_254:\n        /* \"@openzeppelin/contracts/token/ERC20/ERC20.sol\":6548:6567  uint256 fromBalance */\n      0x00\n        /* \"@openzeppelin/contracts/token/ERC20/ERC20.sol\":6570:6579  _balances */\n      dup1\n        /* \"@openzeppelin/contracts/token/ERC20/ERC20.sol\":6570:6585  _balances[from] */\n      0x00\n        /* \"@openzeppelin/contracts/token/ERC20/ERC20.sol\":6580:6584  from */\n      dup6\n        /* \"@openzeppelin/contracts/token/ERC20/ERC20.sol\":6570:6585  _balances[from] */\n      0xffffffffffffffffffffffffffffffffffffffff\n      and\n      0xffffffffffffffffffffffffffffffffffffffff\n      and\n      dup2\n      mstore\n      0x20\n      add\n      swap1\n      dup2\n      mstore\n      0x20\n      add\n      0x00\n      keccak256\n      sload\n        /* \"@openzeppelin/contracts/token/ERC20/ERC20.sol\":6548:6585  uint256 fromBalance = _balances[from] */\n      swap1\n      pop\n        /* \"@openzeppelin/contracts/token/ERC20/ERC20.sol\":6617:6622  value */\n      dup2\n        /* \"@openzeppelin/contracts/token/ERC20/ERC20.sol\":6603:6614  fromBalance */\n      dup2\n        /* \"@openzeppelin/contracts/token/ERC20/ERC20.sol\":6603:6622  fromBalance < value */\n      lt\n        /* \"@openzeppelin/contracts/token/ERC20/ERC20.sol\":6599:6714  if (fromBalance < value) {... */\n      iszero\n      tag_258\n      jumpi\n        /* \"@openzeppelin/contracts/token/ERC20/ERC20.sol\":6674:6678  from */\n      dup4\n        /* \"@openzeppelin/contracts/token/ERC20/ERC20.sol\":6680:6691  fromBalance */\n      dup2\n        /* \"@openzeppelin/contracts/token/ERC20/ERC20.sol\":6693:6698  value */\n      dup4\n        /* \"@openzeppelin/contracts/token/ERC20/ERC20.sol\":6649:6699  ERC20InsufficientBalance(from, fromBalance, value) */\n      mload(0x40)\n      0xe450d38c00000000000000000000000000000000000000000000000000000000\n      dup2\n      mstore\n      0x04\n      add\n      tag_259\n      swap4\n      swap3\n      swap2\n      swap1\n      tag_201\n      jump\t// in\n    tag_259:\n      mload(0x40)\n      dup1\n      swap2\n      sub\n      swap1\n      revert\n        /* \"@openzeppelin/contracts/token/ERC20/ERC20.sol\":6599:6714  if (fromBalance < value) {... */\n    tag_258:\n        /* \"@openzeppelin/contracts/token/ERC20/ERC20.sol\":6866:6871  value */\n      dup2\n        /* \"@openzeppelin/contracts/token/ERC20/ERC20.sol\":6852:6863  fromBalance */\n      dup2\n        /* \"@openzeppelin/contracts/token/ERC20/ERC20.sol\":6852:6871  fromBalance - value */\n      sub\n        /* \"@openzeppelin/contracts/token/ERC20/ERC20.sol\":6834:6843  _balances */\n      0x00\n        /* \"@openzeppelin/contracts/token/ERC20/ERC20.sol\":6834:6849  _balances[from] */\n      dup1\n        /* \"@openzeppelin/contracts/token/ERC20/ERC20.sol\":6844:6848  from */\n      dup7\n        /* \"@openzeppelin/contracts/token/ERC20/ERC20.sol\":6834:6849  _balances[from] */\n      0xffffffffffffffffffffffffffffffffffffffff\n      and\n      0xffffffffffffffffffffffffffffffffffffffff\n      and\n      dup2\n      mstore\n      0x20\n      add\n      swap1\n      dup2\n      mstore\n      0x20\n      add\n      0x00\n      keccak256\n        /* \"@openzeppelin/contracts/token/ERC20/ERC20.sol\":6834:6871  _balances[from] = fromBalance - value */\n      dup2\n      swap1\n      sstore\n      pop\n        /* \"@openzeppelin/contracts/token/ERC20/ERC20.sol\":6534:6896  {... */\n      pop\n        /* \"@openzeppelin/contracts/token/ERC20/ERC20.sol\":6356:6896  if (from == address(0)) {... */\n    tag_257:\n        /* \"@openzeppelin/contracts/token/ERC20/ERC20.sol\":6924:6925  0 */\n      0x00\n        /* \"@openzeppelin/contracts/token/ERC20/ERC20.sol\":6910:6926  to == address(0) */\n      0xffffffffffffffffffffffffffffffffffffffff\n      and\n        /* \"@openzeppelin/contracts/token/ERC20/ERC20.sol\":6910:6912  to */\n      dup3\n        /* \"@openzeppelin/contracts/token/ERC20/ERC20.sol\":6910:6926  to == address(0) */\n      0xffffffffffffffffffffffffffffffffffffffff\n      and\n      sub\n        /* \"@openzeppelin/contracts/token/ERC20/ERC20.sol\":6906:7331  if (to == address(0)) {... */\n      tag_260\n      jumpi\n        /* \"@openzeppelin/contracts/token/ERC20/ERC20.sol\":7089:7094  value */\n      dup1\n        /* \"@openzeppelin/contracts/token/ERC20/ERC20.sol\":7073:7085  _totalSupply */\n      0x02\n      0x00\n        /* \"@openzeppelin/contracts/token/ERC20/ERC20.sol\":7073:7094  _totalSupply -= value */\n      dup3\n      dup3\n      sload\n      sub\n      swap3\n      pop\n      pop\n      dup2\n      swap1\n      sstore\n      pop\n        /* \"@openzeppelin/contracts/token/ERC20/ERC20.sol\":6906:7331  if (to == address(0)) {... */\n      jump(tag_261)\n    tag_260:\n        /* \"@openzeppelin/contracts/token/ERC20/ERC20.sol\":7301:7306  value */\n      dup1\n        /* \"@openzeppelin/contracts/token/ERC20/ERC20.sol\":7284:7293  _balances */\n      0x00\n        /* \"@openzeppelin/contracts/token/ERC20/ERC20.sol\":7284:7297  _balances[to] */\n      dup1\n        /* \"@openzeppelin/contracts/token/ERC20/ERC20.sol\":7294:7296  to */\n      dup5\n        /* \"@openzeppelin/contracts/token/ERC20/ERC20.sol\":7284:7297  _balances[to] */\n      0xffffffffffffffffffffffffffffffffffffffff\n      and\n      0xffffffffffffffffffffffffffffffffffffffff\n      and\n      dup2\n      mstore\n      0x20\n      add\n      swap1\n      dup2\n      mstore\n      0x20\n      add\n      0x00\n      keccak256\n      0x00\n        /* \"@openzeppelin/contracts/token/ERC20/ERC20.sol\":7284:7306  _balances[to] += value */\n      dup3\n      dup3\n      sload\n      add\n      swap3\n      pop\n      pop\n      dup2\n      swap1\n      sstore\n      pop\n        /* \"@openzeppelin/contracts/token/ERC20/ERC20.sol\":6906:7331  if (to == address(0)) {... */\n    tag_261:\n        /* \"@openzeppelin/contracts/token/ERC20/ERC20.sol\":7361:7363  to */\n      dup2\n        /* \"@openzeppelin/contracts/token/ERC20/ERC20.sol\":7346:7371  Transfer(from, to, value) */\n      0xffffffffffffffffffffffffffffffffffffffff\n      and\n        /* \"@openzeppelin/contracts/token/ERC20/ERC20.sol\":7355:7359  from */\n      dup4\n        /* \"@openzeppelin/contracts/token/ERC20/ERC20.sol\":7346:7371  Transfer(from, to, value) */\n      0xffffffffffffffffffffffffffffffffffffffff\n      and\n      0xddf252ad1be2c89b69c2b068fc378daa952ba7f163c4a11628f55a4df523b3ef\n        /* \"@openzeppelin/contracts/token/ERC20/ERC20.sol\":7365:7370  value */\n      dup4\n        /* \"@openzeppelin/contracts/token/ERC20/ERC20.sol\":7346:7371  Transfer(from, to, value) */\n      mload(0x40)\n      tag_262\n      swap2\n      swap1\n      tag_34\n      jump\t// in\n    tag_262:\n      mload(0x40)\n      dup1\n      swap2\n      sub\n      swap1\n      log3\n        /* \"@openzeppelin/contracts/token/ERC20/ERC20.sol\":6271:7378  function _update(address from, address to, uint256 value) internal virtual {... */\n      pop\n      pop\n      pop\n      jump\t// out\n        /* \"#utility.yul\":7:106   */\n    tag_263:\n        /* \"#utility.yul\":59:65   */\n      0x00\n        /* \"#utility.yul\":93:98   */\n      dup2\n        /* \"#utility.yul\":87:99   */\n      mload\n        /* \"#utility.yul\":77:99   */\n      swap1\n      pop\n        /* \"#utility.yul\":7:106   */\n      swap2\n      swap1\n      pop\n      jump\t// out\n        /* \"#utility.yul\":112:281   */\n    tag_264:\n        /* \"#utility.yul\":196:207   */\n      0x00\n        /* \"#utility.yul\":230:236   */\n      dup3\n        /* \"#utility.yul\":225:228   */\n      dup3\n        /* \"#utility.yul\":218:237   */\n      mstore\n        /* \"#utility.yul\":270:274   */\n      0x20\n        /* \"#utility.yul\":265:268   */\n      dup3\n        /* \"#utility.yul\":261:275   */\n      add\n        /* \"#utility.yul\":246:275   */\n      swap1\n      pop\n        /* \"#utility.yul\":112:281   */\n      swap3\n      swap2\n      pop\n      pop\n      jump\t// out\n        /* \"#utility.yul\":287:533   */\n    tag_265:\n        /* \"#utility.yul\":368:369   */\n      0x00\n        /* \"#utility.yul\":378:491   */\n    tag_312:\n        /* \"#utility.yul\":392:398   */\n      dup4\n        /* \"#utility.yul\":389:390   */\n      dup2\n        /* \"#utility.yul\":386:399   */\n      lt\n        /* \"#utility.yul\":378:491   */\n      iszero\n      tag_314\n      jumpi\n        /* \"#utility.yul\":477:478   */\n      dup1\n        /* \"#utility.yul\":472:475   */\n      dup3\n        /* \"#utility.yul\":468:479   */\n      add\n        /* \"#utility.yul\":462:480   */\n      mload\n        /* \"#utility.yul\":458:459   */\n      dup2\n        /* \"#utility.yul\":453:456   */\n      dup5\n        /* \"#utility.yul\":449:460   */\n      add\n        /* \"#utility.yul\":442:481   */\n      mstore\n        /* \"#utility.yul\":414:416   */\n      0x20\n        /* \"#utility.yul\":411:412   */\n      dup2\n        /* \"#utility.yul\":407:417   */\n      add\n        /* \"#utility.yul\":402:417   */\n      swap1\n      pop\n        /* \"#utility.yul\":378:491   */\n      jump(tag_312)\n    tag_314:\n        /* \"#utility.yul\":525:526   */\n      0x00\n        /* \"#utility.yul\":516:522   */\n      dup5\n        /* \"#utility.yul\":511:514   */\n      dup5\n        /* \"#utility.yul\":507:523   */\n      add\n        /* \"#utility.yul\":500:527   */\n      mstore\n        /* \"#utility.yul\":349:533   */\n      pop\n        /* \"#utility.yul\":287:533   */\n      pop\n      pop\n      pop\n      jump\t// out\n        /* \"#utility.yul\":539:641   */\n    tag_266:\n        /* \"#utility.yul\":580:586   */\n      0x00\n        /* \"#utility.yul\":631:633   */\n      0x1f\n        /* \"#utility.yul\":627:634   */\n      not\n        /* \"#utility.yul\":622:624   */\n      0x1f\n        /* \"#utility.yul\":615:620   */\n      dup4\n        /* \"#utility.yul\":611:625   */\n      add\n        /* \"#utility.yul\":607:635   */\n      and\n        /* \"#utility.yul\":597:635   */\n      swap1\n      pop\n        /* \"#utility.yul\":539:641   */\n      swap2\n      swap1\n      pop\n      jump\t// out\n        /* \"#utility.yul\":647:1024   */\n    tag_267:\n        /* \"#utility.yul\":735:738   */\n      0x00\n        /* \"#utility.yul\":763:802   */\n      tag_317\n        /* \"#utility.yul\":796:801   */\n      dup3\n        /* \"#utility.yul\":763:802   */\n      tag_263\n      jump\t// in\n    tag_317:\n        /* \"#utility.yul\":818:889   */\n      tag_318\n        /* \"#utility.yul\":882:888   */\n      dup2\n        /* \"#utility.yul\":877:880   */\n      dup6\n        /* \"#utility.yul\":818:889   */\n      tag_264\n      jump\t// in\n    tag_318:\n        /* \"#utility.yul\":811:889   */\n      swap4\n      pop\n        /* \"#utility.yul\":898:963   */\n      tag_319\n        /* \"#utility.yul\":956:962   */\n      dup2\n        /* \"#utility.yul\":951:954   */\n      dup6\n        /* \"#utility.yul\":944:948   */\n      0x20\n        /* \"#utility.yul\":937:942   */\n      dup7\n        /* \"#utility.yul\":933:949   */\n      add\n        /* \"#utility.yul\":898:963   */\n      tag_265\n      jump\t// in\n    tag_319:\n        /* \"#utility.yul\":988:1017   */\n      tag_320\n        /* \"#utility.yul\":1010:1016   */\n      dup2\n        /* \"#utility.yul\":988:1017   */\n      tag_266\n      jump\t// in\n    tag_320:\n        /* \"#utility.yul\":983:986   */\n      dup5\n        /* \"#utility.yul\":979:1018   */\n      add\n        /* \"#utility.yul\":972:1018   */\n      swap2\n      pop\n        /* \"#utility.yul\":739:1024   */\n      pop\n        /* \"#utility.yul\":647:1024   */\n      swap3\n      swap2\n      pop\n      pop\n      jump\t// out\n        /* \"#utility.yul\":1030:1343   */\n    tag_24:\n        /* \"#utility.yul\":1143:1147   */\n      0x00\n        /* \"#utility.yul\":1181:1183   */\n      0x20\n        /* \"#utility.yul\":1170:1179   */\n      dup3\n        /* \"#utility.yul\":1166:1184   */\n      add\n        /* \"#utility.yul\":1158:1184   */\n      swap1\n      pop\n        /* \"#utility.yul\":1230:1239   */\n      dup2\n        /* \"#utility.yul\":1224:1228   */\n      dup2\n        /* \"#utility.yul\":1220:1240   */\n      sub\n        /* \"#utility.yul\":1216:1217   */\n      0x00\n        /* \"#utility.yul\":1205:1214   */\n      dup4\n        /* \"#utility.yul\":1201:1218   */\n      add\n        /* \"#utility.yul\":1194:1241   */\n      mstore\n        /* \"#utility.yul\":1258:1336   */\n      tag_322\n        /* \"#utility.yul\":1331:1335   */\n      dup2\n        /* \"#utility.yul\":1322:1328   */\n      dup5\n        /* \"#utility.yul\":1258:1336   */\n      tag_267\n      jump\t// in\n    tag_322:\n        /* \"#utility.yul\":1250:1336   */\n      swap1\n      pop\n        /* \"#utility.yul\":1030:1343   */\n      swap3\n      swap2\n      pop\n      pop\n      jump\t// out\n        /* \"#utility.yul\":1430:1547   */\n    tag_269:\n        /* \"#utility.yul\":1539:1540   */\n      0x00\n        /* \"#utility.yul\":1536:1537   */\n      dup1\n        /* \"#utility.yul\":1529:1541   */\n      revert\n        /* \"#utility.yul\":1676:1802   */\n    tag_271:\n        /* \"#utility.yul\":1713:1720   */\n      0x00\n        /* \"#utility.yul\":1753:1795   */\n      0xffffffffffffffffffffffffffffffffffffffff\n        /* \"#utility.yul\":1746:1751   */\n      dup3\n        /* \"#utility.yul\":1742:1796   */\n      and\n        /* \"#utility.yul\":1731:1796   */\n      swap1\n      pop\n        /* \"#utility.yul\":1676:1802   */\n      swap2\n      swap1\n      pop\n      jump\t// out\n        /* \"#utility.yul\":1808:1904   */\n    tag_272:\n        /* \"#utility.yul\":1845:1852   */\n      0x00\n        /* \"#utility.yul\":1874:1898   */\n      tag_328\n        /* \"#utility.yul\":1892:1897   */\n      dup3\n        /* \"#utility.yul\":1874:1898   */\n      tag_271\n      jump\t// in\n    tag_328:\n        /* \"#utility.yul\":1863:1898   */\n      swap1\n      pop\n        /* \"#utility.yul\":1808:1904   */\n      swap2\n      swap1\n      pop\n      jump\t// out\n        /* \"#utility.yul\":1910:2032   */\n    tag_273:\n        /* \"#utility.yul\":1983:2007   */\n      tag_330\n        /* \"#utility.yul\":2001:2006   */\n      dup2\n        /* \"#utility.yul\":1983:2007   */\n      tag_272\n      jump\t// in\n    tag_330:\n        /* \"#utility.yul\":1976:1981   */\n      dup2\n        /* \"#utility.yul\":1973:2008   */\n      eq\n        /* \"#utility.yul\":1963:2026   */\n      tag_331\n      jumpi\n        /* \"#utility.yul\":2022:2023   */\n      0x00\n        /* \"#utility.yul\":2019:2020   */\n      dup1\n        /* \"#utility.yul\":2012:2024   */\n      revert\n        /* \"#utility.yul\":1963:2026   */\n    tag_331:\n        /* \"#utility.yul\":1910:2032   */\n      pop\n      jump\t// out\n        /* \"#utility.yul\":2038:2177   */\n    tag_274:\n        /* \"#utility.yul\":2084:2089   */\n      0x00\n        /* \"#utility.yul\":2122:2128   */\n      dup2\n        /* \"#utility.yul\":2109:2129   */\n      calldataload\n        /* \"#utility.yul\":2100:2129   */\n      swap1\n      pop\n        /* \"#utility.yul\":2138:2171   */\n      tag_333\n        /* \"#utility.yul\":2165:2170   */\n      dup2\n        /* \"#utility.yul\":2138:2171   */\n      tag_273\n      jump\t// in\n    tag_333:\n        /* \"#utility.yul\":2038:2177   */\n      swap3\n      swap2\n      pop\n      pop\n      jump\t// out\n        /* \"#utility.yul\":2183:2260   */\n    tag_275:\n        /* \"#utility.yul\":2220:2227   */\n      0x00\n        /* \"#utility.yul\":2249:2254   */\n      dup2\n        /* \"#utility.yul\":2238:2254   */\n      swap1\n      pop\n        /* \"#utility.yul\":2183:2260   */\n      swap2\n      swap1\n      pop\n      jump\t// out\n        /* \"#utility.yul\":2266:2388   */\n    tag_276:\n        /* \"#utility.yul\":2339:2363   */\n      tag_336\n        /* \"#utility.yul\":2357:2362   */\n      dup2\n        /* \"#utility.yul\":2339:2363   */\n      tag_275\n      jump\t// in\n    tag_336:\n        /* \"#utility.yul\":2332:2337   */\n      dup2\n        /* \"#utility.yul\":2329:2364   */\n      eq\n        /* \"#utility.yul\":2319:2382   */\n      tag_337\n      jumpi\n        /* \"#utility.yul\":2378:2379   */\n      0x00\n        /* \"#utility.yul\":2375:2376   */\n      dup1\n        /* \"#utility.yul\":2368:2380   */\n      revert\n        /* \"#utility.yul\":2319:2382   */\n    tag_337:\n        /* \"#utility.yul\":2266:2388   */\n      pop\n      jump\t// out\n        /* \"#utility.yul\":2394:2533   */\n    tag_277:\n        /* \"#utility.yul\":2440:2445   */\n      0x00\n        /* \"#utility.yul\":2478:2484   */\n      dup2\n        /* \"#utility.yul\":2465:2485   */\n      calldataload\n        /* \"#utility.yul\":2456:2485   */\n      swap1\n      pop\n        /* \"#utility.yul\":2494:2527   */\n      tag_339\n        /* \"#utility.yul\":2521:2526   */\n      dup2\n        /* \"#utility.yul\":2494:2527   */\n      tag_276\n      jump\t// in\n    tag_339:\n        /* \"#utility.yul\":2394:2533   */\n      swap3\n      swap2\n      pop\n      pop\n      jump\t// out\n        /* \"#utility.yul\":2539:3013   */\n    tag_27:\n        /* \"#utility.yul\":2607:2613   */\n      0x00\n        /* \"#utility.yul\":2615:2621   */\n      dup1\n        /* \"#utility.yul\":2664:2666   */\n      0x40\n        /* \"#utility.yul\":2652:2661   */\n      dup4\n        /* \"#utility.yul\":2643:2650   */\n      dup6\n        /* \"#utility.yul\":2639:2662   */\n      sub\n        /* \"#utility.yul\":2635:2667   */\n      slt\n        /* \"#utility.yul\":2632:2751   */\n      iszero\n      tag_341\n      jumpi\n        /* \"#utility.yul\":2670:2749   */\n      tag_342\n      tag_269\n      jump\t// in\n    tag_342:\n        /* \"#utility.yul\":2632:2751   */\n    tag_341:\n        /* \"#utility.yul\":2790:2791   */\n      0x00\n        /* \"#utility.yul\":2815:2868   */\n      tag_343\n        /* \"#utility.yul\":2860:2867   */\n      dup6\n        /* \"#utility.yul\":2851:2857   */\n      dup3\n        /* \"#utility.yul\":2840:2849   */\n      dup7\n        /* \"#utility.yul\":2836:2858   */\n      add\n        /* \"#utility.yul\":2815:2868   */\n      tag_274\n      jump\t// in\n    tag_343:\n        /* \"#utility.yul\":2805:2868   */\n      swap3\n      pop\n        /* \"#utility.yul\":2761:2878   */\n      pop\n        /* \"#utility.yul\":2917:2919   */\n      0x20\n        /* \"#utility.yul\":2943:2996   */\n      tag_344\n        /* \"#utility.yul\":2988:2995   */\n      dup6\n        /* \"#utility.yul\":2979:2985   */\n      dup3\n        /* \"#utility.yul\":2968:2977   */\n      dup7\n        /* \"#utility.yul\":2964:2986   */\n      add\n        /* \"#utility.yul\":2943:2996   */\n      tag_277\n      jump\t// in\n    tag_344:\n        /* \"#utility.yul\":2933:2996   */\n      swap2\n      pop\n        /* \"#utility.yul\":2888:3006   */\n      pop\n        /* \"#utility.yul\":2539:3013   */\n      swap3\n      pop\n      swap3\n      swap1\n      pop\n      jump\t// out\n        /* \"#utility.yul\":3019:3109   */\n    tag_278:\n        /* \"#utility.yul\":3053:3060   */\n      0x00\n        /* \"#utility.yul\":3096:3101   */\n      dup2\n        /* \"#utility.yul\":3089:3102   */\n      iszero\n        /* \"#utility.yul\":3082:3103   */\n      iszero\n        /* \"#utility.yul\":3071:3103   */\n      swap1\n      pop\n        /* \"#utility.yul\":3019:3109   */\n      swap2\n      swap1\n      pop\n      jump\t// out\n        /* \"#utility.yul\":3115:3224   */\n    tag_279:\n        /* \"#utility.yul\":3196:3217   */\n      tag_347\n        /* \"#utility.yul\":3211:3216   */\n      dup2\n        /* \"#utility.yul\":3196:3217   */\n      tag_278\n      jump\t// in\n    tag_347:\n        /* \"#utility.yul\":3191:3194   */\n      dup3\n        /* \"#utility.yul\":3184:3218   */\n      mstore\n        /* \"#utility.yul\":3115:3224   */\n      pop\n      pop\n      jump\t// out\n        /* \"#utility.yul\":3230:3440   */\n    tag_30:\n        /* \"#utility.yul\":3317:3321   */\n      0x00\n        /* \"#utility.yul\":3355:3357   */\n      0x20\n        /* \"#utility.yul\":3344:3353   */\n      dup3\n        /* \"#utility.yul\":3340:3358   */\n      add\n        /* \"#utility.yul\":3332:3358   */\n      swap1\n      pop\n        /* \"#utility.yul\":3368:3433   */\n      tag_349\n        /* \"#utility.yul\":3430:3431   */\n      0x00\n        /* \"#utility.yul\":3419:3428   */\n      dup4\n        /* \"#utility.yul\":3415:3432   */\n      add\n        /* \"#utility.yul\":3406:3412   */\n      dup5\n        /* \"#utility.yul\":3368:3433   */\n      tag_279\n      jump\t// in\n    tag_349:\n        /* \"#utility.yul\":3230:3440   */\n      swap3\n      swap2\n      pop\n      pop\n      jump\t// out\n        /* \"#utility.yul\":3446:3564   */\n    tag_280:\n        /* \"#utility.yul\":3533:3557   */\n      tag_351\n        /* \"#utility.yul\":3551:3556   */\n      dup2\n        /* \"#utility.yul\":3533:3557   */\n      tag_275\n      jump\t// in\n    tag_351:\n        /* \"#utility.yul\":3528:3531   */\n      dup3\n        /* \"#utility.yul\":3521:3558   */\n      mstore\n        /* \"#utility.yul\":3446:3564   */\n      pop\n      pop\n      jump\t// out\n        /* \"#utility.yul\":3570:3792   */\n    tag_34:\n        /* \"#utility.yul\":3663:3667   */\n      0x00\n        /* \"#utility.yul\":3701:3703   */\n      0x20\n        /* \"#utility.yul\":3690:3699   */\n      dup3\n        /* \"#utility.yul\":3686:3704   */\n      add\n        /* \"#utility.yul\":3678:3704   */\n      swap1\n      pop\n        /* \"#utility.yul\":3714:3785   */\n      tag_353\n        /* \"#utility.yul\":3782:3783   */\n      0x00\n        /* \"#utility.yul\":3771:3780   */\n      dup4\n        /* \"#utility.yul\":3767:3784   */\n      add\n        /* \"#utility.yul\":3758:3764   */\n      dup5\n        /* \"#utility.yul\":3714:3785   */\n      tag_280\n      jump\t// in\n    tag_353:\n        /* \"#utility.yul\":3570:3792   */\n      swap3\n      swap2\n      pop\n      pop\n      jump\t// out\n        /* \"#utility.yul\":3798:4417   */\n    tag_39:\n        /* \"#utility.yul\":3875:3881   */\n      0x00\n        /* \"#utility.yul\":3883:3889   */\n      dup1\n        /* \"#utility.yul\":3891:3897   */\n      0x00\n        /* \"#utility.yul\":3940:3942   */\n      0x60\n        /* \"#utility.yul\":3928:3937   */\n      dup5\n        /* \"#utility.yul\":3919:3926   */\n      dup7\n        /* \"#utility.yul\":3915:3938   */\n      sub\n        /* \"#utility.yul\":3911:3943   */\n      slt\n        /* \"#utility.yul\":3908:4027   */\n      iszero\n      tag_355\n      jumpi\n        /* \"#utility.yul\":3946:4025   */\n      tag_356\n      tag_269\n      jump\t// in\n    tag_356:\n        /* \"#utility.yul\":3908:4027   */\n    tag_355:\n        /* \"#utility.yul\":4066:4067   */\n      0x00\n        /* \"#utility.yul\":4091:4144   */\n      tag_357\n        /* \"#utility.yul\":4136:4143   */\n      dup7\n        /* \"#utility.yul\":4127:4133   */\n      dup3\n        /* \"#utility.yul\":4116:4125   */\n      dup8\n        /* \"#utility.yul\":4112:4134   */\n      add\n        /* \"#utility.yul\":4091:4144   */\n      tag_274\n      jump\t// in\n    tag_357:\n        /* \"#utility.yul\":4081:4144   */\n      swap4\n      pop\n        /* \"#utility.yul\":4037:4154   */\n      pop\n        /* \"#utility.yul\":4193:4195   */\n      0x20\n        /* \"#utility.yul\":4219:4272   */\n      tag_358\n        /* \"#utility.yul\":4264:4271   */\n      dup7\n        /* \"#utility.yul\":4255:4261   */\n      dup3\n        /* \"#utility.yul\":4244:4253   */\n      dup8\n        /* \"#utility.yul\":4240:4262   */\n      add\n        /* \"#utility.yul\":4219:4272   */\n      tag_274\n      jump\t// in\n    tag_358:\n        /* \"#utility.yul\":4209:4272   */\n      swap3\n      pop\n        /* \"#utility.yul\":4164:4282   */\n      pop\n        /* \"#utility.yul\":4321:4323   */\n      0x40\n        /* \"#utility.yul\":4347:4400   */\n      tag_359\n        /* \"#utility.yul\":4392:4399   */\n      dup7\n        /* \"#utility.yul\":4383:4389   */\n      dup3\n        /* \"#utility.yul\":4372:4381   */\n      dup8\n        /* \"#utility.yul\":4368:4390   */\n      add\n        /* \"#utility.yul\":4347:4400   */\n      tag_277\n      jump\t// in\n    tag_359:\n        /* \"#utility.yul\":4337:4400   */\n      swap2\n      pop\n        /* \"#utility.yul\":4292:4410   */\n      pop\n        /* \"#utility.yul\":3798:4417   */\n      swap3\n      pop\n      swap3\n      pop\n      swap3\n      jump\t// out\n        /* \"#utility.yul\":4423:4509   */\n    tag_281:\n        /* \"#utility.yul\":4458:4465   */\n      0x00\n        /* \"#utility.yul\":4498:4502   */\n      0xff\n        /* \"#utility.yul\":4491:4496   */\n      dup3\n        /* \"#utility.yul\":4487:4503   */\n      and\n        /* \"#utility.yul\":4476:4503   */\n      swap1\n      pop\n        /* \"#utility.yul\":4423:4509   */\n      swap2\n      swap1\n      pop\n      jump\t// out\n        /* \"#utility.yul\":4515:4627   */\n    tag_282:\n        /* \"#utility.yul\":4598:4620   */\n      tag_362\n        /* \"#utility.yul\":4614:4619   */\n      dup2\n        /* \"#utility.yul\":4598:4620   */\n      tag_281\n      jump\t// in\n    tag_362:\n        /* \"#utility.yul\":4593:4596   */\n      dup3\n        /* \"#utility.yul\":4586:4621   */\n      mstore\n        /* \"#utility.yul\":4515:4627   */\n      pop\n      pop\n      jump\t// out\n        /* \"#utility.yul\":4633:4847   */\n    tag_45:\n        /* \"#utility.yul\":4722:4726   */\n      0x00\n        /* \"#utility.yul\":4760:4762   */\n      0x20\n        /* \"#utility.yul\":4749:4758   */\n      dup3\n        /* \"#utility.yul\":4745:4763   */\n      add\n        /* \"#utility.yul\":4737:4763   */\n      swap1\n      pop\n        /* \"#utility.yul\":4773:4840   */\n      tag_364\n        /* \"#utility.yul\":4837:4838   */\n      0x00\n        /* \"#utility.yul\":4826:4835   */\n      dup4\n        /* \"#utility.yul\":4822:4839   */\n      add\n        /* \"#utility.yul\":4813:4819   */\n      dup5\n        /* \"#utility.yul\":4773:4840   */\n      tag_282\n      jump\t// in\n    tag_364:\n        /* \"#utility.yul\":4633:4847   */\n      swap3\n      swap2\n      pop\n      pop\n      jump\t// out\n        /* \"#utility.yul\":4853:4971   */\n    tag_283:\n        /* \"#utility.yul\":4940:4964   */\n      tag_366\n        /* \"#utility.yul\":4958:4963   */\n      dup2\n        /* \"#utility.yul\":4940:4964   */\n      tag_272\n      jump\t// in\n    tag_366:\n        /* \"#utility.yul\":4935:4938   */\n      dup3\n        /* \"#utility.yul\":4928:4965   */\n      mstore\n        /* \"#utility.yul\":4853:4971   */\n      pop\n      pop\n      jump\t// out\n        /* \"#utility.yul\":4977:5199   */\n    tag_49:\n        /* \"#utility.yul\":5070:5074   */\n      0x00\n        /* \"#utility.yul\":5108:5110   */\n      0x20\n        /* \"#utility.yul\":5097:5106   */\n      dup3\n        /* \"#utility.yul\":5093:5111   */\n      add\n        /* \"#utility.yul\":5085:5111   */\n      swap1\n      pop\n        /* \"#utility.yul\":5121:5192   */\n      tag_368\n        /* \"#utility.yul\":5189:5190   */\n      0x00\n        /* \"#utility.yul\":5178:5187   */\n      dup4\n        /* \"#utility.yul\":5174:5191   */\n      add\n        /* \"#utility.yul\":5165:5171   */\n      dup5\n        /* \"#utility.yul\":5121:5192   */\n      tag_283\n      jump\t// in\n    tag_368:\n        /* \"#utility.yul\":4977:5199   */\n      swap3\n      swap2\n      pop\n      pop\n      jump\t// out\n        /* \"#utility.yul\":5205:5534   */\n    tag_52:\n        /* \"#utility.yul\":5264:5270   */\n      0x00\n        /* \"#utility.yul\":5313:5315   */\n      0x20\n        /* \"#utility.yul\":5301:5310   */\n      dup3\n        /* \"#utility.yul\":5292:5299   */\n      dup5\n        /* \"#utility.yul\":5288:5311   */\n      sub\n        /* \"#utility.yul\":5284:5316   */\n      slt\n        /* \"#utility.yul\":5281:5400   */\n      iszero\n      tag_370\n      jumpi\n        /* \"#utility.yul\":5319:5398   */\n      tag_371\n      tag_269\n      jump\t// in\n    tag_371:\n        /* \"#utility.yul\":5281:5400   */\n    tag_370:\n        /* \"#utility.yul\":5439:5440   */\n      0x00\n        /* \"#utility.yul\":5464:5517   */\n      tag_372\n        /* \"#utility.yul\":5509:5516   */\n      dup5\n        /* \"#utility.yul\":5500:5506   */\n      dup3\n        /* \"#utility.yul\":5489:5498   */\n      dup6\n        /* \"#utility.yul\":5485:5507   */\n      add\n        /* \"#utility.yul\":5464:5517   */\n      tag_274\n      jump\t// in\n    tag_372:\n        /* \"#utility.yul\":5454:5517   */\n      swap2\n      pop\n        /* \"#utility.yul\":5410:5527   */\n      pop\n        /* \"#utility.yul\":5205:5534   */\n      swap3\n      swap2\n      pop\n      pop\n      jump\t// out\n        /* \"#utility.yul\":5540:5869   */\n    tag_69:\n        /* \"#utility.yul\":5599:5605   */\n      0x00\n        /* \"#utility.yul\":5648:5650   */\n      0x20\n        /* \"#utility.yul\":5636:5645   */\n      dup3\n        /* \"#utility.yul\":5627:5634   */\n      dup5\n        /* \"#utility.yul\":5623:5646   */\n      sub\n        /* \"#utility.yul\":5619:5651   */\n      slt\n        /* \"#utility.yul\":5616:5735   */\n      iszero\n      tag_374\n      jumpi\n        /* \"#utility.yul\":5654:5733   */\n      tag_375\n      tag_269\n      jump\t// in\n    tag_375:\n        /* \"#utility.yul\":5616:5735   */\n    tag_374:\n        /* \"#utility.yul\":5774:5775   */\n      0x00\n        /* \"#utility.yul\":5799:5852   */\n      tag_376\n        /* \"#utility.yul\":5844:5851   */\n      dup5\n        /* \"#utility.yul\":5835:5841   */\n      dup3\n        /* \"#utility.yul\":5824:5833   */\n      dup6\n        /* \"#utility.yul\":5820:5842   */\n      add\n        /* \"#utility.yul\":5799:5852   */\n      tag_277\n      jump\t// in\n    tag_376:\n        /* \"#utility.yul\":5789:5852   */\n      swap2\n      pop\n        /* \"#utility.yul\":5745:5862   */\n      pop\n        /* \"#utility.yul\":5540:5869   */\n      swap3\n      swap2\n      pop\n      pop\n      jump\t// out\n        /* \"#utility.yul\":5875:6349   */\n    tag_76:\n        /* \"#utility.yul\":5943:5949   */\n      0x00\n        /* \"#utility.yul\":5951:5957   */\n      dup1\n        /* \"#utility.yul\":6000:6002   */\n      0x40\n        /* \"#utility.yul\":5988:5997   */\n      dup4\n        /* \"#utility.yul\":5979:5986   */\n      dup6\n        /* \"#utility.yul\":5975:5998   */\n      sub\n        /* \"#utility.yul\":5971:6003   */\n      slt\n        /* \"#utility.yul\":5968:6087   */\n      iszero\n      tag_378\n      jumpi\n        /* \"#utility.yul\":6006:6085   */\n      tag_379\n      tag_269\n      jump\t// in\n    tag_379:\n        /* \"#utility.yul\":5968:6087   */\n    tag_378:\n        /* \"#utility.yul\":6126:6127   */\n      0x00\n        /* \"#utility.yul\":6151:6204   */\n      tag_380\n        /* \"#utility.yul\":6196:6203   */\n      dup6\n        /* \"#utility.yul\":6187:6193   */\n      dup3\n        /* \"#utility.yul\":6176:6185   */\n      dup7\n        /* \"#utility.yul\":6172:6194   */\n      add\n        /* \"#utility.yul\":6151:6204   */\n      tag_274\n      jump\t// in\n    tag_380:\n        /* \"#utility.yul\":6141:6204   */\n      swap3\n      pop\n        /* \"#utility.yul\":6097:6214   */\n      pop\n        /* \"#utility.yul\":6253:6255   */\n      0x20\n        /* \"#utility.yul\":6279:6332   */\n      tag_381\n        /* \"#utility.yul\":6324:6331   */\n      dup6\n        /* \"#utility.yul\":6315:6321   */\n      dup3\n        /* \"#utility.yul\":6304:6313   */\n      dup7\n        /* \"#utility.yul\":6300:6322   */\n      add\n        /* \"#utility.yul\":6279:6332   */\n      tag_274\n      jump\t// in\n    tag_381:\n        /* \"#utility.yul\":6269:6332   */\n      swap2\n      pop\n        /* \"#utility.yul\":6224:6342   */\n      pop\n        /* \"#utility.yul\":5875:6349   */\n      swap3\n      pop\n      swap3\n      swap1\n      pop\n      jump\t// out\n        /* \"#utility.yul\":6355:6535   */\n    tag_284:\n        /* \"#utility.yul\":6403:6480   */\n      0x4e487b7100000000000000000000000000000000000000000000000000000000\n        /* \"#utility.yul\":6400:6401   */\n      0x00\n        /* \"#utility.yul\":6393:6481   */\n      mstore\n        /* \"#utility.yul\":6500:6504   */\n      0x22\n        /* \"#utility.yul\":6497:6498   */\n      0x04\n        /* \"#utility.yul\":6490:6505   */\n      mstore\n        /* \"#utility.yul\":6524:6528   */\n      0x24\n        /* \"#utility.yul\":6521:6522   */\n      0x00\n        /* \"#utility.yul\":6514:6529   */\n      revert\n        /* \"#utility.yul\":6541:6861   */\n    tag_81:\n        /* \"#utility.yul\":6585:6591   */\n      0x00\n        /* \"#utility.yul\":6622:6623   */\n      0x02\n        /* \"#utility.yul\":6616:6620   */\n      dup3\n        /* \"#utility.yul\":6612:6624   */\n      div\n        /* \"#utility.yul\":6602:6624   */\n      swap1\n      pop\n        /* \"#utility.yul\":6669:6670   */\n      0x01\n        /* \"#utility.yul\":6663:6667   */\n      dup3\n        /* \"#utility.yul\":6659:6671   */\n      and\n        /* \"#utility.yul\":6690:6708   */\n      dup1\n        /* \"#utility.yul\":6680:6761   */\n      tag_384\n      jumpi\n        /* \"#utility.yul\":6746:6750   */\n      0x7f\n        /* \"#utility.yul\":6738:6744   */\n      dup3\n        /* \"#utility.yul\":6734:6751   */\n      and\n        /* \"#utility.yul\":6724:6751   */\n      swap2\n      pop\n        /* \"#utility.yul\":6680:6761   */\n    tag_384:\n        /* \"#utility.yul\":6808:6810   */\n      0x20\n        /* \"#utility.yul\":6800:6806   */\n      dup3\n        /* \"#utility.yul\":6797:6811   */\n      lt\n        /* \"#utility.yul\":6777:6795   */\n      dup2\n        /* \"#utility.yul\":6774:6812   */\n      sub\n        /* \"#utility.yul\":6771:6855   */\n      tag_385\n      jumpi\n        /* \"#utility.yul\":6827:6845   */\n      tag_386\n      tag_284\n      jump\t// in\n    tag_386:\n        /* \"#utility.yul\":6771:6855   */\n    tag_385:\n        /* \"#utility.yul\":6592:6861   */\n      pop\n        /* \"#utility.yul\":6541:6861   */\n      swap2\n      swap1\n      pop\n      jump\t// out\n        /* \"#utility.yul\":6867:7035   */\n    tag_285:\n        /* \"#utility.yul\":7007:7027   */\n      0x47616d65206c6f6262792069732066756c6c0000000000000000000000000000\n        /* \"#utility.yul\":7003:7004   */\n      0x00\n        /* \"#utility.yul\":6995:7001   */\n      dup3\n        /* \"#utility.yul\":6991:7005   */\n      add\n        /* \"#utility.yul\":6984:7028   */\n      mstore\n        /* \"#utility.yul\":6867:7035   */\n      pop\n      jump\t// out\n        /* \"#utility.yul\":7041:7407   */\n    tag_286:\n        /* \"#utility.yul\":7183:7186   */\n      0x00\n        /* \"#utility.yul\":7204:7271   */\n      tag_389\n        /* \"#utility.yul\":7268:7270   */\n      0x12\n        /* \"#utility.yul\":7263:7266   */\n      dup4\n        /* \"#utility.yul\":7204:7271   */\n      tag_264\n      jump\t// in\n    tag_389:\n        /* \"#utility.yul\":7197:7271   */\n      swap2\n      pop\n        /* \"#utility.yul\":7280:7373   */\n      tag_390\n        /* \"#utility.yul\":7369:7372   */\n      dup3\n        /* \"#utility.yul\":7280:7373   */\n      tag_285\n      jump\t// in\n    tag_390:\n        /* \"#utility.yul\":7398:7400   */\n      0x20\n        /* \"#utility.yul\":7393:7396   */\n      dup3\n        /* \"#utility.yul\":7389:7401   */\n      add\n        /* \"#utility.yul\":7382:7401   */\n      swap1\n      pop\n        /* \"#utility.yul\":7041:7407   */\n      swap2\n      swap1\n      pop\n      jump\t// out\n        /* \"#utility.yul\":7413:7832   */\n    tag_96:\n        /* \"#utility.yul\":7579:7583   */\n      0x00\n        /* \"#utility.yul\":7617:7619   */\n      0x20\n        /* \"#utility.yul\":7606:7615   */\n      dup3\n        /* \"#utility.yul\":7602:7620   */\n      add\n        /* \"#utility.yul\":7594:7620   */\n      swap1\n      pop\n        /* \"#utility.yul\":7666:7675   */\n      dup2\n        /* \"#utility.yul\":7660:7664   */\n      dup2\n        /* \"#utility.yul\":7656:7676   */\n      sub\n        /* \"#utility.yul\":7652:7653   */\n      0x00\n        /* \"#utility.yul\":7641:7650   */\n      dup4\n        /* \"#utility.yul\":7637:7654   */\n      add\n        /* \"#utility.yul\":7630:7677   */\n      mstore\n        /* \"#utility.yul\":7694:7825   */\n      tag_392\n        /* \"#utility.yul\":7820:7824   */\n      dup2\n        /* \"#utility.yul\":7694:7825   */\n      tag_286\n      jump\t// in\n    tag_392:\n        /* \"#utility.yul\":7686:7825   */\n      swap1\n      pop\n        /* \"#utility.yul\":7413:7832   */\n      swap2\n      swap1\n      pop\n      jump\t// out\n        /* \"#utility.yul\":7838:8060   */\n    tag_287:\n        /* \"#utility.yul\":7978:8012   */\n      0x596f7520646f206e6f74206861766520656e6f756768206d6f6e657920746f20\n        /* \"#utility.yul\":7974:7975   */\n      0x00\n        /* \"#utility.yul\":7966:7972   */\n      dup3\n        /* \"#utility.yul\":7962:7976   */\n      add\n        /* \"#utility.yul\":7955:8013   */\n      mstore\n        /* \"#utility.yul\":8047:8052   */\n      0x6265740000000000000000000000000000000000000000000000000000000000\n        /* \"#utility.yul\":8042:8044   */\n      0x20\n        /* \"#utility.yul\":8034:8040   */\n      dup3\n        /* \"#utility.yul\":8030:8045   */\n      add\n        /* \"#utility.yul\":8023:8053   */\n      mstore\n        /* \"#utility.yul\":7838:8060   */\n      pop\n      jump\t// out\n        /* \"#utility.yul\":8066:8432   */\n    tag_288:\n        /* \"#utility.yul\":8208:8211   */\n      0x00\n        /* \"#utility.yul\":8229:8296   */\n      tag_395\n        /* \"#utility.yul\":8293:8295   */\n      0x23\n        /* \"#utility.yul\":8288:8291   */\n      dup4\n        /* \"#utility.yul\":8229:8296   */\n      tag_264\n      jump\t// in\n    tag_395:\n        /* \"#utility.yul\":8222:8296   */\n      swap2\n      pop\n        /* \"#utility.yul\":8305:8398   */\n      tag_396\n        /* \"#utility.yul\":8394:8397   */\n      dup3\n        /* \"#utility.yul\":8305:8398   */\n      tag_287\n      jump\t// in\n    tag_396:\n        /* \"#utility.yul\":8423:8425   */\n      0x40\n        /* \"#utility.yul\":8418:8421   */\n      dup3\n        /* \"#utility.yul\":8414:8426   */\n      add\n        /* \"#utility.yul\":8407:8426   */\n      swap1\n      pop\n        /* \"#utility.yul\":8066:8432   */\n      swap2\n      swap1\n      pop\n      jump\t// out\n        /* \"#utility.yul\":8438:8857   */\n    tag_100:\n        /* \"#utility.yul\":8604:8608   */\n      0x00\n        /* \"#utility.yul\":8642:8644   */\n      0x20\n        /* \"#utility.yul\":8631:8640   */\n      dup3\n        /* \"#utility.yul\":8627:8645   */\n      add\n        /* \"#utility.yul\":8619:8645   */\n      swap1\n      pop\n        /* \"#utility.yul\":8691:8700   */\n      dup2\n        /* \"#utility.yul\":8685:8689   */\n      dup2\n        /* \"#utility.yul\":8681:8701   */\n      sub\n        /* \"#utility.yul\":8677:8678   */\n      0x00\n        /* \"#utility.yul\":8666:8675   */\n      dup4\n        /* \"#utility.yul\":8662:8679   */\n      add\n        /* \"#utility.yul\":8655:8702   */\n      mstore\n        /* \"#utility.yul\":8719:8850   */\n      tag_398\n        /* \"#utility.yul\":8845:8849   */\n      dup2\n        /* \"#utility.yul\":8719:8850   */\n      tag_288\n      jump\t// in\n    tag_398:\n        /* \"#utility.yul\":8711:8850   */\n      swap1\n      pop\n        /* \"#utility.yul\":8438:8857   */\n      swap2\n      swap1\n      pop\n      jump\t// out\n        /* \"#utility.yul\":8863:9043   */\n    tag_289:\n        /* \"#utility.yul\":8911:8988   */\n      0x4e487b7100000000000000000000000000000000000000000000000000000000\n        /* \"#utility.yul\":8908:8909   */\n      0x00\n        /* \"#utility.yul\":8901:8989   */\n      mstore\n        /* \"#utility.yul\":9008:9012   */\n      0x41\n        /* \"#utility.yul\":9005:9006   */\n      0x04\n        /* \"#utility.yul\":8998:9013   */\n      mstore\n        /* \"#utility.yul\":9032:9036   */\n      0x24\n        /* \"#utility.yul\":9029:9030   */\n      0x00\n        /* \"#utility.yul\":9022:9037   */\n      revert\n        /* \"#utility.yul\":9049:9190   */\n    tag_290:\n        /* \"#utility.yul\":9098:9102   */\n      0x00\n        /* \"#utility.yul\":9121:9124   */\n      dup2\n        /* \"#utility.yul\":9113:9124   */\n      swap1\n      pop\n        /* \"#utility.yul\":9144:9147   */\n      dup2\n        /* \"#utility.yul\":9141:9142   */\n      0x00\n        /* \"#utility.yul\":9134:9148   */\n      mstore\n        /* \"#utility.yul\":9178:9182   */\n      0x20\n        /* \"#utility.yul\":9175:9176   */\n      0x00\n        /* \"#utility.yul\":9165:9183   */\n      keccak256\n        /* \"#utility.yul\":9157:9183   */\n      swap1\n      pop\n        /* \"#utility.yul\":9049:9190   */\n      swap2\n      swap1\n      pop\n      jump\t// out\n        /* \"#utility.yul\":9196:9289   */\n    tag_291:\n        /* \"#utility.yul\":9233:9239   */\n      0x00\n        /* \"#utility.yul\":9280:9282   */\n      0x20\n        /* \"#utility.yul\":9275:9277   */\n      0x1f\n        /* \"#utility.yul\":9268:9273   */\n      dup4\n        /* \"#utility.yul\":9264:9278   */\n      add\n        /* \"#utility.yul\":9260:9283   */\n      div\n        /* \"#utility.yul\":9250:9283   */\n      swap1\n      pop\n        /* \"#utility.yul\":9196:9289   */\n      swap2\n      swap1\n      pop\n      jump\t// out\n        /* \"#utility.yul\":9295:9402   */\n    tag_292:\n        /* \"#utility.yul\":9339:9347   */\n      0x00\n        /* \"#utility.yul\":9389:9394   */\n      dup3\n        /* \"#utility.yul\":9383:9387   */\n      dup3\n        /* \"#utility.yul\":9379:9395   */\n      shl\n        /* \"#utility.yul\":9358:9395   */\n      swap1\n      pop\n        /* \"#utility.yul\":9295:9402   */\n      swap3\n      swap2\n      pop\n      pop\n      jump\t// out\n        /* \"#utility.yul\":9408:9801   */\n    tag_293:\n        /* \"#utility.yul\":9477:9483   */\n      0x00\n        /* \"#utility.yul\":9527:9528   */\n      0x08\n        /* \"#utility.yul\":9515:9525   */\n      dup4\n        /* \"#utility.yul\":9511:9529   */\n      mul\n        /* \"#utility.yul\":9550:9647   */\n      tag_404\n        /* \"#utility.yul\":9580:9646   */\n      0xffffffffffffffffffffffffffffffffffffffffffffffffffffffffffffffff\n        /* \"#utility.yul\":9569:9578   */\n      dup3\n        /* \"#utility.yul\":9550:9647   */\n      tag_292\n      jump\t// in\n    tag_404:\n        /* \"#utility.yul\":9668:9707   */\n      tag_405\n        /* \"#utility.yul\":9698:9706   */\n      dup7\n        /* \"#utility.yul\":9687:9696   */\n      dup4\n        /* \"#utility.yul\":9668:9707   */\n      tag_292\n      jump\t// in\n    tag_405:\n        /* \"#utility.yul\":9656:9707   */\n      swap6\n      pop\n        /* \"#utility.yul\":9740:9744   */\n      dup1\n        /* \"#utility.yul\":9736:9745   */\n      not\n        /* \"#utility.yul\":9729:9734   */\n      dup5\n        /* \"#utility.yul\":9725:9746   */\n      and\n        /* \"#utility.yul\":9716:9746   */\n      swap4\n      pop\n        /* \"#utility.yul\":9789:9793   */\n      dup1\n        /* \"#utility.yul\":9779:9787   */\n      dup7\n        /* \"#utility.yul\":9775:9794   */\n      and\n        /* \"#utility.yul\":9768:9773   */\n      dup5\n        /* \"#utility.yul\":9765:9795   */\n      or\n        /* \"#utility.yul\":9755:9795   */\n      swap3\n      pop\n        /* \"#utility.yul\":9484:9801   */\n      pop\n      pop\n        /* \"#utility.yul\":9408:9801   */\n      swap4\n      swap3\n      pop\n      pop\n      pop\n      jump\t// out\n        /* \"#utility.yul\":9807:9867   */\n    tag_294:\n        /* \"#utility.yul\":9835:9838   */\n      0x00\n        /* \"#utility.yul\":9856:9861   */\n      dup2\n        /* \"#utility.yul\":9849:9861   */\n      swap1\n      pop\n        /* \"#utility.yul\":9807:9867   */\n      swap2\n      swap1\n      pop\n      jump\t// out\n        /* \"#utility.yul\":9873:10015   */\n    tag_295:\n        /* \"#utility.yul\":9923:9932   */\n      0x00\n        /* \"#utility.yul\":9956:10009   */\n      tag_408\n        /* \"#utility.yul\":9974:10008   */\n      tag_409\n        /* \"#utility.yul\":9983:10007   */\n      tag_410\n        /* \"#utility.yul\":10001:10006   */\n      dup5\n        /* \"#utility.yul\":9983:10007   */\n      tag_275\n      jump\t// in\n    tag_410:\n        /* \"#utility.yul\":9974:10008   */\n      tag_294\n      jump\t// in\n    tag_409:\n        /* \"#utility.yul\":9956:10009   */\n      tag_275\n      jump\t// in\n    tag_408:\n        /* \"#utility.yul\":9943:10009   */\n      swap1\n      pop\n        /* \"#utility.yul\":9873:10015   */\n      swap2\n      swap1\n      pop\n      jump\t// out\n        /* \"#utility.yul\":10021:10096   */\n    tag_296:\n        /* \"#utility.yul\":10064:10067   */\n      0x00\n        /* \"#utility.yul\":10085:10090   */\n      dup2\n        /* \"#utility.yul\":10078:10090   */\n      swap1\n      pop\n        /* \"#utility.yul\":10021:10096   */\n      swap2\n      swap1\n      pop\n      jump\t// out\n        /* \"#utility.yul\":10102:10371   */\n    tag_297:\n        /* \"#utility.yul\":10212:10251   */\n      tag_413\n        /* \"#utility.yul\":10243:10250   */\n      dup4\n        /* \"#utility.yul\":10212:10251   */\n      tag_295\n      jump\t// in\n    tag_413:\n        /* \"#utility.yul\":10273:10364   */\n      tag_414\n        /* \"#utility.yul\":10322:10363   */\n      tag_415\n        /* \"#utility.yul\":10346:10362   */\n      dup3\n        /* \"#utility.yul\":10322:10363   */\n      tag_296\n      jump\t// in\n    tag_415:\n        /* \"#utility.yul\":10314:10320   */\n      dup5\n        /* \"#utility.yul\":10307:10311   */\n      dup5\n        /* \"#utility.yul\":10301:10312   */\n      sload\n        /* \"#utility.yul\":10273:10364   */\n      tag_293\n      jump\t// in\n    tag_414:\n        /* \"#utility.yul\":10267:10271   */\n      dup3\n        /* \"#utility.yul\":10260:10365   */\n      sstore\n        /* \"#utility.yul\":10178:10371   */\n      pop\n        /* \"#utility.yul\":10102:10371   */\n      pop\n      pop\n      pop\n      jump\t// out\n        /* \"#utility.yul\":10377:10450   */\n    tag_298:\n        /* \"#utility.yul\":10422:10425   */\n      0x00\n        /* \"#utility.yul\":10377:10450   */\n      swap1\n      jump\t// out\n        /* \"#utility.yul\":10456:10645   */\n    tag_299:\n        /* \"#utility.yul\":10533:10565   */\n      tag_418\n      tag_298\n      jump\t// in\n    tag_418:\n        /* \"#utility.yul\":10574:10639   */\n      tag_419\n        /* \"#utility.yul\":10632:10638   */\n      dup2\n        /* \"#utility.yul\":10624:10630   */\n      dup5\n        /* \"#utility.yul\":10618:10622   */\n      dup5\n        /* \"#utility.yul\":10574:10639   */\n      tag_297\n      jump\t// in\n    tag_419:\n        /* \"#utility.yul\":10509:10645   */\n      pop\n        /* \"#utility.yul\":10456:10645   */\n      pop\n      pop\n      jump\t// out\n        /* \"#utility.yul\":10651:10837   */\n    tag_300:\n        /* \"#utility.yul\":10711:10831   */\n    tag_421:\n        /* \"#utility.yul\":10728:10731   */\n      dup2\n        /* \"#utility.yul\":10721:10726   */\n      dup2\n        /* \"#utility.yul\":10718:10732   */\n      lt\n        /* \"#utility.yul\":10711:10831   */\n      iszero\n      tag_423\n      jumpi\n        /* \"#utility.yul\":10782:10821   */\n      tag_424\n        /* \"#utility.yul\":10819:10820   */\n      0x00\n        /* \"#utility.yul\":10812:10817   */\n      dup3\n        /* \"#utility.yul\":10782:10821   */\n      tag_299\n      jump\t// in\n    tag_424:\n        /* \"#utility.yul\":10755:10756   */\n      0x01\n        /* \"#utility.yul\":10748:10753   */\n      dup2\n        /* \"#utility.yul\":10744:10757   */\n      add\n        /* \"#utility.yul\":10735:10757   */\n      swap1\n      pop\n        /* \"#utility.yul\":10711:10831   */\n      jump(tag_421)\n    tag_423:\n        /* \"#utility.yul\":10651:10837   */\n      pop\n      pop\n      jump\t// out\n        /* \"#utility.yul\":10843:11386   */\n    tag_301:\n        /* \"#utility.yul\":10944:10946   */\n      0x1f\n        /* \"#utility.yul\":10939:10942   */\n      dup3\n        /* \"#utility.yul\":10936:10947   */\n      gt\n        /* \"#utility.yul\":10933:11379   */\n      iszero\n      tag_426\n      jumpi\n        /* \"#utility.yul\":10978:11016   */\n      tag_427\n        /* \"#utility.yul\":11010:11015   */\n      dup2\n        /* \"#utility.yul\":10978:11016   */\n      tag_290\n      jump\t// in\n    tag_427:\n        /* \"#utility.yul\":11062:11091   */\n      tag_428\n        /* \"#utility.yul\":11080:11090   */\n      dup5\n        /* \"#utility.yul\":11062:11091   */\n      tag_291\n      jump\t// in\n    tag_428:\n        /* \"#utility.yul\":11052:11060   */\n      dup2\n        /* \"#utility.yul\":11048:11092   */\n      add\n        /* \"#utility.yul\":11245:11247   */\n      0x20\n        /* \"#utility.yul\":11233:11243   */\n      dup6\n        /* \"#utility.yul\":11230:11248   */\n      lt\n        /* \"#utility.yul\":11227:11276   */\n      iszero\n      tag_429\n      jumpi\n        /* \"#utility.yul\":11266:11274   */\n      dup2\n        /* \"#utility.yul\":11251:11274   */\n      swap1\n      pop\n        /* \"#utility.yul\":11227:11276   */\n    tag_429:\n        /* \"#utility.yul\":11289:11369   */\n      tag_430\n        /* \"#utility.yul\":11345:11367   */\n      tag_431\n        /* \"#utility.yul\":11363:11366   */\n      dup6\n        /* \"#utility.yul\":11345:11367   */\n      tag_291\n      jump\t// in\n    tag_431:\n        /* \"#utility.yul\":11335:11343   */\n      dup4\n        /* \"#utility.yul\":11331:11368   */\n      add\n        /* \"#utility.yul\":11318:11329   */\n      dup3\n        /* \"#utility.yul\":11289:11369   */\n      tag_300\n      jump\t// in\n    tag_430:\n        /* \"#utility.yul\":10948:11379   */\n      pop\n      pop\n        /* \"#utility.yul\":10933:11379   */\n    tag_426:\n        /* \"#utility.yul\":10843:11386   */\n      pop\n      pop\n      pop\n      jump\t// out\n        /* \"#utility.yul\":11392:11509   */\n    tag_302:\n        /* \"#utility.yul\":11446:11454   */\n      0x00\n        /* \"#utility.yul\":11496:11501   */\n      dup3\n        /* \"#utility.yul\":11490:11494   */\n      dup3\n        /* \"#utility.yul\":11486:11502   */\n      shr\n        /* \"#utility.yul\":11465:11502   */\n      swap1\n      pop\n        /* \"#utility.yul\":11392:11509   */\n      swap3\n      swap2\n      pop\n      pop\n      jump\t// out\n        /* \"#utility.yul\":11515:11684   */\n    tag_303:\n        /* \"#utility.yul\":11559:11565   */\n      0x00\n        /* \"#utility.yul\":11592:11643   */\n      tag_434\n        /* \"#utility.yul\":11640:11641   */\n      0x00\n        /* \"#utility.yul\":11636:11642   */\n      not\n        /* \"#utility.yul\":11628:11633   */\n      dup5\n        /* \"#utility.yul\":11625:11626   */\n      0x08\n        /* \"#utility.yul\":11621:11634   */\n      mul\n        /* \"#utility.yul\":11592:11643   */\n      tag_302\n      jump\t// in\n    tag_434:\n        /* \"#utility.yul\":11588:11644   */\n      not\n        /* \"#utility.yul\":11673:11677   */\n      dup1\n        /* \"#utility.yul\":11667:11671   */\n      dup4\n        /* \"#utility.yul\":11663:11678   */\n      and\n        /* \"#utility.yul\":11653:11678   */\n      swap2\n      pop\n        /* \"#utility.yul\":11566:11684   */\n      pop\n        /* \"#utility.yul\":11515:11684   */\n      swap3\n      swap2\n      pop\n      pop\n      jump\t// out\n        /* \"#utility.yul\":11689:11984   */\n    tag_304:\n        /* \"#utility.yul\":11765:11769   */\n      0x00\n        /* \"#utility.yul\":11911:11940   */\n      tag_436\n        /* \"#utility.yul\":11936:11939   */\n      dup4\n        /* \"#utility.yul\":11930:11934   */\n      dup4\n        /* \"#utility.yul\":11911:11940   */\n      tag_303\n      jump\t// in\n    tag_436:\n        /* \"#utility.yul\":11903:11940   */\n      swap2\n      pop\n        /* \"#utility.yul\":11973:11976   */\n      dup3\n        /* \"#utility.yul\":11970:11971   */\n      0x02\n        /* \"#utility.yul\":11966:11977   */\n      mul\n        /* \"#utility.yul\":11960:11964   */\n      dup3\n        /* \"#utility.yul\":11957:11978   */\n      or\n        /* \"#utility.yul\":11949:11978   */\n      swap1\n      pop\n        /* \"#utility.yul\":11689:11984   */\n      swap3\n      swap2\n      pop\n      pop\n      jump\t// out\n        /* \"#utility.yul\":11989:13384   */\n    tag_103:\n        /* \"#utility.yul\":12106:12143   */\n      tag_438\n        /* \"#utility.yul\":12139:12142   */\n      dup3\n        /* \"#utility.yul\":12106:12143   */\n      tag_263\n      jump\t// in\n    tag_438:\n        /* \"#utility.yul\":12208:12226   */\n      0xffffffffffffffff\n        /* \"#utility.yul\":12200:12206   */\n      dup2\n        /* \"#utility.yul\":12197:12227   */\n      gt\n        /* \"#utility.yul\":12194:12250   */\n      iszero\n      tag_439\n      jumpi\n        /* \"#utility.yul\":12230:12248   */\n      tag_440\n      tag_289\n      jump\t// in\n    tag_440:\n        /* \"#utility.yul\":12194:12250   */\n    tag_439:\n        /* \"#utility.yul\":12274:12312   */\n      tag_441\n        /* \"#utility.yul\":12306:12310   */\n      dup3\n        /* \"#utility.yul\":12300:12311   */\n      sload\n        /* \"#utility.yul\":12274:12312   */\n      tag_81\n      jump\t// in\n    tag_441:\n        /* \"#utility.yul\":12359:12426   */\n      tag_442\n        /* \"#utility.yul\":12419:12425   */\n      dup3\n        /* \"#utility.yul\":12411:12417   */\n      dup3\n        /* \"#utility.yul\":12405:12409   */\n      dup6\n        /* \"#utility.yul\":12359:12426   */\n      tag_301\n      jump\t// in\n    tag_442:\n        /* \"#utility.yul\":12453:12454   */\n      0x00\n        /* \"#utility.yul\":12477:12481   */\n      0x20\n        /* \"#utility.yul\":12464:12481   */\n      swap1\n      pop\n        /* \"#utility.yul\":12509:12511   */\n      0x1f\n        /* \"#utility.yul\":12501:12507   */\n      dup4\n        /* \"#utility.yul\":12498:12512   */\n      gt\n        /* \"#utility.yul\":12526:12527   */\n      0x01\n        /* \"#utility.yul\":12521:13139   */\n      dup2\n      eq\n      tag_444\n      jumpi\n        /* \"#utility.yul\":13183:13184   */\n      0x00\n        /* \"#utility.yul\":13200:13206   */\n      dup5\n        /* \"#utility.yul\":13197:13274   */\n      iszero\n      tag_445\n      jumpi\n        /* \"#utility.yul\":13249:13258   */\n      dup3\n        /* \"#utility.yul\":13244:13247   */\n      dup8\n        /* \"#utility.yul\":13240:13259   */\n      add\n        /* \"#utility.yul\":13234:13260   */\n      mload\n        /* \"#utility.yul\":13225:13260   */\n      swap1\n      pop\n        /* \"#utility.yul\":13197:13274   */\n    tag_445:\n        /* \"#utility.yul\":13300:13367   */\n      tag_446\n        /* \"#utility.yul\":13360:13366   */\n      dup6\n        /* \"#utility.yul\":13353:13358   */\n      dup3\n        /* \"#utility.yul\":13300:13367   */\n      tag_304\n      jump\t// in\n    tag_446:\n        /* \"#utility.yul\":13294:13298   */\n      dup7\n        /* \"#utility.yul\":13287:13368   */\n      sstore\n        /* \"#utility.yul\":13156:13378   */\n      pop\n        /* \"#utility.yul\":12491:13378   */\n      jump(tag_443)\n        /* \"#utility.yul\":12521:13139   */\n    tag_444:\n        /* \"#utility.yul\":12573:12577   */\n      0x1f\n        /* \"#utility.yul\":12569:12578   */\n      not\n        /* \"#utility.yul\":12561:12567   */\n      dup5\n        /* \"#utility.yul\":12557:12579   */\n      and\n        /* \"#utility.yul\":12607:12644   */\n      tag_447\n        /* \"#utility.yul\":12639:12643   */\n      dup7\n        /* \"#utility.yul\":12607:12644   */\n      tag_290\n      jump\t// in\n    tag_447:\n        /* \"#utility.yul\":12666:12667   */\n      0x00\n        /* \"#utility.yul\":12680:12888   */\n    tag_448:\n        /* \"#utility.yul\":12694:12701   */\n      dup3\n        /* \"#utility.yul\":12691:12692   */\n      dup2\n        /* \"#utility.yul\":12688:12702   */\n      lt\n        /* \"#utility.yul\":12680:12888   */\n      iszero\n      tag_450\n      jumpi\n        /* \"#utility.yul\":12773:12782   */\n      dup5\n        /* \"#utility.yul\":12768:12771   */\n      dup10\n        /* \"#utility.yul\":12764:12783   */\n      add\n        /* \"#utility.yul\":12758:12784   */\n      mload\n        /* \"#utility.yul\":12750:12756   */\n      dup3\n        /* \"#utility.yul\":12743:12785   */\n      sstore\n        /* \"#utility.yul\":12824:12825   */\n      0x01\n        /* \"#utility.yul\":12816:12822   */\n      dup3\n        /* \"#utility.yul\":12812:12826   */\n      add\n        /* \"#utility.yul\":12802:12826   */\n      swap2\n      pop\n        /* \"#utility.yul\":12871:12873   */\n      0x20\n        /* \"#utility.yul\":12860:12869   */\n      dup6\n        /* \"#utility.yul\":12856:12874   */\n      add\n        /* \"#utility.yul\":12843:12874   */\n      swap5\n      pop\n        /* \"#utility.yul\":12717:12721   */\n      0x20\n        /* \"#utility.yul\":12714:12715   */\n      dup2\n        /* \"#utility.yul\":12710:12722   */\n      add\n        /* \"#utility.yul\":12705:12722   */\n      swap1\n      pop\n        /* \"#utility.yul\":12680:12888   */\n      jump(tag_448)\n    tag_450:\n        /* \"#utility.yul\":12916:12922   */\n      dup7\n        /* \"#utility.yul\":12907:12914   */\n      dup4\n        /* \"#utility.yul\":12904:12923   */\n      lt\n        /* \"#utility.yul\":12901:13080   */\n      iszero\n      tag_451\n      jumpi\n        /* \"#utility.yul\":12974:12983   */\n      dup5\n        /* \"#utility.yul\":12969:12972   */\n      dup10\n        /* \"#utility.yul\":12965:12984   */\n      add\n        /* \"#utility.yul\":12959:12985   */\n      mload\n        /* \"#utility.yul\":13017:13065   */\n      tag_452\n        /* \"#utility.yul\":13059:13063   */\n      0x1f\n        /* \"#utility.yul\":13051:13057   */\n      dup10\n        /* \"#utility.yul\":13047:13064   */\n      and\n        /* \"#utility.yul\":13036:13045   */\n      dup3\n        /* \"#utility.yul\":13017:13065   */\n      tag_303\n      jump\t// in\n    tag_452:\n        /* \"#utility.yul\":13009:13015   */\n      dup4\n        /* \"#utility.yul\":13002:13066   */\n      sstore\n        /* \"#utility.yul\":12924:13080   */\n      pop\n        /* \"#utility.yul\":12901:13080   */\n    tag_451:\n        /* \"#utility.yul\":13126:13127   */\n      0x01\n        /* \"#utility.yul\":13122:13123   */\n      0x02\n        /* \"#utility.yul\":13114:13120   */\n      dup9\n        /* \"#utility.yul\":13110:13124   */\n      mul\n        /* \"#utility.yul\":13106:13128   */\n      add\n        /* \"#utility.yul\":13100:13104   */\n      dup9\n        /* \"#utility.yul\":13093:13129   */\n      sstore\n        /* \"#utility.yul\":12528:13139   */\n      pop\n      pop\n      pop\n        /* \"#utility.yul\":12491:13378   */\n    tag_443:\n      pop\n        /* \"#utility.yul\":12081:13384   */\n      pop\n      pop\n      pop\n        /* \"#utility.yul\":11989:13384   */\n      pop\n      pop\n      jump\t// out\n        /* \"#utility.yul\":13390:13570   */\n    tag_127:\n        /* \"#utility.yul\":13438:13515   */\n      0x4e487b7100000000000000000000000000000000000000000000000000000000\n        /* \"#utility.yul\":13435:13436   */\n      0x00\n        /* \"#utility.yul\":13428:13516   */\n      mstore\n        /* \"#utility.yul\":13535:13539   */\n      0x21\n        /* \"#utility.yul\":13532:13533   */\n      0x04\n        /* \"#utility.yul\":13525:13540   */\n      mstore\n        /* \"#utility.yul\":13559:13563   */\n      0x24\n        /* \"#utility.yul\":13556:13557   */\n      0x00\n        /* \"#utility.yul\":13549:13564   */\n      revert\n        /* \"#utility.yul\":13576:13746   */\n    tag_305:\n        /* \"#utility.yul\":13716:13738   */\n      0x4e6f7420616e2061637469766520706c61796572000000000000000000000000\n        /* \"#utility.yul\":13712:13713   */\n      0x00\n        /* \"#utility.yul\":13704:13710   */\n      dup3\n        /* \"#utility.yul\":13700:13714   */\n      add\n        /* \"#utility.yul\":13693:13739   */\n      mstore\n        /* \"#utility.yul\":13576:13746   */\n      pop\n      jump\t// out\n        /* \"#utility.yul\":13752:14118   */\n    tag_306:\n        /* \"#utility.yul\":13894:13897   */\n      0x00\n        /* \"#utility.yul\":13915:13982   */\n      tag_456\n        /* \"#utility.yul\":13979:13981   */\n      0x14\n        /* \"#utility.yul\":13974:13977   */\n      dup4\n        /* \"#utility.yul\":13915:13982   */\n      tag_264\n      jump\t// in\n    tag_456:\n        /* \"#utility.yul\":13908:13982   */\n      swap2\n      pop\n        /* \"#utility.yul\":13991:14084   */\n      tag_457\n        /* \"#utility.yul\":14080:14083   */\n      dup3\n        /* \"#utility.yul\":13991:14084   */\n      tag_305\n      jump\t// in\n    tag_457:\n        /* \"#utility.yul\":14109:14111   */\n      0x20\n        /* \"#utility.yul\":14104:14107   */\n      dup3\n        /* \"#utility.yul\":14100:14112   */\n      add\n        /* \"#utility.yul\":14093:14112   */\n      swap1\n      pop\n        /* \"#utility.yul\":13752:14118   */\n      swap2\n      swap1\n      pop\n      jump\t// out\n        /* \"#utility.yul\":14124:14543   */\n    tag_167:\n        /* \"#utility.yul\":14290:14294   */\n      0x00\n        /* \"#utility.yul\":14328:14330   */\n      0x20\n        /* \"#utility.yul\":14317:14326   */\n      dup3\n        /* \"#utility.yul\":14313:14331   */\n      add\n        /* \"#utility.yul\":14305:14331   */\n      swap1\n      pop\n        /* \"#utility.yul\":14377:14386   */\n      dup2\n        /* \"#utility.yul\":14371:14375   */\n      dup2\n        /* \"#utility.yul\":14367:14387   */\n      sub\n        /* \"#utility.yul\":14363:14364   */\n      0x00\n        /* \"#utility.yul\":14352:14361   */\n      dup4\n        /* \"#utility.yul\":14348:14365   */\n      add\n        /* \"#utility.yul\":14341:14388   */\n      mstore\n        /* \"#utility.yul\":14405:14536   */\n      tag_459\n        /* \"#utility.yul\":14531:14535   */\n      dup2\n        /* \"#utility.yul\":14405:14536   */\n      tag_306\n      jump\t// in\n    tag_459:\n        /* \"#utility.yul\":14397:14536   */\n      swap1\n      pop\n        /* \"#utility.yul\":14124:14543   */\n      swap2\n      swap1\n      pop\n      jump\t// out\n        /* \"#utility.yul\":14549:14991   */\n    tag_201:\n        /* \"#utility.yul\":14698:14702   */\n      0x00\n        /* \"#utility.yul\":14736:14738   */\n      0x60\n        /* \"#utility.yul\":14725:14734   */\n      dup3\n        /* \"#utility.yul\":14721:14739   */\n      add\n        /* \"#utility.yul\":14713:14739   */\n      swap1\n      pop\n        /* \"#utility.yul\":14749:14820   */\n      tag_461\n        /* \"#utility.yul\":14817:14818   */\n      0x00\n        /* \"#utility.yul\":14806:14815   */\n      dup4\n        /* \"#utility.yul\":14802:14819   */\n      add\n        /* \"#utility.yul\":14793:14799   */\n      dup7\n        /* \"#utility.yul\":14749:14820   */\n      tag_283\n      jump\t// in\n    tag_461:\n        /* \"#utility.yul\":14830:14902   */\n      tag_462\n        /* \"#utility.yul\":14898:14900   */\n      0x20\n        /* \"#utility.yul\":14887:14896   */\n      dup4\n        /* \"#utility.yul\":14883:14901   */\n      add\n        /* \"#utility.yul\":14874:14880   */\n      dup6\n        /* \"#utility.yul\":14830:14902   */\n      tag_280\n      jump\t// in\n    tag_462:\n        /* \"#utility.yul\":14912:14984   */\n      tag_463\n        /* \"#utility.yul\":14980:14982   */\n      0x40\n        /* \"#utility.yul\":14969:14978   */\n      dup4\n        /* \"#utility.yul\":14965:14983   */\n      add\n        /* \"#utility.yul\":14956:14962   */\n      dup5\n        /* \"#utility.yul\":14912:14984   */\n      tag_280\n      jump\t// in\n    tag_463:\n        /* \"#utility.yul\":14549:14991   */\n      swap5\n      swap4\n      pop\n      pop\n      pop\n      pop\n      jump\t// out\n        /* \"#utility.yul\":14997:15177   */\n    tag_307:\n        /* \"#utility.yul\":15045:15122   */\n      0x4e487b7100000000000000000000000000000000000000000000000000000000\n        /* \"#utility.yul\":15042:15043   */\n      0x00\n        /* \"#utility.yul\":15035:15123   */\n      mstore\n        /* \"#utility.yul\":15142:15146   */\n      0x11\n        /* \"#utility.yul\":15139:15140   */\n      0x04\n        /* \"#utility.yul\":15132:15147   */\n      mstore\n        /* \"#utility.yul\":15166:15170   */\n      0x24\n        /* \"#utility.yul\":15163:15164   */\n      0x00\n        /* \"#utility.yul\":15156:15171   */\n      revert\n        /* \"#utility.yul\":15183:15374   */\n    tag_256:\n        /* \"#utility.yul\":15223:15226   */\n      0x00\n        /* \"#utility.yul\":15242:15262   */\n      tag_466\n        /* \"#utility.yul\":15260:15261   */\n      dup3\n        /* \"#utility.yul\":15242:15262   */\n      tag_275\n      jump\t// in\n    tag_466:\n        /* \"#utility.yul\":15237:15262   */\n      swap2\n      pop\n        /* \"#utility.yul\":15276:15296   */\n      tag_467\n        /* \"#utility.yul\":15294:15295   */\n      dup4\n        /* \"#utility.yul\":15276:15296   */\n      tag_275\n      jump\t// in\n    tag_467:\n        /* \"#utility.yul\":15271:15296   */\n      swap3\n      pop\n        /* \"#utility.yul\":15319:15320   */\n      dup3\n        /* \"#utility.yul\":15316:15317   */\n      dup3\n        /* \"#utility.yul\":15312:15321   */\n      add\n        /* \"#utility.yul\":15305:15321   */\n      swap1\n      pop\n        /* \"#utility.yul\":15340:15343   */\n      dup1\n        /* \"#utility.yul\":15337:15338   */\n      dup3\n        /* \"#utility.yul\":15334:15344   */\n      gt\n        /* \"#utility.yul\":15331:15367   */\n      iszero\n      tag_468\n      jumpi\n        /* \"#utility.yul\":15347:15365   */\n      tag_469\n      tag_307\n      jump\t// in\n    tag_469:\n        /* \"#utility.yul\":15331:15367   */\n    tag_468:\n        /* \"#utility.yul\":15183:15374   */\n      swap3\n      swap2\n      pop\n      pop\n      jump\t// out\n    stop\n    data_1554493d5c04afc23b5560181a0e1a5175b28cb56ca8e3a26a60c1ae44203dd1 43616e6e6f7420636865636b20666f722077696e6e65722e20426f746820706c617965727320686176656e27742073656c656374656420746865697220696e70757473\n    data_514e7c6e98a4bf63d2a0a3dd887e97f9946dbfcda401525d76fa1f8e4098977d 4c6173742067616d6520706c617965723120776f6e2e2057616974696e6720666f72206e657720706c6179657273\n    data_6e07bb7a9b518e193f630c0cc8bbfc9088763a136fccd7699b37b1dc65bab0fd 47616d65206c6f6262792069732066756c6c2e204177616974696e6720706c617965727320696e707574\n    data_e12729e553c254a85cb89ae6c53efc602a02e57f302add82bcfca29afc08d0c0 426f746820706c61796572732073656c656374656420696e7075742e20436865636b20666f722077696e6e6572\n    data_fc8f230bd8294a514de7dfd7e28a78c7534bca2e8671c6953ef4923eb044c839 4c6173742067616d6520706c617965723220776f6e2e2057616974696e6720666f72206e657720706c6179657273\n\n    auxdata: 0xa26469706673582212203df1acb35a775e7deb4ad457f122223def62b027a0a27e337fd775521c2af2e964736f6c63430008160033\n}\n",
				"bytecode": {
					"linkReferences": {},
					"object": "6080604052620f42406007556040518060400160405280601381526020017f57616974696e6720666f722070616c79657273000000000000000000000000008152506008908162000051919062000624565b503480156200005e575f80fd5b506040518060400160405280600981526020017f5250535f546f6b656e00000000000000000000000000000000000000000000008152506040518060400160405280600381526020017f52505300000000000000000000000000000000000000000000000000000000008152508160039081620000dc919062000624565b508060049081620000ee919062000624565b5050506200010c3368056bc75e2d631000006200011260201b60201c565b62000834565b5f73ffffffffffffffffffffffffffffffffffffffff168273ffffffffffffffffffffffffffffffffffffffff160362000185575f6040517fec442f050000000000000000000000000000000000000000000000000000000081526004016200017c91906200074b565b60405180910390fd5b620001985f83836200019c60201b60201c565b5050565b5f73ffffffffffffffffffffffffffffffffffffffff168373ffffffffffffffffffffffffffffffffffffffff1603620001f0578060025f828254620001e3919062000793565b92505081905550620002c1565b5f805f8573ffffffffffffffffffffffffffffffffffffffff1673ffffffffffffffffffffffffffffffffffffffff1681526020019081526020015f20549050818110156200027c578381836040517fe450d38c0000000000000000000000000000000000000000000000000000000081526004016200027393929190620007de565b60405180910390fd5b8181035f808673ffffffffffffffffffffffffffffffffffffffff1673ffffffffffffffffffffffffffffffffffffffff1681526020019081526020015f2081905550505b5f73ffffffffffffffffffffffffffffffffffffffff168273ffffffffffffffffffffffffffffffffffffffff16036200030a578060025f828254039250508190555062000354565b805f808473ffffffffffffffffffffffffffffffffffffffff1673ffffffffffffffffffffffffffffffffffffffff1681526020019081526020015f205f82825401925050819055505b8173ffffffffffffffffffffffffffffffffffffffff168373ffffffffffffffffffffffffffffffffffffffff167fddf252ad1be2c89b69c2b068fc378daa952ba7f163c4a11628f55a4df523b3ef83604051620003b3919062000819565b60405180910390a3505050565b5f81519050919050565b7f4e487b71000000000000000000000000000000000000000000000000000000005f52604160045260245ffd5b7f4e487b71000000000000000000000000000000000000000000000000000000005f52602260045260245ffd5b5f60028204905060018216806200043c57607f821691505b602082108103620004525762000451620003f7565b5b50919050565b5f819050815f5260205f209050919050565b5f6020601f8301049050919050565b5f82821b905092915050565b5f60088302620004b67fffffffffffffffffffffffffffffffffffffffffffffffffffffffffffffffff8262000479565b620004c2868362000479565b95508019841693508086168417925050509392505050565b5f819050919050565b5f819050919050565b5f6200050c620005066200050084620004da565b620004e3565b620004da565b9050919050565b5f819050919050565b6200052783620004ec565b6200053f620005368262000513565b84845462000485565b825550505050565b5f90565b6200055562000547565b620005628184846200051c565b505050565b5b8181101562000589576200057d5f826200054b565b60018101905062000568565b5050565b601f821115620005d857620005a28162000458565b620005ad846200046a565b81016020851015620005bd578190505b620005d5620005cc856200046a565b83018262000567565b50505b505050565b5f82821c905092915050565b5f620005fa5f1984600802620005dd565b1980831691505092915050565b5f620006148383620005e9565b9150826002028217905092915050565b6200062f82620003c0565b67ffffffffffffffff8111156200064b576200064a620003ca565b5b62000657825462000424565b620006648282856200058d565b5f60209050601f8311600181146200069a575f841562000685578287015190505b62000691858262000607565b86555062000700565b601f198416620006aa8662000458565b5f5b82811015620006d357848901518255600182019150602085019450602081019050620006ac565b86831015620006f35784890151620006ef601f891682620005e9565b8355505b6001600288020188555050505b505050505050565b5f73ffffffffffffffffffffffffffffffffffffffff82169050919050565b5f620007338262000708565b9050919050565b620007458162000727565b82525050565b5f602082019050620007605f8301846200073a565b92915050565b7f4e487b71000000000000000000000000000000000000000000000000000000005f52601160045260245ffd5b5f6200079f82620004da565b9150620007ac83620004da565b9250828201905080821115620007c757620007c662000766565b5b92915050565b620007d881620004da565b82525050565b5f606082019050620007f35f8301866200073a565b620008026020830185620007cd565b620008116040830184620007cd565b949350505050565b5f6020820190506200082e5f830184620007cd565b92915050565b6120fa80620008425f395ff3fe608060405234801561000f575f80fd5b50600436106100f3575f3560e01c806370a0823111610095578063abd95b9511610064578063abd95b9514610261578063c4fb57071461027f578063d30895e41461029b578063dd62ed3e146102b9576100f3565b806370a08231146101d957806395d89b4114610209578063a2f3d16e14610227578063a9059cbb14610231576100f3565b806319e5bf3a116100d157806319e5bf3a1461016357806323b872dd1461016d578063313ce5671461019d57806359a5f12d146101bb576100f3565b806306fdde03146100f7578063095ea7b31461011557806318160ddd14610145575b5f80fd5b6100ff6102e9565b60405161010c919061182e565b60405180910390f35b61012f600480360381019061012a91906118df565b610379565b60405161013c9190611937565b60405180910390f35b61014d61039b565b60405161015a919061195f565b60405180910390f35b61016b6103a4565b005b61018760048036038101906101829190611978565b61076a565b6040516101949190611937565b60405180910390f35b6101a5610798565b6040516101b291906119e3565b60405180910390f35b6101c36107a0565b6040516101d09190611a0b565b60405180910390f35b6101f360048036038101906101ee9190611a24565b6107c5565b604051610200919061195f565b60405180910390f35b61021161080a565b60405161021e919061182e565b60405180910390f35b61022f61089a565b005b61024b600480360381019061024691906118df565b610b7e565b6040516102589190611937565b60405180910390f35b610269610ba0565b604051610276919061182e565b60405180910390f35b61029960048036038101906102949190611a4f565b610c30565b005b6102a3610f69565b6040516102b09190611a0b565b60405180910390f35b6102d360048036038101906102ce9190611a7a565b610f8e565b6040516102e0919061195f565b60405180910390f35b6060600380546102f890611ae5565b80601f016020809104026020016040519081016040528092919081815260200182805461032490611ae5565b801561036f5780601f106103465761010080835404028352916020019161036f565b820191905f5260205f20905b81548152906001019060200180831161035257829003601f168201915b5050505050905090565b5f80610383611010565b9050610390818585611017565b600191505092915050565b5f600254905090565b5f73ffffffffffffffffffffffffffffffffffffffff1660055f9054906101000a900473ffffffffffffffffffffffffffffffffffffffff1673ffffffffffffffffffffffffffffffffffffffff16148061044b57505f73ffffffffffffffffffffffffffffffffffffffff1660065f9054906101000a900473ffffffffffffffffffffffffffffffffffffffff1673ffffffffffffffffffffffffffffffffffffffff16145b61048a576040517f08c379a000000000000000000000000000000000000000000000000000000000815260040161048190611b5f565b60405180910390fd5b600754610496336107c5565b10156104d7576040517f08c379a00000000000000000000000000000000000000000000000000000000081526004016104ce90611bed565b60405180910390fd5b5f73ffffffffffffffffffffffffffffffffffffffff1660055f9054906101000a900473ffffffffffffffffffffffffffffffffffffffff1673ffffffffffffffffffffffffffffffffffffffff16036105b5576040518060400160405280601281526020017f506c6179657231207265676973746572656400000000000000000000000000008152506008908161056f9190611dd5565b503360055f6101000a81548173ffffffffffffffffffffffffffffffffffffffff021916908373ffffffffffffffffffffffffffffffffffffffff160217905550610690565b5f73ffffffffffffffffffffffffffffffffffffffff1660065f9054906101000a900473ffffffffffffffffffffffffffffffffffffffff1673ffffffffffffffffffffffffffffffffffffffff160361068f576040518060400160405280601281526020017f506c6179657232207265676973746572656400000000000000000000000000008152506008908161064d9190611dd5565b503360065f6101000a81548173ffffffffffffffffffffffffffffffffffffffff021916908373ffffffffffffffffffffffffffffffffffffffff1602179055505b5b5f73ffffffffffffffffffffffffffffffffffffffff1660055f9054906101000a900473ffffffffffffffffffffffffffffffffffffffff1673ffffffffffffffffffffffffffffffffffffffff161415801561073a57505f73ffffffffffffffffffffffffffffffffffffffff1660065f9054906101000a900473ffffffffffffffffffffffffffffffffffffffff1673ffffffffffffffffffffffffffffffffffffffff1614155b15610768576040518060600160405280602a8152602001612040602a9139600890816107669190611dd5565b505b565b5f80610774611010565b9050610781858285611029565b61078c8585856110bb565b60019150509392505050565b5f6012905090565b60065f9054906101000a900473ffffffffffffffffffffffffffffffffffffffff1681565b5f805f8373ffffffffffffffffffffffffffffffffffffffff1673ffffffffffffffffffffffffffffffffffffffff1681526020019081526020015f20549050919050565b60606004805461081990611ae5565b80601f016020809104026020016040519081016040528092919081815260200182805461084590611ae5565b80156108905780601f1061086757610100808354040283529160200191610890565b820191905f5260205f20905b81548152906001019060200180831161087357829003601f168201915b5050505050905090565b5f60038111156108ad576108ac611ea4565b5b600560149054906101000a900460ff1660038111156108cf576108ce611ea4565b5b14801561090e57505f60038111156108ea576108e9611ea4565b5b600660149054906101000a900460ff16600381111561090c5761090b611ea4565b5b145b1561094057604051806080016040528060438152602001611fcf604391396008908161093a9190611dd5565b50610b7c565b600660149054906101000a900460ff16600381111561096257610961611ea4565b5b600560149054906101000a900460ff16600381111561098457610983611ea4565b5b036109cf576040518060400160405280601d81526020017f447261772e2057616974696e6720666f72206e657720706c6179657273000000815250600890816109cd9190611dd5565b505b6109f7600560149054906101000a900460ff16600660149054906101000a900460ff166111ab565b15610ace5760055f9054906101000a900473ffffffffffffffffffffffffffffffffffffffff1673ffffffffffffffffffffffffffffffffffffffff1660065f9054906101000a900473ffffffffffffffffffffffffffffffffffffffff1673ffffffffffffffffffffffffffffffffffffffff167fddf252ad1be2c89b69c2b068fc378daa952ba7f163c4a11628f55a4df523b3ef600754604051610a9d919061195f565b60405180910390a36040518060600160405280602e8152602001612012602e913960089081610acc9190611dd5565b505b610af6600660149054906101000a900460ff16600560149054906101000a900460ff166111ab565b15610b7357610b4a60055f9054906101000a900473ffffffffffffffffffffffffffffffffffffffff1660065f9054906101000a900473ffffffffffffffffffffffffffffffffffffffff166007546110bb565b6040518060600160405280602e8152602001612097602e913960089081610b719190611dd5565b505b610b7b6112e6565b5b565b5f80610b88611010565b9050610b958185856110bb565b600191505092915050565b606060088054610baf90611ae5565b80601f0160208091040260200160405190810160405280929190818152602001828054610bdb90611ae5565b8015610c265780601f10610bfd57610100808354040283529160200191610c26565b820191905f5260205f20905b815481529060010190602001808311610c0957829003601f168201915b5050505050905090565b60055f9054906101000a900473ffffffffffffffffffffffffffffffffffffffff1673ffffffffffffffffffffffffffffffffffffffff163373ffffffffffffffffffffffffffffffffffffffff161480610cd7575060065f9054906101000a900473ffffffffffffffffffffffffffffffffffffffff1673ffffffffffffffffffffffffffffffffffffffff163373ffffffffffffffffffffffffffffffffffffffff16145b610d16576040517f08c379a0000000000000000000000000000000000000000000000000000000008152600401610d0d90611f1b565b60405180910390fd5b60055f9054906101000a900473ffffffffffffffffffffffffffffffffffffffff1673ffffffffffffffffffffffffffffffffffffffff163373ffffffffffffffffffffffffffffffffffffffff1603610dec576040518060400160405280601681526020017f506c61796572312073656c656374656420696e7075740000000000000000000081525060089081610dae9190611dd5565b50806003811115610dc257610dc1611ea4565b5b600560146101000a81548160ff02191690836003811115610de657610de5611ea4565b5b02179055505b60065f9054906101000a900473ffffffffffffffffffffffffffffffffffffffff1673ffffffffffffffffffffffffffffffffffffffff163373ffffffffffffffffffffffffffffffffffffffff1603610ec2576040518060400160405280601681526020017f506c61796572322073656c656374656420696e7075740000000000000000000081525060089081610e849190611dd5565b50806003811115610e9857610e97611ea4565b5b600660146101000a81548160ff02191690836003811115610ebc57610ebb611ea4565b5b02179055505b5f6003811115610ed557610ed4611ea4565b5b600560149054906101000a900460ff166003811115610ef757610ef6611ea4565b5b14158015610f3857505f6003811115610f1357610f12611ea4565b5b600660149054906101000a900460ff166003811115610f3557610f34611ea4565b5b14155b15610f66576040518060600160405280602d815260200161206a602d913960089081610f649190611dd5565b505b50565b60055f9054906101000a900473ffffffffffffffffffffffffffffffffffffffff1681565b5f60015f8473ffffffffffffffffffffffffffffffffffffffff1673ffffffffffffffffffffffffffffffffffffffff1681526020019081526020015f205f8373ffffffffffffffffffffffffffffffffffffffff1673ffffffffffffffffffffffffffffffffffffffff1681526020019081526020015f2054905092915050565b5f33905090565b61102483838360016113bc565b505050565b5f6110348484610f8e565b90507fffffffffffffffffffffffffffffffffffffffffffffffffffffffffffffffff81146110b557818110156110a6578281836040517ffb8f41b200000000000000000000000000000000000000000000000000000000815260040161109d93929190611f39565b60405180910390fd5b6110b484848484035f6113bc565b5b50505050565b5f73ffffffffffffffffffffffffffffffffffffffff168373ffffffffffffffffffffffffffffffffffffffff160361112b575f6040517f96c6fd1e0000000000000000000000000000000000000000000000000000000081526004016111229190611a0b565b60405180910390fd5b5f73ffffffffffffffffffffffffffffffffffffffff168273ffffffffffffffffffffffffffffffffffffffff160361119b575f6040517fec442f050000000000000000000000000000000000000000000000000000000081526004016111929190611a0b565b60405180910390fd5b6111a683838361158b565b505050565b5f600160038111156111c0576111bf611ea4565b5b8360038111156111d3576111d2611ea4565b5b14801561120357506003808111156111ee576111ed611ea4565b5b82600381111561120157611200611ea4565b5b145b1561121157600190506112e0565b6002600381111561122557611224611ea4565b5b83600381111561123857611237611ea4565b5b14801561126957506001600381111561125457611253611ea4565b5b82600381111561126757611266611ea4565b5b145b1561127757600190506112e0565b60038081111561128a57611289611ea4565b5b83600381111561129d5761129c611ea4565b5b1480156112ce5750600260038111156112b9576112b8611ea4565b5b8260038111156112cc576112cb611ea4565b5b145b156112dc57600190506112e0565b5f90505b92915050565b5f60055f6101000a81548173ffffffffffffffffffffffffffffffffffffffff021916908373ffffffffffffffffffffffffffffffffffffffff1602179055505f60065f6101000a81548173ffffffffffffffffffffffffffffffffffffffff021916908373ffffffffffffffffffffffffffffffffffffffff1602179055505f600560146101000a81548160ff0219169083600381111561138b5761138a611ea4565b5b02179055505f600660146101000a81548160ff021916908360038111156113b5576113b4611ea4565b5b0217905550565b5f73ffffffffffffffffffffffffffffffffffffffff168473ffffffffffffffffffffffffffffffffffffffff160361142c575f6040517fe602df050000000000000000000000000000000000000000000000000000000081526004016114239190611a0b565b60405180910390fd5b5f73ffffffffffffffffffffffffffffffffffffffff168373ffffffffffffffffffffffffffffffffffffffff160361149c575f6040517f94280d620000000000000000000000000000000000000000000000000000000081526004016114939190611a0b565b60405180910390fd5b8160015f8673ffffffffffffffffffffffffffffffffffffffff1673ffffffffffffffffffffffffffffffffffffffff1681526020019081526020015f205f8573ffffffffffffffffffffffffffffffffffffffff1673ffffffffffffffffffffffffffffffffffffffff1681526020019081526020015f20819055508015611585578273ffffffffffffffffffffffffffffffffffffffff168473ffffffffffffffffffffffffffffffffffffffff167f8c5be1e5ebec7d5bd14f71427d1e84f3dd0314c0f7b2291e5b200ac8c7c3b9258460405161157c919061195f565b60405180910390a35b50505050565b5f73ffffffffffffffffffffffffffffffffffffffff168373ffffffffffffffffffffffffffffffffffffffff16036115db578060025f8282546115cf9190611f9b565b925050819055506116a9565b5f805f8573ffffffffffffffffffffffffffffffffffffffff1673ffffffffffffffffffffffffffffffffffffffff1681526020019081526020015f2054905081811015611664578381836040517fe450d38c00000000000000000000000000000000000000000000000000000000815260040161165b93929190611f39565b60405180910390fd5b8181035f808673ffffffffffffffffffffffffffffffffffffffff1673ffffffffffffffffffffffffffffffffffffffff1681526020019081526020015f2081905550505b5f73ffffffffffffffffffffffffffffffffffffffff168273ffffffffffffffffffffffffffffffffffffffff16036116f0578060025f828254039250508190555061173a565b805f808473ffffffffffffffffffffffffffffffffffffffff1673ffffffffffffffffffffffffffffffffffffffff1681526020019081526020015f205f82825401925050819055505b8173ffffffffffffffffffffffffffffffffffffffff168373ffffffffffffffffffffffffffffffffffffffff167fddf252ad1be2c89b69c2b068fc378daa952ba7f163c4a11628f55a4df523b3ef83604051611797919061195f565b60405180910390a3505050565b5f81519050919050565b5f82825260208201905092915050565b5f5b838110156117db5780820151818401526020810190506117c0565b5f8484015250505050565b5f601f19601f8301169050919050565b5f611800826117a4565b61180a81856117ae565b935061181a8185602086016117be565b611823816117e6565b840191505092915050565b5f6020820190508181035f83015261184681846117f6565b905092915050565b5f80fd5b5f73ffffffffffffffffffffffffffffffffffffffff82169050919050565b5f61187b82611852565b9050919050565b61188b81611871565b8114611895575f80fd5b50565b5f813590506118a681611882565b92915050565b5f819050919050565b6118be816118ac565b81146118c8575f80fd5b50565b5f813590506118d9816118b5565b92915050565b5f80604083850312156118f5576118f461184e565b5b5f61190285828601611898565b9250506020611913858286016118cb565b9150509250929050565b5f8115159050919050565b6119318161191d565b82525050565b5f60208201905061194a5f830184611928565b92915050565b611959816118ac565b82525050565b5f6020820190506119725f830184611950565b92915050565b5f805f6060848603121561198f5761198e61184e565b5b5f61199c86828701611898565b93505060206119ad86828701611898565b92505060406119be868287016118cb565b9150509250925092565b5f60ff82169050919050565b6119dd816119c8565b82525050565b5f6020820190506119f65f8301846119d4565b92915050565b611a0581611871565b82525050565b5f602082019050611a1e5f8301846119fc565b92915050565b5f60208284031215611a3957611a3861184e565b5b5f611a4684828501611898565b91505092915050565b5f60208284031215611a6457611a6361184e565b5b5f611a71848285016118cb565b91505092915050565b5f8060408385031215611a9057611a8f61184e565b5b5f611a9d85828601611898565b9250506020611aae85828601611898565b9150509250929050565b7f4e487b71000000000000000000000000000000000000000000000000000000005f52602260045260245ffd5b5f6002820490506001821680611afc57607f821691505b602082108103611b0f57611b0e611ab8565b5b50919050565b7f47616d65206c6f6262792069732066756c6c00000000000000000000000000005f82015250565b5f611b496012836117ae565b9150611b5482611b15565b602082019050919050565b5f6020820190508181035f830152611b7681611b3d565b9050919050565b7f596f7520646f206e6f74206861766520656e6f756768206d6f6e657920746f205f8201527f6265740000000000000000000000000000000000000000000000000000000000602082015250565b5f611bd76023836117ae565b9150611be282611b7d565b604082019050919050565b5f6020820190508181035f830152611c0481611bcb565b9050919050565b7f4e487b71000000000000000000000000000000000000000000000000000000005f52604160045260245ffd5b5f819050815f5260205f209050919050565b5f6020601f8301049050919050565b5f82821b905092915050565b5f60088302611c947fffffffffffffffffffffffffffffffffffffffffffffffffffffffffffffffff82611c59565b611c9e8683611c59565b95508019841693508086168417925050509392505050565b5f819050919050565b5f611cd9611cd4611ccf846118ac565b611cb6565b6118ac565b9050919050565b5f819050919050565b611cf283611cbf565b611d06611cfe82611ce0565b848454611c65565b825550505050565b5f90565b611d1a611d0e565b611d25818484611ce9565b505050565b5b81811015611d4857611d3d5f82611d12565b600181019050611d2b565b5050565b601f821115611d8d57611d5e81611c38565b611d6784611c4a565b81016020851015611d76578190505b611d8a611d8285611c4a565b830182611d2a565b50505b505050565b5f82821c905092915050565b5f611dad5f1984600802611d92565b1980831691505092915050565b5f611dc58383611d9e565b9150826002028217905092915050565b611dde826117a4565b67ffffffffffffffff811115611df757611df6611c0b565b5b611e018254611ae5565b611e0c828285611d4c565b5f60209050601f831160018114611e3d575f8415611e2b578287015190505b611e358582611dba565b865550611e9c565b601f198416611e4b86611c38565b5f5b82811015611e7257848901518255600182019150602085019450602081019050611e4d565b86831015611e8f5784890151611e8b601f891682611d9e565b8355505b6001600288020188555050505b505050505050565b7f4e487b71000000000000000000000000000000000000000000000000000000005f52602160045260245ffd5b7f4e6f7420616e2061637469766520706c617965720000000000000000000000005f82015250565b5f611f056014836117ae565b9150611f1082611ed1565b602082019050919050565b5f6020820190508181035f830152611f3281611ef9565b9050919050565b5f606082019050611f4c5f8301866119fc565b611f596020830185611950565b611f666040830184611950565b949350505050565b7f4e487b71000000000000000000000000000000000000000000000000000000005f52601160045260245ffd5b5f611fa5826118ac565b9150611fb0836118ac565b9250828201905080821115611fc857611fc7611f6e565b5b9291505056fe43616e6e6f7420636865636b20666f722077696e6e65722e20426f746820706c617965727320686176656e27742073656c656374656420746865697220696e707574734c6173742067616d6520706c617965723120776f6e2e2057616974696e6720666f72206e657720706c617965727347616d65206c6f6262792069732066756c6c2e204177616974696e6720706c617965727320696e707574426f746820706c61796572732073656c656374656420696e7075742e20436865636b20666f722077696e6e65724c6173742067616d6520706c617965723220776f6e2e2057616974696e6720666f72206e657720706c6179657273a26469706673582212203df1acb35a775e7deb4ad457f122223def62b027a0a27e337fd775521c2af2e964736f6c63430008160033",
					"opcodes": "PUSH1 0x80 PUSH1 0x40 MSTORE PUSH3 0xF4240 PUSH1 0x7 SSTORE PUSH1 0x40 MLOAD DUP1 PUSH1 0x40 ADD PUSH1 0x40 MSTORE DUP1 PUSH1 0x13 DUP2 MSTORE PUSH1 0x20 ADD PUSH32 0x57616974696E6720666F722070616C7965727300000000000000000000000000 DUP2 MSTORE POP PUSH1 0x8 SWAP1 DUP2 PUSH3 0x51 SWAP2 SWAP1 PUSH3 0x624 JUMP JUMPDEST POP CALLVALUE DUP1 ISZERO PUSH3 0x5E JUMPI PUSH0 DUP1 REVERT JUMPDEST POP PUSH1 0x40 MLOAD DUP1 PUSH1 0x40 ADD PUSH1 0x40 MSTORE DUP1 PUSH1 0x9 DUP2 MSTORE PUSH1 0x20 ADD PUSH32 0x5250535F546F6B656E0000000000000000000000000000000000000000000000 DUP2 MSTORE POP PUSH1 0x40 MLOAD DUP1 PUSH1 0x40 ADD PUSH1 0x40 MSTORE DUP1 PUSH1 0x3 DUP2 MSTORE PUSH1 0x20 ADD PUSH32 0x5250530000000000000000000000000000000000000000000000000000000000 DUP2 MSTORE POP DUP2 PUSH1 0x3 SWAP1 DUP2 PUSH3 0xDC SWAP2 SWAP1 PUSH3 0x624 JUMP JUMPDEST POP DUP1 PUSH1 0x4 SWAP1 DUP2 PUSH3 0xEE SWAP2 SWAP1 PUSH3 0x624 JUMP JUMPDEST POP POP POP PUSH3 0x10C CALLER PUSH9 0x56BC75E2D63100000 PUSH3 0x112 PUSH1 0x20 SHL PUSH1 0x20 SHR JUMP JUMPDEST PUSH3 0x834 JUMP JUMPDEST PUSH0 PUSH20 0xFFFFFFFFFFFFFFFFFFFFFFFFFFFFFFFFFFFFFFFF AND DUP3 PUSH20 0xFFFFFFFFFFFFFFFFFFFFFFFFFFFFFFFFFFFFFFFF AND SUB PUSH3 0x185 JUMPI PUSH0 PUSH1 0x40 MLOAD PUSH32 0xEC442F0500000000000000000000000000000000000000000000000000000000 DUP2 MSTORE PUSH1 0x4 ADD PUSH3 0x17C SWAP2 SWAP1 PUSH3 0x74B JUMP JUMPDEST PUSH1 0x40 MLOAD DUP1 SWAP2 SUB SWAP1 REVERT JUMPDEST PUSH3 0x198 PUSH0 DUP4 DUP4 PUSH3 0x19C PUSH1 0x20 SHL PUSH1 0x20 SHR JUMP JUMPDEST POP POP JUMP JUMPDEST PUSH0 PUSH20 0xFFFFFFFFFFFFFFFFFFFFFFFFFFFFFFFFFFFFFFFF AND DUP4 PUSH20 0xFFFFFFFFFFFFFFFFFFFFFFFFFFFFFFFFFFFFFFFF AND SUB PUSH3 0x1F0 JUMPI DUP1 PUSH1 0x2 PUSH0 DUP3 DUP3 SLOAD PUSH3 0x1E3 SWAP2 SWAP1 PUSH3 0x793 JUMP JUMPDEST SWAP3 POP POP DUP2 SWAP1 SSTORE POP PUSH3 0x2C1 JUMP JUMPDEST PUSH0 DUP1 PUSH0 DUP6 PUSH20 0xFFFFFFFFFFFFFFFFFFFFFFFFFFFFFFFFFFFFFFFF AND PUSH20 0xFFFFFFFFFFFFFFFFFFFFFFFFFFFFFFFFFFFFFFFF AND DUP2 MSTORE PUSH1 0x20 ADD SWAP1 DUP2 MSTORE PUSH1 0x20 ADD PUSH0 KECCAK256 SLOAD SWAP1 POP DUP2 DUP2 LT ISZERO PUSH3 0x27C JUMPI DUP4 DUP2 DUP4 PUSH1 0x40 MLOAD PUSH32 0xE450D38C00000000000000000000000000000000000000000000000000000000 DUP2 MSTORE PUSH1 0x4 ADD PUSH3 0x273 SWAP4 SWAP3 SWAP2 SWAP1 PUSH3 0x7DE JUMP JUMPDEST PUSH1 0x40 MLOAD DUP1 SWAP2 SUB SWAP1 REVERT JUMPDEST DUP2 DUP2 SUB PUSH0 DUP1 DUP7 PUSH20 0xFFFFFFFFFFFFFFFFFFFFFFFFFFFFFFFFFFFFFFFF AND PUSH20 0xFFFFFFFFFFFFFFFFFFFFFFFFFFFFFFFFFFFFFFFF AND DUP2 MSTORE PUSH1 0x20 ADD SWAP1 DUP2 MSTORE PUSH1 0x20 ADD PUSH0 KECCAK256 DUP2 SWAP1 SSTORE POP POP JUMPDEST PUSH0 PUSH20 0xFFFFFFFFFFFFFFFFFFFFFFFFFFFFFFFFFFFFFFFF AND DUP3 PUSH20 0xFFFFFFFFFFFFFFFFFFFFFFFFFFFFFFFFFFFFFFFF AND SUB PUSH3 0x30A JUMPI DUP1 PUSH1 0x2 PUSH0 DUP3 DUP3 SLOAD SUB SWAP3 POP POP DUP2 SWAP1 SSTORE POP PUSH3 0x354 JUMP JUMPDEST DUP1 PUSH0 DUP1 DUP5 PUSH20 0xFFFFFFFFFFFFFFFFFFFFFFFFFFFFFFFFFFFFFFFF AND PUSH20 0xFFFFFFFFFFFFFFFFFFFFFFFFFFFFFFFFFFFFFFFF AND DUP2 MSTORE PUSH1 0x20 ADD SWAP1 DUP2 MSTORE PUSH1 0x20 ADD PUSH0 KECCAK256 PUSH0 DUP3 DUP3 SLOAD ADD SWAP3 POP POP DUP2 SWAP1 SSTORE POP JUMPDEST DUP2 PUSH20 0xFFFFFFFFFFFFFFFFFFFFFFFFFFFFFFFFFFFFFFFF AND DUP4 PUSH20 0xFFFFFFFFFFFFFFFFFFFFFFFFFFFFFFFFFFFFFFFF AND PUSH32 0xDDF252AD1BE2C89B69C2B068FC378DAA952BA7F163C4A11628F55A4DF523B3EF DUP4 PUSH1 0x40 MLOAD PUSH3 0x3B3 SWAP2 SWAP1 PUSH3 0x819 JUMP JUMPDEST PUSH1 0x40 MLOAD DUP1 SWAP2 SUB SWAP1 LOG3 POP POP POP JUMP JUMPDEST PUSH0 DUP2 MLOAD SWAP1 POP SWAP2 SWAP1 POP JUMP JUMPDEST PUSH32 0x4E487B7100000000000000000000000000000000000000000000000000000000 PUSH0 MSTORE PUSH1 0x41 PUSH1 0x4 MSTORE PUSH1 0x24 PUSH0 REVERT JUMPDEST PUSH32 0x4E487B7100000000000000000000000000000000000000000000000000000000 PUSH0 MSTORE PUSH1 0x22 PUSH1 0x4 MSTORE PUSH1 0x24 PUSH0 REVERT JUMPDEST PUSH0 PUSH1 0x2 DUP3 DIV SWAP1 POP PUSH1 0x1 DUP3 AND DUP1 PUSH3 0x43C JUMPI PUSH1 0x7F DUP3 AND SWAP2 POP JUMPDEST PUSH1 0x20 DUP3 LT DUP2 SUB PUSH3 0x452 JUMPI PUSH3 0x451 PUSH3 0x3F7 JUMP JUMPDEST JUMPDEST POP SWAP2 SWAP1 POP JUMP JUMPDEST PUSH0 DUP2 SWAP1 POP DUP2 PUSH0 MSTORE PUSH1 0x20 PUSH0 KECCAK256 SWAP1 POP SWAP2 SWAP1 POP JUMP JUMPDEST PUSH0 PUSH1 0x20 PUSH1 0x1F DUP4 ADD DIV SWAP1 POP SWAP2 SWAP1 POP JUMP JUMPDEST PUSH0 DUP3 DUP3 SHL SWAP1 POP SWAP3 SWAP2 POP POP JUMP JUMPDEST PUSH0 PUSH1 0x8 DUP4 MUL PUSH3 0x4B6 PUSH32 0xFFFFFFFFFFFFFFFFFFFFFFFFFFFFFFFFFFFFFFFFFFFFFFFFFFFFFFFFFFFFFFFF DUP3 PUSH3 0x479 JUMP JUMPDEST PUSH3 0x4C2 DUP7 DUP4 PUSH3 0x479 JUMP JUMPDEST SWAP6 POP DUP1 NOT DUP5 AND SWAP4 POP DUP1 DUP7 AND DUP5 OR SWAP3 POP POP POP SWAP4 SWAP3 POP POP POP JUMP JUMPDEST PUSH0 DUP2 SWAP1 POP SWAP2 SWAP1 POP JUMP JUMPDEST PUSH0 DUP2 SWAP1 POP SWAP2 SWAP1 POP JUMP JUMPDEST PUSH0 PUSH3 0x50C PUSH3 0x506 PUSH3 0x500 DUP5 PUSH3 0x4DA JUMP JUMPDEST PUSH3 0x4E3 JUMP JUMPDEST PUSH3 0x4DA JUMP JUMPDEST SWAP1 POP SWAP2 SWAP1 POP JUMP JUMPDEST PUSH0 DUP2 SWAP1 POP SWAP2 SWAP1 POP JUMP JUMPDEST PUSH3 0x527 DUP4 PUSH3 0x4EC JUMP JUMPDEST PUSH3 0x53F PUSH3 0x536 DUP3 PUSH3 0x513 JUMP JUMPDEST DUP5 DUP5 SLOAD PUSH3 0x485 JUMP JUMPDEST DUP3 SSTORE POP POP POP POP JUMP JUMPDEST PUSH0 SWAP1 JUMP JUMPDEST PUSH3 0x555 PUSH3 0x547 JUMP JUMPDEST PUSH3 0x562 DUP2 DUP5 DUP5 PUSH3 0x51C JUMP JUMPDEST POP POP POP JUMP JUMPDEST JUMPDEST DUP2 DUP2 LT ISZERO PUSH3 0x589 JUMPI PUSH3 0x57D PUSH0 DUP3 PUSH3 0x54B JUMP JUMPDEST PUSH1 0x1 DUP2 ADD SWAP1 POP PUSH3 0x568 JUMP JUMPDEST POP POP JUMP JUMPDEST PUSH1 0x1F DUP3 GT ISZERO PUSH3 0x5D8 JUMPI PUSH3 0x5A2 DUP2 PUSH3 0x458 JUMP JUMPDEST PUSH3 0x5AD DUP5 PUSH3 0x46A JUMP JUMPDEST DUP2 ADD PUSH1 0x20 DUP6 LT ISZERO PUSH3 0x5BD JUMPI DUP2 SWAP1 POP JUMPDEST PUSH3 0x5D5 PUSH3 0x5CC DUP6 PUSH3 0x46A JUMP JUMPDEST DUP4 ADD DUP3 PUSH3 0x567 JUMP JUMPDEST POP POP JUMPDEST POP POP POP JUMP JUMPDEST PUSH0 DUP3 DUP3 SHR SWAP1 POP SWAP3 SWAP2 POP POP JUMP JUMPDEST PUSH0 PUSH3 0x5FA PUSH0 NOT DUP5 PUSH1 0x8 MUL PUSH3 0x5DD JUMP JUMPDEST NOT DUP1 DUP4 AND SWAP2 POP POP SWAP3 SWAP2 POP POP JUMP JUMPDEST PUSH0 PUSH3 0x614 DUP4 DUP4 PUSH3 0x5E9 JUMP JUMPDEST SWAP2 POP DUP3 PUSH1 0x2 MUL DUP3 OR SWAP1 POP SWAP3 SWAP2 POP POP JUMP JUMPDEST PUSH3 0x62F DUP3 PUSH3 0x3C0 JUMP JUMPDEST PUSH8 0xFFFFFFFFFFFFFFFF DUP2 GT ISZERO PUSH3 0x64B JUMPI PUSH3 0x64A PUSH3 0x3CA JUMP JUMPDEST JUMPDEST PUSH3 0x657 DUP3 SLOAD PUSH3 0x424 JUMP JUMPDEST PUSH3 0x664 DUP3 DUP3 DUP6 PUSH3 0x58D JUMP JUMPDEST PUSH0 PUSH1 0x20 SWAP1 POP PUSH1 0x1F DUP4 GT PUSH1 0x1 DUP2 EQ PUSH3 0x69A JUMPI PUSH0 DUP5 ISZERO PUSH3 0x685 JUMPI DUP3 DUP8 ADD MLOAD SWAP1 POP JUMPDEST PUSH3 0x691 DUP6 DUP3 PUSH3 0x607 JUMP JUMPDEST DUP7 SSTORE POP PUSH3 0x700 JUMP JUMPDEST PUSH1 0x1F NOT DUP5 AND PUSH3 0x6AA DUP7 PUSH3 0x458 JUMP JUMPDEST PUSH0 JUMPDEST DUP3 DUP2 LT ISZERO PUSH3 0x6D3 JUMPI DUP5 DUP10 ADD MLOAD DUP3 SSTORE PUSH1 0x1 DUP3 ADD SWAP2 POP PUSH1 0x20 DUP6 ADD SWAP5 POP PUSH1 0x20 DUP2 ADD SWAP1 POP PUSH3 0x6AC JUMP JUMPDEST DUP7 DUP4 LT ISZERO PUSH3 0x6F3 JUMPI DUP5 DUP10 ADD MLOAD PUSH3 0x6EF PUSH1 0x1F DUP10 AND DUP3 PUSH3 0x5E9 JUMP JUMPDEST DUP4 SSTORE POP JUMPDEST PUSH1 0x1 PUSH1 0x2 DUP9 MUL ADD DUP9 SSTORE POP POP POP JUMPDEST POP POP POP POP POP POP JUMP JUMPDEST PUSH0 PUSH20 0xFFFFFFFFFFFFFFFFFFFFFFFFFFFFFFFFFFFFFFFF DUP3 AND SWAP1 POP SWAP2 SWAP1 POP JUMP JUMPDEST PUSH0 PUSH3 0x733 DUP3 PUSH3 0x708 JUMP JUMPDEST SWAP1 POP SWAP2 SWAP1 POP JUMP JUMPDEST PUSH3 0x745 DUP2 PUSH3 0x727 JUMP JUMPDEST DUP3 MSTORE POP POP JUMP JUMPDEST PUSH0 PUSH1 0x20 DUP3 ADD SWAP1 POP PUSH3 0x760 PUSH0 DUP4 ADD DUP5 PUSH3 0x73A JUMP JUMPDEST SWAP3 SWAP2 POP POP JUMP JUMPDEST PUSH32 0x4E487B7100000000000000000000000000000000000000000000000000000000 PUSH0 MSTORE PUSH1 0x11 PUSH1 0x4 MSTORE PUSH1 0x24 PUSH0 REVERT JUMPDEST PUSH0 PUSH3 0x79F DUP3 PUSH3 0x4DA JUMP JUMPDEST SWAP2 POP PUSH3 0x7AC DUP4 PUSH3 0x4DA JUMP JUMPDEST SWAP3 POP DUP3 DUP3 ADD SWAP1 POP DUP1 DUP3 GT ISZERO PUSH3 0x7C7 JUMPI PUSH3 0x7C6 PUSH3 0x766 JUMP JUMPDEST JUMPDEST SWAP3 SWAP2 POP POP JUMP JUMPDEST PUSH3 0x7D8 DUP2 PUSH3 0x4DA JUMP JUMPDEST DUP3 MSTORE POP POP JUMP JUMPDEST PUSH0 PUSH1 0x60 DUP3 ADD SWAP1 POP PUSH3 0x7F3 PUSH0 DUP4 ADD DUP7 PUSH3 0x73A JUMP JUMPDEST PUSH3 0x802 PUSH1 0x20 DUP4 ADD DUP6 PUSH3 0x7CD JUMP JUMPDEST PUSH3 0x811 PUSH1 0x40 DUP4 ADD DUP5 PUSH3 0x7CD JUMP JUMPDEST SWAP5 SWAP4 POP POP POP POP JUMP JUMPDEST PUSH0 PUSH1 0x20 DUP3 ADD SWAP1 POP PUSH3 0x82E PUSH0 DUP4 ADD DUP5 PUSH3 0x7CD JUMP JUMPDEST SWAP3 SWAP2 POP POP JUMP JUMPDEST PUSH2 0x20FA DUP1 PUSH3 0x842 PUSH0 CODECOPY PUSH0 RETURN INVALID PUSH1 0x80 PUSH1 0x40 MSTORE CALLVALUE DUP1 ISZERO PUSH2 0xF JUMPI PUSH0 DUP1 REVERT JUMPDEST POP PUSH1 0x4 CALLDATASIZE LT PUSH2 0xF3 JUMPI PUSH0 CALLDATALOAD PUSH1 0xE0 SHR DUP1 PUSH4 0x70A08231 GT PUSH2 0x95 JUMPI DUP1 PUSH4 0xABD95B95 GT PUSH2 0x64 JUMPI DUP1 PUSH4 0xABD95B95 EQ PUSH2 0x261 JUMPI DUP1 PUSH4 0xC4FB5707 EQ PUSH2 0x27F JUMPI DUP1 PUSH4 0xD30895E4 EQ PUSH2 0x29B JUMPI DUP1 PUSH4 0xDD62ED3E EQ PUSH2 0x2B9 JUMPI PUSH2 0xF3 JUMP JUMPDEST DUP1 PUSH4 0x70A08231 EQ PUSH2 0x1D9 JUMPI DUP1 PUSH4 0x95D89B41 EQ PUSH2 0x209 JUMPI DUP1 PUSH4 0xA2F3D16E EQ PUSH2 0x227 JUMPI DUP1 PUSH4 0xA9059CBB EQ PUSH2 0x231 JUMPI PUSH2 0xF3 JUMP JUMPDEST DUP1 PUSH4 0x19E5BF3A GT PUSH2 0xD1 JUMPI DUP1 PUSH4 0x19E5BF3A EQ PUSH2 0x163 JUMPI DUP1 PUSH4 0x23B872DD EQ PUSH2 0x16D JUMPI DUP1 PUSH4 0x313CE567 EQ PUSH2 0x19D JUMPI DUP1 PUSH4 0x59A5F12D EQ PUSH2 0x1BB JUMPI PUSH2 0xF3 JUMP JUMPDEST DUP1 PUSH4 0x6FDDE03 EQ PUSH2 0xF7 JUMPI DUP1 PUSH4 0x95EA7B3 EQ PUSH2 0x115 JUMPI DUP1 PUSH4 0x18160DDD EQ PUSH2 0x145 JUMPI JUMPDEST PUSH0 DUP1 REVERT JUMPDEST PUSH2 0xFF PUSH2 0x2E9 JUMP JUMPDEST PUSH1 0x40 MLOAD PUSH2 0x10C SWAP2 SWAP1 PUSH2 0x182E JUMP JUMPDEST PUSH1 0x40 MLOAD DUP1 SWAP2 SUB SWAP1 RETURN JUMPDEST PUSH2 0x12F PUSH1 0x4 DUP1 CALLDATASIZE SUB DUP2 ADD SWAP1 PUSH2 0x12A SWAP2 SWAP1 PUSH2 0x18DF JUMP JUMPDEST PUSH2 0x379 JUMP JUMPDEST PUSH1 0x40 MLOAD PUSH2 0x13C SWAP2 SWAP1 PUSH2 0x1937 JUMP JUMPDEST PUSH1 0x40 MLOAD DUP1 SWAP2 SUB SWAP1 RETURN JUMPDEST PUSH2 0x14D PUSH2 0x39B JUMP JUMPDEST PUSH1 0x40 MLOAD PUSH2 0x15A SWAP2 SWAP1 PUSH2 0x195F JUMP JUMPDEST PUSH1 0x40 MLOAD DUP1 SWAP2 SUB SWAP1 RETURN JUMPDEST PUSH2 0x16B PUSH2 0x3A4 JUMP JUMPDEST STOP JUMPDEST PUSH2 0x187 PUSH1 0x4 DUP1 CALLDATASIZE SUB DUP2 ADD SWAP1 PUSH2 0x182 SWAP2 SWAP1 PUSH2 0x1978 JUMP JUMPDEST PUSH2 0x76A JUMP JUMPDEST PUSH1 0x40 MLOAD PUSH2 0x194 SWAP2 SWAP1 PUSH2 0x1937 JUMP JUMPDEST PUSH1 0x40 MLOAD DUP1 SWAP2 SUB SWAP1 RETURN JUMPDEST PUSH2 0x1A5 PUSH2 0x798 JUMP JUMPDEST PUSH1 0x40 MLOAD PUSH2 0x1B2 SWAP2 SWAP1 PUSH2 0x19E3 JUMP JUMPDEST PUSH1 0x40 MLOAD DUP1 SWAP2 SUB SWAP1 RETURN JUMPDEST PUSH2 0x1C3 PUSH2 0x7A0 JUMP JUMPDEST PUSH1 0x40 MLOAD PUSH2 0x1D0 SWAP2 SWAP1 PUSH2 0x1A0B JUMP JUMPDEST PUSH1 0x40 MLOAD DUP1 SWAP2 SUB SWAP1 RETURN JUMPDEST PUSH2 0x1F3 PUSH1 0x4 DUP1 CALLDATASIZE SUB DUP2 ADD SWAP1 PUSH2 0x1EE SWAP2 SWAP1 PUSH2 0x1A24 JUMP JUMPDEST PUSH2 0x7C5 JUMP JUMPDEST PUSH1 0x40 MLOAD PUSH2 0x200 SWAP2 SWAP1 PUSH2 0x195F JUMP JUMPDEST PUSH1 0x40 MLOAD DUP1 SWAP2 SUB SWAP1 RETURN JUMPDEST PUSH2 0x211 PUSH2 0x80A JUMP JUMPDEST PUSH1 0x40 MLOAD PUSH2 0x21E SWAP2 SWAP1 PUSH2 0x182E JUMP JUMPDEST PUSH1 0x40 MLOAD DUP1 SWAP2 SUB SWAP1 RETURN JUMPDEST PUSH2 0x22F PUSH2 0x89A JUMP JUMPDEST STOP JUMPDEST PUSH2 0x24B PUSH1 0x4 DUP1 CALLDATASIZE SUB DUP2 ADD SWAP1 PUSH2 0x246 SWAP2 SWAP1 PUSH2 0x18DF JUMP JUMPDEST PUSH2 0xB7E JUMP JUMPDEST PUSH1 0x40 MLOAD PUSH2 0x258 SWAP2 SWAP1 PUSH2 0x1937 JUMP JUMPDEST PUSH1 0x40 MLOAD DUP1 SWAP2 SUB SWAP1 RETURN JUMPDEST PUSH2 0x269 PUSH2 0xBA0 JUMP JUMPDEST PUSH1 0x40 MLOAD PUSH2 0x276 SWAP2 SWAP1 PUSH2 0x182E JUMP JUMPDEST PUSH1 0x40 MLOAD DUP1 SWAP2 SUB SWAP1 RETURN JUMPDEST PUSH2 0x299 PUSH1 0x4 DUP1 CALLDATASIZE SUB DUP2 ADD SWAP1 PUSH2 0x294 SWAP2 SWAP1 PUSH2 0x1A4F JUMP JUMPDEST PUSH2 0xC30 JUMP JUMPDEST STOP JUMPDEST PUSH2 0x2A3 PUSH2 0xF69 JUMP JUMPDEST PUSH1 0x40 MLOAD PUSH2 0x2B0 SWAP2 SWAP1 PUSH2 0x1A0B JUMP JUMPDEST PUSH1 0x40 MLOAD DUP1 SWAP2 SUB SWAP1 RETURN JUMPDEST PUSH2 0x2D3 PUSH1 0x4 DUP1 CALLDATASIZE SUB DUP2 ADD SWAP1 PUSH2 0x2CE SWAP2 SWAP1 PUSH2 0x1A7A JUMP JUMPDEST PUSH2 0xF8E JUMP JUMPDEST PUSH1 0x40 MLOAD PUSH2 0x2E0 SWAP2 SWAP1 PUSH2 0x195F JUMP JUMPDEST PUSH1 0x40 MLOAD DUP1 SWAP2 SUB SWAP1 RETURN JUMPDEST PUSH1 0x60 PUSH1 0x3 DUP1 SLOAD PUSH2 0x2F8 SWAP1 PUSH2 0x1AE5 JUMP JUMPDEST DUP1 PUSH1 0x1F ADD PUSH1 0x20 DUP1 SWAP2 DIV MUL PUSH1 0x20 ADD PUSH1 0x40 MLOAD SWAP1 DUP2 ADD PUSH1 0x40 MSTORE DUP1 SWAP3 SWAP2 SWAP1 DUP2 DUP2 MSTORE PUSH1 0x20 ADD DUP3 DUP1 SLOAD PUSH2 0x324 SWAP1 PUSH2 0x1AE5 JUMP JUMPDEST DUP1 ISZERO PUSH2 0x36F JUMPI DUP1 PUSH1 0x1F LT PUSH2 0x346 JUMPI PUSH2 0x100 DUP1 DUP4 SLOAD DIV MUL DUP4 MSTORE SWAP2 PUSH1 0x20 ADD SWAP2 PUSH2 0x36F JUMP JUMPDEST DUP3 ADD SWAP2 SWAP1 PUSH0 MSTORE PUSH1 0x20 PUSH0 KECCAK256 SWAP1 JUMPDEST DUP2 SLOAD DUP2 MSTORE SWAP1 PUSH1 0x1 ADD SWAP1 PUSH1 0x20 ADD DUP1 DUP4 GT PUSH2 0x352 JUMPI DUP3 SWAP1 SUB PUSH1 0x1F AND DUP3 ADD SWAP2 JUMPDEST POP POP POP POP POP SWAP1 POP SWAP1 JUMP JUMPDEST PUSH0 DUP1 PUSH2 0x383 PUSH2 0x1010 JUMP JUMPDEST SWAP1 POP PUSH2 0x390 DUP2 DUP6 DUP6 PUSH2 0x1017 JUMP JUMPDEST PUSH1 0x1 SWAP2 POP POP SWAP3 SWAP2 POP POP JUMP JUMPDEST PUSH0 PUSH1 0x2 SLOAD SWAP1 POP SWAP1 JUMP JUMPDEST PUSH0 PUSH20 0xFFFFFFFFFFFFFFFFFFFFFFFFFFFFFFFFFFFFFFFF AND PUSH1 0x5 PUSH0 SWAP1 SLOAD SWAP1 PUSH2 0x100 EXP SWAP1 DIV PUSH20 0xFFFFFFFFFFFFFFFFFFFFFFFFFFFFFFFFFFFFFFFF AND PUSH20 0xFFFFFFFFFFFFFFFFFFFFFFFFFFFFFFFFFFFFFFFF AND EQ DUP1 PUSH2 0x44B JUMPI POP PUSH0 PUSH20 0xFFFFFFFFFFFFFFFFFFFFFFFFFFFFFFFFFFFFFFFF AND PUSH1 0x6 PUSH0 SWAP1 SLOAD SWAP1 PUSH2 0x100 EXP SWAP1 DIV PUSH20 0xFFFFFFFFFFFFFFFFFFFFFFFFFFFFFFFFFFFFFFFF AND PUSH20 0xFFFFFFFFFFFFFFFFFFFFFFFFFFFFFFFFFFFFFFFF AND EQ JUMPDEST PUSH2 0x48A JUMPI PUSH1 0x40 MLOAD PUSH32 0x8C379A000000000000000000000000000000000000000000000000000000000 DUP2 MSTORE PUSH1 0x4 ADD PUSH2 0x481 SWAP1 PUSH2 0x1B5F JUMP JUMPDEST PUSH1 0x40 MLOAD DUP1 SWAP2 SUB SWAP1 REVERT JUMPDEST PUSH1 0x7 SLOAD PUSH2 0x496 CALLER PUSH2 0x7C5 JUMP JUMPDEST LT ISZERO PUSH2 0x4D7 JUMPI PUSH1 0x40 MLOAD PUSH32 0x8C379A000000000000000000000000000000000000000000000000000000000 DUP2 MSTORE PUSH1 0x4 ADD PUSH2 0x4CE SWAP1 PUSH2 0x1BED JUMP JUMPDEST PUSH1 0x40 MLOAD DUP1 SWAP2 SUB SWAP1 REVERT JUMPDEST PUSH0 PUSH20 0xFFFFFFFFFFFFFFFFFFFFFFFFFFFFFFFFFFFFFFFF AND PUSH1 0x5 PUSH0 SWAP1 SLOAD SWAP1 PUSH2 0x100 EXP SWAP1 DIV PUSH20 0xFFFFFFFFFFFFFFFFFFFFFFFFFFFFFFFFFFFFFFFF AND PUSH20 0xFFFFFFFFFFFFFFFFFFFFFFFFFFFFFFFFFFFFFFFF AND SUB PUSH2 0x5B5 JUMPI PUSH1 0x40 MLOAD DUP1 PUSH1 0x40 ADD PUSH1 0x40 MSTORE DUP1 PUSH1 0x12 DUP2 MSTORE PUSH1 0x20 ADD PUSH32 0x506C617965723120726567697374657265640000000000000000000000000000 DUP2 MSTORE POP PUSH1 0x8 SWAP1 DUP2 PUSH2 0x56F SWAP2 SWAP1 PUSH2 0x1DD5 JUMP JUMPDEST POP CALLER PUSH1 0x5 PUSH0 PUSH2 0x100 EXP DUP2 SLOAD DUP2 PUSH20 0xFFFFFFFFFFFFFFFFFFFFFFFFFFFFFFFFFFFFFFFF MUL NOT AND SWAP1 DUP4 PUSH20 0xFFFFFFFFFFFFFFFFFFFFFFFFFFFFFFFFFFFFFFFF AND MUL OR SWAP1 SSTORE POP PUSH2 0x690 JUMP JUMPDEST PUSH0 PUSH20 0xFFFFFFFFFFFFFFFFFFFFFFFFFFFFFFFFFFFFFFFF AND PUSH1 0x6 PUSH0 SWAP1 SLOAD SWAP1 PUSH2 0x100 EXP SWAP1 DIV PUSH20 0xFFFFFFFFFFFFFFFFFFFFFFFFFFFFFFFFFFFFFFFF AND PUSH20 0xFFFFFFFFFFFFFFFFFFFFFFFFFFFFFFFFFFFFFFFF AND SUB PUSH2 0x68F JUMPI PUSH1 0x40 MLOAD DUP1 PUSH1 0x40 ADD PUSH1 0x40 MSTORE DUP1 PUSH1 0x12 DUP2 MSTORE PUSH1 0x20 ADD PUSH32 0x506C617965723220726567697374657265640000000000000000000000000000 DUP2 MSTORE POP PUSH1 0x8 SWAP1 DUP2 PUSH2 0x64D SWAP2 SWAP1 PUSH2 0x1DD5 JUMP JUMPDEST POP CALLER PUSH1 0x6 PUSH0 PUSH2 0x100 EXP DUP2 SLOAD DUP2 PUSH20 0xFFFFFFFFFFFFFFFFFFFFFFFFFFFFFFFFFFFFFFFF MUL NOT AND SWAP1 DUP4 PUSH20 0xFFFFFFFFFFFFFFFFFFFFFFFFFFFFFFFFFFFFFFFF AND MUL OR SWAP1 SSTORE POP JUMPDEST JUMPDEST PUSH0 PUSH20 0xFFFFFFFFFFFFFFFFFFFFFFFFFFFFFFFFFFFFFFFF AND PUSH1 0x5 PUSH0 SWAP1 SLOAD SWAP1 PUSH2 0x100 EXP SWAP1 DIV PUSH20 0xFFFFFFFFFFFFFFFFFFFFFFFFFFFFFFFFFFFFFFFF AND PUSH20 0xFFFFFFFFFFFFFFFFFFFFFFFFFFFFFFFFFFFFFFFF AND EQ ISZERO DUP1 ISZERO PUSH2 0x73A JUMPI POP PUSH0 PUSH20 0xFFFFFFFFFFFFFFFFFFFFFFFFFFFFFFFFFFFFFFFF AND PUSH1 0x6 PUSH0 SWAP1 SLOAD SWAP1 PUSH2 0x100 EXP SWAP1 DIV PUSH20 0xFFFFFFFFFFFFFFFFFFFFFFFFFFFFFFFFFFFFFFFF AND PUSH20 0xFFFFFFFFFFFFFFFFFFFFFFFFFFFFFFFFFFFFFFFF AND EQ ISZERO JUMPDEST ISZERO PUSH2 0x768 JUMPI PUSH1 0x40 MLOAD DUP1 PUSH1 0x60 ADD PUSH1 0x40 MSTORE DUP1 PUSH1 0x2A DUP2 MSTORE PUSH1 0x20 ADD PUSH2 0x2040 PUSH1 0x2A SWAP2 CODECOPY PUSH1 0x8 SWAP1 DUP2 PUSH2 0x766 SWAP2 SWAP1 PUSH2 0x1DD5 JUMP JUMPDEST POP JUMPDEST JUMP JUMPDEST PUSH0 DUP1 PUSH2 0x774 PUSH2 0x1010 JUMP JUMPDEST SWAP1 POP PUSH2 0x781 DUP6 DUP3 DUP6 PUSH2 0x1029 JUMP JUMPDEST PUSH2 0x78C DUP6 DUP6 DUP6 PUSH2 0x10BB JUMP JUMPDEST PUSH1 0x1 SWAP2 POP POP SWAP4 SWAP3 POP POP POP JUMP JUMPDEST PUSH0 PUSH1 0x12 SWAP1 POP SWAP1 JUMP JUMPDEST PUSH1 0x6 PUSH0 SWAP1 SLOAD SWAP1 PUSH2 0x100 EXP SWAP1 DIV PUSH20 0xFFFFFFFFFFFFFFFFFFFFFFFFFFFFFFFFFFFFFFFF AND DUP2 JUMP JUMPDEST PUSH0 DUP1 PUSH0 DUP4 PUSH20 0xFFFFFFFFFFFFFFFFFFFFFFFFFFFFFFFFFFFFFFFF AND PUSH20 0xFFFFFFFFFFFFFFFFFFFFFFFFFFFFFFFFFFFFFFFF AND DUP2 MSTORE PUSH1 0x20 ADD SWAP1 DUP2 MSTORE PUSH1 0x20 ADD PUSH0 KECCAK256 SLOAD SWAP1 POP SWAP2 SWAP1 POP JUMP JUMPDEST PUSH1 0x60 PUSH1 0x4 DUP1 SLOAD PUSH2 0x819 SWAP1 PUSH2 0x1AE5 JUMP JUMPDEST DUP1 PUSH1 0x1F ADD PUSH1 0x20 DUP1 SWAP2 DIV MUL PUSH1 0x20 ADD PUSH1 0x40 MLOAD SWAP1 DUP2 ADD PUSH1 0x40 MSTORE DUP1 SWAP3 SWAP2 SWAP1 DUP2 DUP2 MSTORE PUSH1 0x20 ADD DUP3 DUP1 SLOAD PUSH2 0x845 SWAP1 PUSH2 0x1AE5 JUMP JUMPDEST DUP1 ISZERO PUSH2 0x890 JUMPI DUP1 PUSH1 0x1F LT PUSH2 0x867 JUMPI PUSH2 0x100 DUP1 DUP4 SLOAD DIV MUL DUP4 MSTORE SWAP2 PUSH1 0x20 ADD SWAP2 PUSH2 0x890 JUMP JUMPDEST DUP3 ADD SWAP2 SWAP1 PUSH0 MSTORE PUSH1 0x20 PUSH0 KECCAK256 SWAP1 JUMPDEST DUP2 SLOAD DUP2 MSTORE SWAP1 PUSH1 0x1 ADD SWAP1 PUSH1 0x20 ADD DUP1 DUP4 GT PUSH2 0x873 JUMPI DUP3 SWAP1 SUB PUSH1 0x1F AND DUP3 ADD SWAP2 JUMPDEST POP POP POP POP POP SWAP1 POP SWAP1 JUMP JUMPDEST PUSH0 PUSH1 0x3 DUP2 GT ISZERO PUSH2 0x8AD JUMPI PUSH2 0x8AC PUSH2 0x1EA4 JUMP JUMPDEST JUMPDEST PUSH1 0x5 PUSH1 0x14 SWAP1 SLOAD SWAP1 PUSH2 0x100 EXP SWAP1 DIV PUSH1 0xFF AND PUSH1 0x3 DUP2 GT ISZERO PUSH2 0x8CF JUMPI PUSH2 0x8CE PUSH2 0x1EA4 JUMP JUMPDEST JUMPDEST EQ DUP1 ISZERO PUSH2 0x90E JUMPI POP PUSH0 PUSH1 0x3 DUP2 GT ISZERO PUSH2 0x8EA JUMPI PUSH2 0x8E9 PUSH2 0x1EA4 JUMP JUMPDEST JUMPDEST PUSH1 0x6 PUSH1 0x14 SWAP1 SLOAD SWAP1 PUSH2 0x100 EXP SWAP1 DIV PUSH1 0xFF AND PUSH1 0x3 DUP2 GT ISZERO PUSH2 0x90C JUMPI PUSH2 0x90B PUSH2 0x1EA4 JUMP JUMPDEST JUMPDEST EQ JUMPDEST ISZERO PUSH2 0x940 JUMPI PUSH1 0x40 MLOAD DUP1 PUSH1 0x80 ADD PUSH1 0x40 MSTORE DUP1 PUSH1 0x43 DUP2 MSTORE PUSH1 0x20 ADD PUSH2 0x1FCF PUSH1 0x43 SWAP2 CODECOPY PUSH1 0x8 SWAP1 DUP2 PUSH2 0x93A SWAP2 SWAP1 PUSH2 0x1DD5 JUMP JUMPDEST POP PUSH2 0xB7C JUMP JUMPDEST PUSH1 0x6 PUSH1 0x14 SWAP1 SLOAD SWAP1 PUSH2 0x100 EXP SWAP1 DIV PUSH1 0xFF AND PUSH1 0x3 DUP2 GT ISZERO PUSH2 0x962 JUMPI PUSH2 0x961 PUSH2 0x1EA4 JUMP JUMPDEST JUMPDEST PUSH1 0x5 PUSH1 0x14 SWAP1 SLOAD SWAP1 PUSH2 0x100 EXP SWAP1 DIV PUSH1 0xFF AND PUSH1 0x3 DUP2 GT ISZERO PUSH2 0x984 JUMPI PUSH2 0x983 PUSH2 0x1EA4 JUMP JUMPDEST JUMPDEST SUB PUSH2 0x9CF JUMPI PUSH1 0x40 MLOAD DUP1 PUSH1 0x40 ADD PUSH1 0x40 MSTORE DUP1 PUSH1 0x1D DUP2 MSTORE PUSH1 0x20 ADD PUSH32 0x447261772E2057616974696E6720666F72206E657720706C6179657273000000 DUP2 MSTORE POP PUSH1 0x8 SWAP1 DUP2 PUSH2 0x9CD SWAP2 SWAP1 PUSH2 0x1DD5 JUMP JUMPDEST POP JUMPDEST PUSH2 0x9F7 PUSH1 0x5 PUSH1 0x14 SWAP1 SLOAD SWAP1 PUSH2 0x100 EXP SWAP1 DIV PUSH1 0xFF AND PUSH1 0x6 PUSH1 0x14 SWAP1 SLOAD SWAP1 PUSH2 0x100 EXP SWAP1 DIV PUSH1 0xFF AND PUSH2 0x11AB JUMP JUMPDEST ISZERO PUSH2 0xACE JUMPI PUSH1 0x5 PUSH0 SWAP1 SLOAD SWAP1 PUSH2 0x100 EXP SWAP1 DIV PUSH20 0xFFFFFFFFFFFFFFFFFFFFFFFFFFFFFFFFFFFFFFFF AND PUSH20 0xFFFFFFFFFFFFFFFFFFFFFFFFFFFFFFFFFFFFFFFF AND PUSH1 0x6 PUSH0 SWAP1 SLOAD SWAP1 PUSH2 0x100 EXP SWAP1 DIV PUSH20 0xFFFFFFFFFFFFFFFFFFFFFFFFFFFFFFFFFFFFFFFF AND PUSH20 0xFFFFFFFFFFFFFFFFFFFFFFFFFFFFFFFFFFFFFFFF AND PUSH32 0xDDF252AD1BE2C89B69C2B068FC378DAA952BA7F163C4A11628F55A4DF523B3EF PUSH1 0x7 SLOAD PUSH1 0x40 MLOAD PUSH2 0xA9D SWAP2 SWAP1 PUSH2 0x195F JUMP JUMPDEST PUSH1 0x40 MLOAD DUP1 SWAP2 SUB SWAP1 LOG3 PUSH1 0x40 MLOAD DUP1 PUSH1 0x60 ADD PUSH1 0x40 MSTORE DUP1 PUSH1 0x2E DUP2 MSTORE PUSH1 0x20 ADD PUSH2 0x2012 PUSH1 0x2E SWAP2 CODECOPY PUSH1 0x8 SWAP1 DUP2 PUSH2 0xACC SWAP2 SWAP1 PUSH2 0x1DD5 JUMP JUMPDEST POP JUMPDEST PUSH2 0xAF6 PUSH1 0x6 PUSH1 0x14 SWAP1 SLOAD SWAP1 PUSH2 0x100 EXP SWAP1 DIV PUSH1 0xFF AND PUSH1 0x5 PUSH1 0x14 SWAP1 SLOAD SWAP1 PUSH2 0x100 EXP SWAP1 DIV PUSH1 0xFF AND PUSH2 0x11AB JUMP JUMPDEST ISZERO PUSH2 0xB73 JUMPI PUSH2 0xB4A PUSH1 0x5 PUSH0 SWAP1 SLOAD SWAP1 PUSH2 0x100 EXP SWAP1 DIV PUSH20 0xFFFFFFFFFFFFFFFFFFFFFFFFFFFFFFFFFFFFFFFF AND PUSH1 0x6 PUSH0 SWAP1 SLOAD SWAP1 PUSH2 0x100 EXP SWAP1 DIV PUSH20 0xFFFFFFFFFFFFFFFFFFFFFFFFFFFFFFFFFFFFFFFF AND PUSH1 0x7 SLOAD PUSH2 0x10BB JUMP JUMPDEST PUSH1 0x40 MLOAD DUP1 PUSH1 0x60 ADD PUSH1 0x40 MSTORE DUP1 PUSH1 0x2E DUP2 MSTORE PUSH1 0x20 ADD PUSH2 0x2097 PUSH1 0x2E SWAP2 CODECOPY PUSH1 0x8 SWAP1 DUP2 PUSH2 0xB71 SWAP2 SWAP1 PUSH2 0x1DD5 JUMP JUMPDEST POP JUMPDEST PUSH2 0xB7B PUSH2 0x12E6 JUMP JUMPDEST JUMPDEST JUMP JUMPDEST PUSH0 DUP1 PUSH2 0xB88 PUSH2 0x1010 JUMP JUMPDEST SWAP1 POP PUSH2 0xB95 DUP2 DUP6 DUP6 PUSH2 0x10BB JUMP JUMPDEST PUSH1 0x1 SWAP2 POP POP SWAP3 SWAP2 POP POP JUMP JUMPDEST PUSH1 0x60 PUSH1 0x8 DUP1 SLOAD PUSH2 0xBAF SWAP1 PUSH2 0x1AE5 JUMP JUMPDEST DUP1 PUSH1 0x1F ADD PUSH1 0x20 DUP1 SWAP2 DIV MUL PUSH1 0x20 ADD PUSH1 0x40 MLOAD SWAP1 DUP2 ADD PUSH1 0x40 MSTORE DUP1 SWAP3 SWAP2 SWAP1 DUP2 DUP2 MSTORE PUSH1 0x20 ADD DUP3 DUP1 SLOAD PUSH2 0xBDB SWAP1 PUSH2 0x1AE5 JUMP JUMPDEST DUP1 ISZERO PUSH2 0xC26 JUMPI DUP1 PUSH1 0x1F LT PUSH2 0xBFD JUMPI PUSH2 0x100 DUP1 DUP4 SLOAD DIV MUL DUP4 MSTORE SWAP2 PUSH1 0x20 ADD SWAP2 PUSH2 0xC26 JUMP JUMPDEST DUP3 ADD SWAP2 SWAP1 PUSH0 MSTORE PUSH1 0x20 PUSH0 KECCAK256 SWAP1 JUMPDEST DUP2 SLOAD DUP2 MSTORE SWAP1 PUSH1 0x1 ADD SWAP1 PUSH1 0x20 ADD DUP1 DUP4 GT PUSH2 0xC09 JUMPI DUP3 SWAP1 SUB PUSH1 0x1F AND DUP3 ADD SWAP2 JUMPDEST POP POP POP POP POP SWAP1 POP SWAP1 JUMP JUMPDEST PUSH1 0x5 PUSH0 SWAP1 SLOAD SWAP1 PUSH2 0x100 EXP SWAP1 DIV PUSH20 0xFFFFFFFFFFFFFFFFFFFFFFFFFFFFFFFFFFFFFFFF AND PUSH20 0xFFFFFFFFFFFFFFFFFFFFFFFFFFFFFFFFFFFFFFFF AND CALLER PUSH20 0xFFFFFFFFFFFFFFFFFFFFFFFFFFFFFFFFFFFFFFFF AND EQ DUP1 PUSH2 0xCD7 JUMPI POP PUSH1 0x6 PUSH0 SWAP1 SLOAD SWAP1 PUSH2 0x100 EXP SWAP1 DIV PUSH20 0xFFFFFFFFFFFFFFFFFFFFFFFFFFFFFFFFFFFFFFFF AND PUSH20 0xFFFFFFFFFFFFFFFFFFFFFFFFFFFFFFFFFFFFFFFF AND CALLER PUSH20 0xFFFFFFFFFFFFFFFFFFFFFFFFFFFFFFFFFFFFFFFF AND EQ JUMPDEST PUSH2 0xD16 JUMPI PUSH1 0x40 MLOAD PUSH32 0x8C379A000000000000000000000000000000000000000000000000000000000 DUP2 MSTORE PUSH1 0x4 ADD PUSH2 0xD0D SWAP1 PUSH2 0x1F1B JUMP JUMPDEST PUSH1 0x40 MLOAD DUP1 SWAP2 SUB SWAP1 REVERT JUMPDEST PUSH1 0x5 PUSH0 SWAP1 SLOAD SWAP1 PUSH2 0x100 EXP SWAP1 DIV PUSH20 0xFFFFFFFFFFFFFFFFFFFFFFFFFFFFFFFFFFFFFFFF AND PUSH20 0xFFFFFFFFFFFFFFFFFFFFFFFFFFFFFFFFFFFFFFFF AND CALLER PUSH20 0xFFFFFFFFFFFFFFFFFFFFFFFFFFFFFFFFFFFFFFFF AND SUB PUSH2 0xDEC JUMPI PUSH1 0x40 MLOAD DUP1 PUSH1 0x40 ADD PUSH1 0x40 MSTORE DUP1 PUSH1 0x16 DUP2 MSTORE PUSH1 0x20 ADD PUSH32 0x506C61796572312073656C656374656420696E70757400000000000000000000 DUP2 MSTORE POP PUSH1 0x8 SWAP1 DUP2 PUSH2 0xDAE SWAP2 SWAP1 PUSH2 0x1DD5 JUMP JUMPDEST POP DUP1 PUSH1 0x3 DUP2 GT ISZERO PUSH2 0xDC2 JUMPI PUSH2 0xDC1 PUSH2 0x1EA4 JUMP JUMPDEST JUMPDEST PUSH1 0x5 PUSH1 0x14 PUSH2 0x100 EXP DUP2 SLOAD DUP2 PUSH1 0xFF MUL NOT AND SWAP1 DUP4 PUSH1 0x3 DUP2 GT ISZERO PUSH2 0xDE6 JUMPI PUSH2 0xDE5 PUSH2 0x1EA4 JUMP JUMPDEST JUMPDEST MUL OR SWAP1 SSTORE POP JUMPDEST PUSH1 0x6 PUSH0 SWAP1 SLOAD SWAP1 PUSH2 0x100 EXP SWAP1 DIV PUSH20 0xFFFFFFFFFFFFFFFFFFFFFFFFFFFFFFFFFFFFFFFF AND PUSH20 0xFFFFFFFFFFFFFFFFFFFFFFFFFFFFFFFFFFFFFFFF AND CALLER PUSH20 0xFFFFFFFFFFFFFFFFFFFFFFFFFFFFFFFFFFFFFFFF AND SUB PUSH2 0xEC2 JUMPI PUSH1 0x40 MLOAD DUP1 PUSH1 0x40 ADD PUSH1 0x40 MSTORE DUP1 PUSH1 0x16 DUP2 MSTORE PUSH1 0x20 ADD PUSH32 0x506C61796572322073656C656374656420696E70757400000000000000000000 DUP2 MSTORE POP PUSH1 0x8 SWAP1 DUP2 PUSH2 0xE84 SWAP2 SWAP1 PUSH2 0x1DD5 JUMP JUMPDEST POP DUP1 PUSH1 0x3 DUP2 GT ISZERO PUSH2 0xE98 JUMPI PUSH2 0xE97 PUSH2 0x1EA4 JUMP JUMPDEST JUMPDEST PUSH1 0x6 PUSH1 0x14 PUSH2 0x100 EXP DUP2 SLOAD DUP2 PUSH1 0xFF MUL NOT AND SWAP1 DUP4 PUSH1 0x3 DUP2 GT ISZERO PUSH2 0xEBC JUMPI PUSH2 0xEBB PUSH2 0x1EA4 JUMP JUMPDEST JUMPDEST MUL OR SWAP1 SSTORE POP JUMPDEST PUSH0 PUSH1 0x3 DUP2 GT ISZERO PUSH2 0xED5 JUMPI PUSH2 0xED4 PUSH2 0x1EA4 JUMP JUMPDEST JUMPDEST PUSH1 0x5 PUSH1 0x14 SWAP1 SLOAD SWAP1 PUSH2 0x100 EXP SWAP1 DIV PUSH1 0xFF AND PUSH1 0x3 DUP2 GT ISZERO PUSH2 0xEF7 JUMPI PUSH2 0xEF6 PUSH2 0x1EA4 JUMP JUMPDEST JUMPDEST EQ ISZERO DUP1 ISZERO PUSH2 0xF38 JUMPI POP PUSH0 PUSH1 0x3 DUP2 GT ISZERO PUSH2 0xF13 JUMPI PUSH2 0xF12 PUSH2 0x1EA4 JUMP JUMPDEST JUMPDEST PUSH1 0x6 PUSH1 0x14 SWAP1 SLOAD SWAP1 PUSH2 0x100 EXP SWAP1 DIV PUSH1 0xFF AND PUSH1 0x3 DUP2 GT ISZERO PUSH2 0xF35 JUMPI PUSH2 0xF34 PUSH2 0x1EA4 JUMP JUMPDEST JUMPDEST EQ ISZERO JUMPDEST ISZERO PUSH2 0xF66 JUMPI PUSH1 0x40 MLOAD DUP1 PUSH1 0x60 ADD PUSH1 0x40 MSTORE DUP1 PUSH1 0x2D DUP2 MSTORE PUSH1 0x20 ADD PUSH2 0x206A PUSH1 0x2D SWAP2 CODECOPY PUSH1 0x8 SWAP1 DUP2 PUSH2 0xF64 SWAP2 SWAP1 PUSH2 0x1DD5 JUMP JUMPDEST POP JUMPDEST POP JUMP JUMPDEST PUSH1 0x5 PUSH0 SWAP1 SLOAD SWAP1 PUSH2 0x100 EXP SWAP1 DIV PUSH20 0xFFFFFFFFFFFFFFFFFFFFFFFFFFFFFFFFFFFFFFFF AND DUP2 JUMP JUMPDEST PUSH0 PUSH1 0x1 PUSH0 DUP5 PUSH20 0xFFFFFFFFFFFFFFFFFFFFFFFFFFFFFFFFFFFFFFFF AND PUSH20 0xFFFFFFFFFFFFFFFFFFFFFFFFFFFFFFFFFFFFFFFF AND DUP2 MSTORE PUSH1 0x20 ADD SWAP1 DUP2 MSTORE PUSH1 0x20 ADD PUSH0 KECCAK256 PUSH0 DUP4 PUSH20 0xFFFFFFFFFFFFFFFFFFFFFFFFFFFFFFFFFFFFFFFF AND PUSH20 0xFFFFFFFFFFFFFFFFFFFFFFFFFFFFFFFFFFFFFFFF AND DUP2 MSTORE PUSH1 0x20 ADD SWAP1 DUP2 MSTORE PUSH1 0x20 ADD PUSH0 KECCAK256 SLOAD SWAP1 POP SWAP3 SWAP2 POP POP JUMP JUMPDEST PUSH0 CALLER SWAP1 POP SWAP1 JUMP JUMPDEST PUSH2 0x1024 DUP4 DUP4 DUP4 PUSH1 0x1 PUSH2 0x13BC JUMP JUMPDEST POP POP POP JUMP JUMPDEST PUSH0 PUSH2 0x1034 DUP5 DUP5 PUSH2 0xF8E JUMP JUMPDEST SWAP1 POP PUSH32 0xFFFFFFFFFFFFFFFFFFFFFFFFFFFFFFFFFFFFFFFFFFFFFFFFFFFFFFFFFFFFFFFF DUP2 EQ PUSH2 0x10B5 JUMPI DUP2 DUP2 LT ISZERO PUSH2 0x10A6 JUMPI DUP3 DUP2 DUP4 PUSH1 0x40 MLOAD PUSH32 0xFB8F41B200000000000000000000000000000000000000000000000000000000 DUP2 MSTORE PUSH1 0x4 ADD PUSH2 0x109D SWAP4 SWAP3 SWAP2 SWAP1 PUSH2 0x1F39 JUMP JUMPDEST PUSH1 0x40 MLOAD DUP1 SWAP2 SUB SWAP1 REVERT JUMPDEST PUSH2 0x10B4 DUP5 DUP5 DUP5 DUP5 SUB PUSH0 PUSH2 0x13BC JUMP JUMPDEST JUMPDEST POP POP POP POP JUMP JUMPDEST PUSH0 PUSH20 0xFFFFFFFFFFFFFFFFFFFFFFFFFFFFFFFFFFFFFFFF AND DUP4 PUSH20 0xFFFFFFFFFFFFFFFFFFFFFFFFFFFFFFFFFFFFFFFF AND SUB PUSH2 0x112B JUMPI PUSH0 PUSH1 0x40 MLOAD PUSH32 0x96C6FD1E00000000000000000000000000000000000000000000000000000000 DUP2 MSTORE PUSH1 0x4 ADD PUSH2 0x1122 SWAP2 SWAP1 PUSH2 0x1A0B JUMP JUMPDEST PUSH1 0x40 MLOAD DUP1 SWAP2 SUB SWAP1 REVERT JUMPDEST PUSH0 PUSH20 0xFFFFFFFFFFFFFFFFFFFFFFFFFFFFFFFFFFFFFFFF AND DUP3 PUSH20 0xFFFFFFFFFFFFFFFFFFFFFFFFFFFFFFFFFFFFFFFF AND SUB PUSH2 0x119B JUMPI PUSH0 PUSH1 0x40 MLOAD PUSH32 0xEC442F0500000000000000000000000000000000000000000000000000000000 DUP2 MSTORE PUSH1 0x4 ADD PUSH2 0x1192 SWAP2 SWAP1 PUSH2 0x1A0B JUMP JUMPDEST PUSH1 0x40 MLOAD DUP1 SWAP2 SUB SWAP1 REVERT JUMPDEST PUSH2 0x11A6 DUP4 DUP4 DUP4 PUSH2 0x158B JUMP JUMPDEST POP POP POP JUMP JUMPDEST PUSH0 PUSH1 0x1 PUSH1 0x3 DUP2 GT ISZERO PUSH2 0x11C0 JUMPI PUSH2 0x11BF PUSH2 0x1EA4 JUMP JUMPDEST JUMPDEST DUP4 PUSH1 0x3 DUP2 GT ISZERO PUSH2 0x11D3 JUMPI PUSH2 0x11D2 PUSH2 0x1EA4 JUMP JUMPDEST JUMPDEST EQ DUP1 ISZERO PUSH2 0x1203 JUMPI POP PUSH1 0x3 DUP1 DUP2 GT ISZERO PUSH2 0x11EE JUMPI PUSH2 0x11ED PUSH2 0x1EA4 JUMP JUMPDEST JUMPDEST DUP3 PUSH1 0x3 DUP2 GT ISZERO PUSH2 0x1201 JUMPI PUSH2 0x1200 PUSH2 0x1EA4 JUMP JUMPDEST JUMPDEST EQ JUMPDEST ISZERO PUSH2 0x1211 JUMPI PUSH1 0x1 SWAP1 POP PUSH2 0x12E0 JUMP JUMPDEST PUSH1 0x2 PUSH1 0x3 DUP2 GT ISZERO PUSH2 0x1225 JUMPI PUSH2 0x1224 PUSH2 0x1EA4 JUMP JUMPDEST JUMPDEST DUP4 PUSH1 0x3 DUP2 GT ISZERO PUSH2 0x1238 JUMPI PUSH2 0x1237 PUSH2 0x1EA4 JUMP JUMPDEST JUMPDEST EQ DUP1 ISZERO PUSH2 0x1269 JUMPI POP PUSH1 0x1 PUSH1 0x3 DUP2 GT ISZERO PUSH2 0x1254 JUMPI PUSH2 0x1253 PUSH2 0x1EA4 JUMP JUMPDEST JUMPDEST DUP3 PUSH1 0x3 DUP2 GT ISZERO PUSH2 0x1267 JUMPI PUSH2 0x1266 PUSH2 0x1EA4 JUMP JUMPDEST JUMPDEST EQ JUMPDEST ISZERO PUSH2 0x1277 JUMPI PUSH1 0x1 SWAP1 POP PUSH2 0x12E0 JUMP JUMPDEST PUSH1 0x3 DUP1 DUP2 GT ISZERO PUSH2 0x128A JUMPI PUSH2 0x1289 PUSH2 0x1EA4 JUMP JUMPDEST JUMPDEST DUP4 PUSH1 0x3 DUP2 GT ISZERO PUSH2 0x129D JUMPI PUSH2 0x129C PUSH2 0x1EA4 JUMP JUMPDEST JUMPDEST EQ DUP1 ISZERO PUSH2 0x12CE JUMPI POP PUSH1 0x2 PUSH1 0x3 DUP2 GT ISZERO PUSH2 0x12B9 JUMPI PUSH2 0x12B8 PUSH2 0x1EA4 JUMP JUMPDEST JUMPDEST DUP3 PUSH1 0x3 DUP2 GT ISZERO PUSH2 0x12CC JUMPI PUSH2 0x12CB PUSH2 0x1EA4 JUMP JUMPDEST JUMPDEST EQ JUMPDEST ISZERO PUSH2 0x12DC JUMPI PUSH1 0x1 SWAP1 POP PUSH2 0x12E0 JUMP JUMPDEST PUSH0 SWAP1 POP JUMPDEST SWAP3 SWAP2 POP POP JUMP JUMPDEST PUSH0 PUSH1 0x5 PUSH0 PUSH2 0x100 EXP DUP2 SLOAD DUP2 PUSH20 0xFFFFFFFFFFFFFFFFFFFFFFFFFFFFFFFFFFFFFFFF MUL NOT AND SWAP1 DUP4 PUSH20 0xFFFFFFFFFFFFFFFFFFFFFFFFFFFFFFFFFFFFFFFF AND MUL OR SWAP1 SSTORE POP PUSH0 PUSH1 0x6 PUSH0 PUSH2 0x100 EXP DUP2 SLOAD DUP2 PUSH20 0xFFFFFFFFFFFFFFFFFFFFFFFFFFFFFFFFFFFFFFFF MUL NOT AND SWAP1 DUP4 PUSH20 0xFFFFFFFFFFFFFFFFFFFFFFFFFFFFFFFFFFFFFFFF AND MUL OR SWAP1 SSTORE POP PUSH0 PUSH1 0x5 PUSH1 0x14 PUSH2 0x100 EXP DUP2 SLOAD DUP2 PUSH1 0xFF MUL NOT AND SWAP1 DUP4 PUSH1 0x3 DUP2 GT ISZERO PUSH2 0x138B JUMPI PUSH2 0x138A PUSH2 0x1EA4 JUMP JUMPDEST JUMPDEST MUL OR SWAP1 SSTORE POP PUSH0 PUSH1 0x6 PUSH1 0x14 PUSH2 0x100 EXP DUP2 SLOAD DUP2 PUSH1 0xFF MUL NOT AND SWAP1 DUP4 PUSH1 0x3 DUP2 GT ISZERO PUSH2 0x13B5 JUMPI PUSH2 0x13B4 PUSH2 0x1EA4 JUMP JUMPDEST JUMPDEST MUL OR SWAP1 SSTORE POP JUMP JUMPDEST PUSH0 PUSH20 0xFFFFFFFFFFFFFFFFFFFFFFFFFFFFFFFFFFFFFFFF AND DUP5 PUSH20 0xFFFFFFFFFFFFFFFFFFFFFFFFFFFFFFFFFFFFFFFF AND SUB PUSH2 0x142C JUMPI PUSH0 PUSH1 0x40 MLOAD PUSH32 0xE602DF0500000000000000000000000000000000000000000000000000000000 DUP2 MSTORE PUSH1 0x4 ADD PUSH2 0x1423 SWAP2 SWAP1 PUSH2 0x1A0B JUMP JUMPDEST PUSH1 0x40 MLOAD DUP1 SWAP2 SUB SWAP1 REVERT JUMPDEST PUSH0 PUSH20 0xFFFFFFFFFFFFFFFFFFFFFFFFFFFFFFFFFFFFFFFF AND DUP4 PUSH20 0xFFFFFFFFFFFFFFFFFFFFFFFFFFFFFFFFFFFFFFFF AND SUB PUSH2 0x149C JUMPI PUSH0 PUSH1 0x40 MLOAD PUSH32 0x94280D6200000000000000000000000000000000000000000000000000000000 DUP2 MSTORE PUSH1 0x4 ADD PUSH2 0x1493 SWAP2 SWAP1 PUSH2 0x1A0B JUMP JUMPDEST PUSH1 0x40 MLOAD DUP1 SWAP2 SUB SWAP1 REVERT JUMPDEST DUP2 PUSH1 0x1 PUSH0 DUP7 PUSH20 0xFFFFFFFFFFFFFFFFFFFFFFFFFFFFFFFFFFFFFFFF AND PUSH20 0xFFFFFFFFFFFFFFFFFFFFFFFFFFFFFFFFFFFFFFFF AND DUP2 MSTORE PUSH1 0x20 ADD SWAP1 DUP2 MSTORE PUSH1 0x20 ADD PUSH0 KECCAK256 PUSH0 DUP6 PUSH20 0xFFFFFFFFFFFFFFFFFFFFFFFFFFFFFFFFFFFFFFFF AND PUSH20 0xFFFFFFFFFFFFFFFFFFFFFFFFFFFFFFFFFFFFFFFF AND DUP2 MSTORE PUSH1 0x20 ADD SWAP1 DUP2 MSTORE PUSH1 0x20 ADD PUSH0 KECCAK256 DUP2 SWAP1 SSTORE POP DUP1 ISZERO PUSH2 0x1585 JUMPI DUP3 PUSH20 0xFFFFFFFFFFFFFFFFFFFFFFFFFFFFFFFFFFFFFFFF AND DUP5 PUSH20 0xFFFFFFFFFFFFFFFFFFFFFFFFFFFFFFFFFFFFFFFF AND PUSH32 0x8C5BE1E5EBEC7D5BD14F71427D1E84F3DD0314C0F7B2291E5B200AC8C7C3B925 DUP5 PUSH1 0x40 MLOAD PUSH2 0x157C SWAP2 SWAP1 PUSH2 0x195F JUMP JUMPDEST PUSH1 0x40 MLOAD DUP1 SWAP2 SUB SWAP1 LOG3 JUMPDEST POP POP POP POP JUMP JUMPDEST PUSH0 PUSH20 0xFFFFFFFFFFFFFFFFFFFFFFFFFFFFFFFFFFFFFFFF AND DUP4 PUSH20 0xFFFFFFFFFFFFFFFFFFFFFFFFFFFFFFFFFFFFFFFF AND SUB PUSH2 0x15DB JUMPI DUP1 PUSH1 0x2 PUSH0 DUP3 DUP3 SLOAD PUSH2 0x15CF SWAP2 SWAP1 PUSH2 0x1F9B JUMP JUMPDEST SWAP3 POP POP DUP2 SWAP1 SSTORE POP PUSH2 0x16A9 JUMP JUMPDEST PUSH0 DUP1 PUSH0 DUP6 PUSH20 0xFFFFFFFFFFFFFFFFFFFFFFFFFFFFFFFFFFFFFFFF AND PUSH20 0xFFFFFFFFFFFFFFFFFFFFFFFFFFFFFFFFFFFFFFFF AND DUP2 MSTORE PUSH1 0x20 ADD SWAP1 DUP2 MSTORE PUSH1 0x20 ADD PUSH0 KECCAK256 SLOAD SWAP1 POP DUP2 DUP2 LT ISZERO PUSH2 0x1664 JUMPI DUP4 DUP2 DUP4 PUSH1 0x40 MLOAD PUSH32 0xE450D38C00000000000000000000000000000000000000000000000000000000 DUP2 MSTORE PUSH1 0x4 ADD PUSH2 0x165B SWAP4 SWAP3 SWAP2 SWAP1 PUSH2 0x1F39 JUMP JUMPDEST PUSH1 0x40 MLOAD DUP1 SWAP2 SUB SWAP1 REVERT JUMPDEST DUP2 DUP2 SUB PUSH0 DUP1 DUP7 PUSH20 0xFFFFFFFFFFFFFFFFFFFFFFFFFFFFFFFFFFFFFFFF AND PUSH20 0xFFFFFFFFFFFFFFFFFFFFFFFFFFFFFFFFFFFFFFFF AND DUP2 MSTORE PUSH1 0x20 ADD SWAP1 DUP2 MSTORE PUSH1 0x20 ADD PUSH0 KECCAK256 DUP2 SWAP1 SSTORE POP POP JUMPDEST PUSH0 PUSH20 0xFFFFFFFFFFFFFFFFFFFFFFFFFFFFFFFFFFFFFFFF AND DUP3 PUSH20 0xFFFFFFFFFFFFFFFFFFFFFFFFFFFFFFFFFFFFFFFF AND SUB PUSH2 0x16F0 JUMPI DUP1 PUSH1 0x2 PUSH0 DUP3 DUP3 SLOAD SUB SWAP3 POP POP DUP2 SWAP1 SSTORE POP PUSH2 0x173A JUMP JUMPDEST DUP1 PUSH0 DUP1 DUP5 PUSH20 0xFFFFFFFFFFFFFFFFFFFFFFFFFFFFFFFFFFFFFFFF AND PUSH20 0xFFFFFFFFFFFFFFFFFFFFFFFFFFFFFFFFFFFFFFFF AND DUP2 MSTORE PUSH1 0x20 ADD SWAP1 DUP2 MSTORE PUSH1 0x20 ADD PUSH0 KECCAK256 PUSH0 DUP3 DUP3 SLOAD ADD SWAP3 POP POP DUP2 SWAP1 SSTORE POP JUMPDEST DUP2 PUSH20 0xFFFFFFFFFFFFFFFFFFFFFFFFFFFFFFFFFFFFFFFF AND DUP4 PUSH20 0xFFFFFFFFFFFFFFFFFFFFFFFFFFFFFFFFFFFFFFFF AND PUSH32 0xDDF252AD1BE2C89B69C2B068FC378DAA952BA7F163C4A11628F55A4DF523B3EF DUP4 PUSH1 0x40 MLOAD PUSH2 0x1797 SWAP2 SWAP1 PUSH2 0x195F JUMP JUMPDEST PUSH1 0x40 MLOAD DUP1 SWAP2 SUB SWAP1 LOG3 POP POP POP JUMP JUMPDEST PUSH0 DUP2 MLOAD SWAP1 POP SWAP2 SWAP1 POP JUMP JUMPDEST PUSH0 DUP3 DUP3 MSTORE PUSH1 0x20 DUP3 ADD SWAP1 POP SWAP3 SWAP2 POP POP JUMP JUMPDEST PUSH0 JUMPDEST DUP4 DUP2 LT ISZERO PUSH2 0x17DB JUMPI DUP1 DUP3 ADD MLOAD DUP2 DUP5 ADD MSTORE PUSH1 0x20 DUP2 ADD SWAP1 POP PUSH2 0x17C0 JUMP JUMPDEST PUSH0 DUP5 DUP5 ADD MSTORE POP POP POP POP JUMP JUMPDEST PUSH0 PUSH1 0x1F NOT PUSH1 0x1F DUP4 ADD AND SWAP1 POP SWAP2 SWAP1 POP JUMP JUMPDEST PUSH0 PUSH2 0x1800 DUP3 PUSH2 0x17A4 JUMP JUMPDEST PUSH2 0x180A DUP2 DUP6 PUSH2 0x17AE JUMP JUMPDEST SWAP4 POP PUSH2 0x181A DUP2 DUP6 PUSH1 0x20 DUP7 ADD PUSH2 0x17BE JUMP JUMPDEST PUSH2 0x1823 DUP2 PUSH2 0x17E6 JUMP JUMPDEST DUP5 ADD SWAP2 POP POP SWAP3 SWAP2 POP POP JUMP JUMPDEST PUSH0 PUSH1 0x20 DUP3 ADD SWAP1 POP DUP2 DUP2 SUB PUSH0 DUP4 ADD MSTORE PUSH2 0x1846 DUP2 DUP5 PUSH2 0x17F6 JUMP JUMPDEST SWAP1 POP SWAP3 SWAP2 POP POP JUMP JUMPDEST PUSH0 DUP1 REVERT JUMPDEST PUSH0 PUSH20 0xFFFFFFFFFFFFFFFFFFFFFFFFFFFFFFFFFFFFFFFF DUP3 AND SWAP1 POP SWAP2 SWAP1 POP JUMP JUMPDEST PUSH0 PUSH2 0x187B DUP3 PUSH2 0x1852 JUMP JUMPDEST SWAP1 POP SWAP2 SWAP1 POP JUMP JUMPDEST PUSH2 0x188B DUP2 PUSH2 0x1871 JUMP JUMPDEST DUP2 EQ PUSH2 0x1895 JUMPI PUSH0 DUP1 REVERT JUMPDEST POP JUMP JUMPDEST PUSH0 DUP2 CALLDATALOAD SWAP1 POP PUSH2 0x18A6 DUP2 PUSH2 0x1882 JUMP JUMPDEST SWAP3 SWAP2 POP POP JUMP JUMPDEST PUSH0 DUP2 SWAP1 POP SWAP2 SWAP1 POP JUMP JUMPDEST PUSH2 0x18BE DUP2 PUSH2 0x18AC JUMP JUMPDEST DUP2 EQ PUSH2 0x18C8 JUMPI PUSH0 DUP1 REVERT JUMPDEST POP JUMP JUMPDEST PUSH0 DUP2 CALLDATALOAD SWAP1 POP PUSH2 0x18D9 DUP2 PUSH2 0x18B5 JUMP JUMPDEST SWAP3 SWAP2 POP POP JUMP JUMPDEST PUSH0 DUP1 PUSH1 0x40 DUP4 DUP6 SUB SLT ISZERO PUSH2 0x18F5 JUMPI PUSH2 0x18F4 PUSH2 0x184E JUMP JUMPDEST JUMPDEST PUSH0 PUSH2 0x1902 DUP6 DUP3 DUP7 ADD PUSH2 0x1898 JUMP JUMPDEST SWAP3 POP POP PUSH1 0x20 PUSH2 0x1913 DUP6 DUP3 DUP7 ADD PUSH2 0x18CB JUMP JUMPDEST SWAP2 POP POP SWAP3 POP SWAP3 SWAP1 POP JUMP JUMPDEST PUSH0 DUP2 ISZERO ISZERO SWAP1 POP SWAP2 SWAP1 POP JUMP JUMPDEST PUSH2 0x1931 DUP2 PUSH2 0x191D JUMP JUMPDEST DUP3 MSTORE POP POP JUMP JUMPDEST PUSH0 PUSH1 0x20 DUP3 ADD SWAP1 POP PUSH2 0x194A PUSH0 DUP4 ADD DUP5 PUSH2 0x1928 JUMP JUMPDEST SWAP3 SWAP2 POP POP JUMP JUMPDEST PUSH2 0x1959 DUP2 PUSH2 0x18AC JUMP JUMPDEST DUP3 MSTORE POP POP JUMP JUMPDEST PUSH0 PUSH1 0x20 DUP3 ADD SWAP1 POP PUSH2 0x1972 PUSH0 DUP4 ADD DUP5 PUSH2 0x1950 JUMP JUMPDEST SWAP3 SWAP2 POP POP JUMP JUMPDEST PUSH0 DUP1 PUSH0 PUSH1 0x60 DUP5 DUP7 SUB SLT ISZERO PUSH2 0x198F JUMPI PUSH2 0x198E PUSH2 0x184E JUMP JUMPDEST JUMPDEST PUSH0 PUSH2 0x199C DUP7 DUP3 DUP8 ADD PUSH2 0x1898 JUMP JUMPDEST SWAP4 POP POP PUSH1 0x20 PUSH2 0x19AD DUP7 DUP3 DUP8 ADD PUSH2 0x1898 JUMP JUMPDEST SWAP3 POP POP PUSH1 0x40 PUSH2 0x19BE DUP7 DUP3 DUP8 ADD PUSH2 0x18CB JUMP JUMPDEST SWAP2 POP POP SWAP3 POP SWAP3 POP SWAP3 JUMP JUMPDEST PUSH0 PUSH1 0xFF DUP3 AND SWAP1 POP SWAP2 SWAP1 POP JUMP JUMPDEST PUSH2 0x19DD DUP2 PUSH2 0x19C8 JUMP JUMPDEST DUP3 MSTORE POP POP JUMP JUMPDEST PUSH0 PUSH1 0x20 DUP3 ADD SWAP1 POP PUSH2 0x19F6 PUSH0 DUP4 ADD DUP5 PUSH2 0x19D4 JUMP JUMPDEST SWAP3 SWAP2 POP POP JUMP JUMPDEST PUSH2 0x1A05 DUP2 PUSH2 0x1871 JUMP JUMPDEST DUP3 MSTORE POP POP JUMP JUMPDEST PUSH0 PUSH1 0x20 DUP3 ADD SWAP1 POP PUSH2 0x1A1E PUSH0 DUP4 ADD DUP5 PUSH2 0x19FC JUMP JUMPDEST SWAP3 SWAP2 POP POP JUMP JUMPDEST PUSH0 PUSH1 0x20 DUP3 DUP5 SUB SLT ISZERO PUSH2 0x1A39 JUMPI PUSH2 0x1A38 PUSH2 0x184E JUMP JUMPDEST JUMPDEST PUSH0 PUSH2 0x1A46 DUP5 DUP3 DUP6 ADD PUSH2 0x1898 JUMP JUMPDEST SWAP2 POP POP SWAP3 SWAP2 POP POP JUMP JUMPDEST PUSH0 PUSH1 0x20 DUP3 DUP5 SUB SLT ISZERO PUSH2 0x1A64 JUMPI PUSH2 0x1A63 PUSH2 0x184E JUMP JUMPDEST JUMPDEST PUSH0 PUSH2 0x1A71 DUP5 DUP3 DUP6 ADD PUSH2 0x18CB JUMP JUMPDEST SWAP2 POP POP SWAP3 SWAP2 POP POP JUMP JUMPDEST PUSH0 DUP1 PUSH1 0x40 DUP4 DUP6 SUB SLT ISZERO PUSH2 0x1A90 JUMPI PUSH2 0x1A8F PUSH2 0x184E JUMP JUMPDEST JUMPDEST PUSH0 PUSH2 0x1A9D DUP6 DUP3 DUP7 ADD PUSH2 0x1898 JUMP JUMPDEST SWAP3 POP POP PUSH1 0x20 PUSH2 0x1AAE DUP6 DUP3 DUP7 ADD PUSH2 0x1898 JUMP JUMPDEST SWAP2 POP POP SWAP3 POP SWAP3 SWAP1 POP JUMP JUMPDEST PUSH32 0x4E487B7100000000000000000000000000000000000000000000000000000000 PUSH0 MSTORE PUSH1 0x22 PUSH1 0x4 MSTORE PUSH1 0x24 PUSH0 REVERT JUMPDEST PUSH0 PUSH1 0x2 DUP3 DIV SWAP1 POP PUSH1 0x1 DUP3 AND DUP1 PUSH2 0x1AFC JUMPI PUSH1 0x7F DUP3 AND SWAP2 POP JUMPDEST PUSH1 0x20 DUP3 LT DUP2 SUB PUSH2 0x1B0F JUMPI PUSH2 0x1B0E PUSH2 0x1AB8 JUMP JUMPDEST JUMPDEST POP SWAP2 SWAP1 POP JUMP JUMPDEST PUSH32 0x47616D65206C6F6262792069732066756C6C0000000000000000000000000000 PUSH0 DUP3 ADD MSTORE POP JUMP JUMPDEST PUSH0 PUSH2 0x1B49 PUSH1 0x12 DUP4 PUSH2 0x17AE JUMP JUMPDEST SWAP2 POP PUSH2 0x1B54 DUP3 PUSH2 0x1B15 JUMP JUMPDEST PUSH1 0x20 DUP3 ADD SWAP1 POP SWAP2 SWAP1 POP JUMP JUMPDEST PUSH0 PUSH1 0x20 DUP3 ADD SWAP1 POP DUP2 DUP2 SUB PUSH0 DUP4 ADD MSTORE PUSH2 0x1B76 DUP2 PUSH2 0x1B3D JUMP JUMPDEST SWAP1 POP SWAP2 SWAP1 POP JUMP JUMPDEST PUSH32 0x596F7520646F206E6F74206861766520656E6F756768206D6F6E657920746F20 PUSH0 DUP3 ADD MSTORE PUSH32 0x6265740000000000000000000000000000000000000000000000000000000000 PUSH1 0x20 DUP3 ADD MSTORE POP JUMP JUMPDEST PUSH0 PUSH2 0x1BD7 PUSH1 0x23 DUP4 PUSH2 0x17AE JUMP JUMPDEST SWAP2 POP PUSH2 0x1BE2 DUP3 PUSH2 0x1B7D JUMP JUMPDEST PUSH1 0x40 DUP3 ADD SWAP1 POP SWAP2 SWAP1 POP JUMP JUMPDEST PUSH0 PUSH1 0x20 DUP3 ADD SWAP1 POP DUP2 DUP2 SUB PUSH0 DUP4 ADD MSTORE PUSH2 0x1C04 DUP2 PUSH2 0x1BCB JUMP JUMPDEST SWAP1 POP SWAP2 SWAP1 POP JUMP JUMPDEST PUSH32 0x4E487B7100000000000000000000000000000000000000000000000000000000 PUSH0 MSTORE PUSH1 0x41 PUSH1 0x4 MSTORE PUSH1 0x24 PUSH0 REVERT JUMPDEST PUSH0 DUP2 SWAP1 POP DUP2 PUSH0 MSTORE PUSH1 0x20 PUSH0 KECCAK256 SWAP1 POP SWAP2 SWAP1 POP JUMP JUMPDEST PUSH0 PUSH1 0x20 PUSH1 0x1F DUP4 ADD DIV SWAP1 POP SWAP2 SWAP1 POP JUMP JUMPDEST PUSH0 DUP3 DUP3 SHL SWAP1 POP SWAP3 SWAP2 POP POP JUMP JUMPDEST PUSH0 PUSH1 0x8 DUP4 MUL PUSH2 0x1C94 PUSH32 0xFFFFFFFFFFFFFFFFFFFFFFFFFFFFFFFFFFFFFFFFFFFFFFFFFFFFFFFFFFFFFFFF DUP3 PUSH2 0x1C59 JUMP JUMPDEST PUSH2 0x1C9E DUP7 DUP4 PUSH2 0x1C59 JUMP JUMPDEST SWAP6 POP DUP1 NOT DUP5 AND SWAP4 POP DUP1 DUP7 AND DUP5 OR SWAP3 POP POP POP SWAP4 SWAP3 POP POP POP JUMP JUMPDEST PUSH0 DUP2 SWAP1 POP SWAP2 SWAP1 POP JUMP JUMPDEST PUSH0 PUSH2 0x1CD9 PUSH2 0x1CD4 PUSH2 0x1CCF DUP5 PUSH2 0x18AC JUMP JUMPDEST PUSH2 0x1CB6 JUMP JUMPDEST PUSH2 0x18AC JUMP JUMPDEST SWAP1 POP SWAP2 SWAP1 POP JUMP JUMPDEST PUSH0 DUP2 SWAP1 POP SWAP2 SWAP1 POP JUMP JUMPDEST PUSH2 0x1CF2 DUP4 PUSH2 0x1CBF JUMP JUMPDEST PUSH2 0x1D06 PUSH2 0x1CFE DUP3 PUSH2 0x1CE0 JUMP JUMPDEST DUP5 DUP5 SLOAD PUSH2 0x1C65 JUMP JUMPDEST DUP3 SSTORE POP POP POP POP JUMP JUMPDEST PUSH0 SWAP1 JUMP JUMPDEST PUSH2 0x1D1A PUSH2 0x1D0E JUMP JUMPDEST PUSH2 0x1D25 DUP2 DUP5 DUP5 PUSH2 0x1CE9 JUMP JUMPDEST POP POP POP JUMP JUMPDEST JUMPDEST DUP2 DUP2 LT ISZERO PUSH2 0x1D48 JUMPI PUSH2 0x1D3D PUSH0 DUP3 PUSH2 0x1D12 JUMP JUMPDEST PUSH1 0x1 DUP2 ADD SWAP1 POP PUSH2 0x1D2B JUMP JUMPDEST POP POP JUMP JUMPDEST PUSH1 0x1F DUP3 GT ISZERO PUSH2 0x1D8D JUMPI PUSH2 0x1D5E DUP2 PUSH2 0x1C38 JUMP JUMPDEST PUSH2 0x1D67 DUP5 PUSH2 0x1C4A JUMP JUMPDEST DUP2 ADD PUSH1 0x20 DUP6 LT ISZERO PUSH2 0x1D76 JUMPI DUP2 SWAP1 POP JUMPDEST PUSH2 0x1D8A PUSH2 0x1D82 DUP6 PUSH2 0x1C4A JUMP JUMPDEST DUP4 ADD DUP3 PUSH2 0x1D2A JUMP JUMPDEST POP POP JUMPDEST POP POP POP JUMP JUMPDEST PUSH0 DUP3 DUP3 SHR SWAP1 POP SWAP3 SWAP2 POP POP JUMP JUMPDEST PUSH0 PUSH2 0x1DAD PUSH0 NOT DUP5 PUSH1 0x8 MUL PUSH2 0x1D92 JUMP JUMPDEST NOT DUP1 DUP4 AND SWAP2 POP POP SWAP3 SWAP2 POP POP JUMP JUMPDEST PUSH0 PUSH2 0x1DC5 DUP4 DUP4 PUSH2 0x1D9E JUMP JUMPDEST SWAP2 POP DUP3 PUSH1 0x2 MUL DUP3 OR SWAP1 POP SWAP3 SWAP2 POP POP JUMP JUMPDEST PUSH2 0x1DDE DUP3 PUSH2 0x17A4 JUMP JUMPDEST PUSH8 0xFFFFFFFFFFFFFFFF DUP2 GT ISZERO PUSH2 0x1DF7 JUMPI PUSH2 0x1DF6 PUSH2 0x1C0B JUMP JUMPDEST JUMPDEST PUSH2 0x1E01 DUP3 SLOAD PUSH2 0x1AE5 JUMP JUMPDEST PUSH2 0x1E0C DUP3 DUP3 DUP6 PUSH2 0x1D4C JUMP JUMPDEST PUSH0 PUSH1 0x20 SWAP1 POP PUSH1 0x1F DUP4 GT PUSH1 0x1 DUP2 EQ PUSH2 0x1E3D JUMPI PUSH0 DUP5 ISZERO PUSH2 0x1E2B JUMPI DUP3 DUP8 ADD MLOAD SWAP1 POP JUMPDEST PUSH2 0x1E35 DUP6 DUP3 PUSH2 0x1DBA JUMP JUMPDEST DUP7 SSTORE POP PUSH2 0x1E9C JUMP JUMPDEST PUSH1 0x1F NOT DUP5 AND PUSH2 0x1E4B DUP7 PUSH2 0x1C38 JUMP JUMPDEST PUSH0 JUMPDEST DUP3 DUP2 LT ISZERO PUSH2 0x1E72 JUMPI DUP5 DUP10 ADD MLOAD DUP3 SSTORE PUSH1 0x1 DUP3 ADD SWAP2 POP PUSH1 0x20 DUP6 ADD SWAP5 POP PUSH1 0x20 DUP2 ADD SWAP1 POP PUSH2 0x1E4D JUMP JUMPDEST DUP7 DUP4 LT ISZERO PUSH2 0x1E8F JUMPI DUP5 DUP10 ADD MLOAD PUSH2 0x1E8B PUSH1 0x1F DUP10 AND DUP3 PUSH2 0x1D9E JUMP JUMPDEST DUP4 SSTORE POP JUMPDEST PUSH1 0x1 PUSH1 0x2 DUP9 MUL ADD DUP9 SSTORE POP POP POP JUMPDEST POP POP POP POP POP POP JUMP JUMPDEST PUSH32 0x4E487B7100000000000000000000000000000000000000000000000000000000 PUSH0 MSTORE PUSH1 0x21 PUSH1 0x4 MSTORE PUSH1 0x24 PUSH0 REVERT JUMPDEST PUSH32 0x4E6F7420616E2061637469766520706C61796572000000000000000000000000 PUSH0 DUP3 ADD MSTORE POP JUMP JUMPDEST PUSH0 PUSH2 0x1F05 PUSH1 0x14 DUP4 PUSH2 0x17AE JUMP JUMPDEST SWAP2 POP PUSH2 0x1F10 DUP3 PUSH2 0x1ED1 JUMP JUMPDEST PUSH1 0x20 DUP3 ADD SWAP1 POP SWAP2 SWAP1 POP JUMP JUMPDEST PUSH0 PUSH1 0x20 DUP3 ADD SWAP1 POP DUP2 DUP2 SUB PUSH0 DUP4 ADD MSTORE PUSH2 0x1F32 DUP2 PUSH2 0x1EF9 JUMP JUMPDEST SWAP1 POP SWAP2 SWAP1 POP JUMP JUMPDEST PUSH0 PUSH1 0x60 DUP3 ADD SWAP1 POP PUSH2 0x1F4C PUSH0 DUP4 ADD DUP7 PUSH2 0x19FC JUMP JUMPDEST PUSH2 0x1F59 PUSH1 0x20 DUP4 ADD DUP6 PUSH2 0x1950 JUMP JUMPDEST PUSH2 0x1F66 PUSH1 0x40 DUP4 ADD DUP5 PUSH2 0x1950 JUMP JUMPDEST SWAP5 SWAP4 POP POP POP POP JUMP JUMPDEST PUSH32 0x4E487B7100000000000000000000000000000000000000000000000000000000 PUSH0 MSTORE PUSH1 0x11 PUSH1 0x4 MSTORE PUSH1 0x24 PUSH0 REVERT JUMPDEST PUSH0 PUSH2 0x1FA5 DUP3 PUSH2 0x18AC JUMP JUMPDEST SWAP2 POP PUSH2 0x1FB0 DUP4 PUSH2 0x18AC JUMP JUMPDEST SWAP3 POP DUP3 DUP3 ADD SWAP1 POP DUP1 DUP3 GT ISZERO PUSH2 0x1FC8 JUMPI PUSH2 0x1FC7 PUSH2 0x1F6E JUMP JUMPDEST JUMPDEST SWAP3 SWAP2 POP POP JUMP INVALID NUMBER PUSH2 0x6E6E PUSH16 0x7420636865636B20666F722077696E6E PUSH6 0x722E20426F74 PUSH9 0x20706C617965727320 PUSH9 0x6176656E2774207365 PUSH13 0x65637465642074686569722069 PUSH15 0x707574734C6173742067616D652070 PUSH13 0x617965723120776F6E2E205761 PUSH10 0x74696E6720666F72206E PUSH6 0x7720706C6179 PUSH6 0x727347616D65 KECCAK256 PUSH13 0x6F6262792069732066756C6C2E KECCAK256 COINBASE PUSH24 0x616974696E6720706C617965727320696E707574426F7468 KECCAK256 PUSH17 0x6C61796572732073656C65637465642069 PUSH15 0x7075742E20436865636B20666F7220 PUSH24 0x696E6E65724C6173742067616D6520706C61796572322077 PUSH16 0x6E2E2057616974696E6720666F72206E PUSH6 0x7720706C6179 PUSH6 0x7273A2646970 PUSH7 0x73582212203DF1 0xAC 0xB3 GAS PUSH24 0x5E7DEB4AD457F122223DEF62B027A0A27E337FD775521C2A CALLCODE 0xE9 PUSH5 0x736F6C6343 STOP ADDMOD AND STOP CALLER "
				},
				"gasEstimates": {
					"creation": {
						"codeDepositCost": "1688400",
						"executionCost": "infinite",
						"totalCost": "infinite"
					},
					"external": {
						"CheckWinner()": "infinite",
						"GetStatus()": "infinite",
						"Register()": "infinite",
						"SelectOption(uint256)": "infinite",
						"allowance(address,address)": "infinite",
						"approve(address,uint256)": "infinite",
						"balanceOf(address)": "2852",
						"decimals()": "405",
						"name()": "infinite",
						"player1()": "2574",
						"player2()": "2597",
						"symbol()": "infinite",
						"totalSupply()": "2500",
						"transfer(address,uint256)": "infinite",
						"transferFrom(address,address,uint256)": "infinite"
					},
					"internal": {
						"PlayerWin(enum Option,enum Option)": "523",
						"Restart()": "97211"
					}
				},
				"methodIdentifiers": {
					"CheckWinner()": "a2f3d16e",
					"GetStatus()": "abd95b95",
					"Register()": "19e5bf3a",
					"SelectOption(uint256)": "c4fb5707",
					"allowance(address,address)": "dd62ed3e",
					"approve(address,uint256)": "095ea7b3",
					"balanceOf(address)": "70a08231",
					"decimals()": "313ce567",
					"name()": "06fdde03",
					"player1()": "d30895e4",
					"player2()": "59a5f12d",
					"symbol()": "95d89b41",
					"totalSupply()": "18160ddd",
					"transfer(address,uint256)": "a9059cbb",
					"transferFrom(address,address,uint256)": "23b872dd"
				}
			},
			"storageLayout": {
				"storage": [
					{
						"astId": 159,
						"contract": "constracts/RockPaperScissors.sol:RockPaperScissors",
						"label": "_balances",
						"offset": 0,
						"slot": "0",
						"type": "t_mapping(t_address,t_uint256)"
					},
					{
						"astId": 165,
						"contract": "constracts/RockPaperScissors.sol:RockPaperScissors",
						"label": "_allowances",
						"offset": 0,
						"slot": "1",
						"type": "t_mapping(t_address,t_mapping(t_address,t_uint256))"
					},
					{
						"astId": 167,
						"contract": "constracts/RockPaperScissors.sol:RockPaperScissors",
						"label": "_totalSupply",
						"offset": 0,
						"slot": "2",
						"type": "t_uint256"
					},
					{
						"astId": 169,
						"contract": "constracts/RockPaperScissors.sol:RockPaperScissors",
						"label": "_name",
						"offset": 0,
						"slot": "3",
						"type": "t_string_storage"
					},
					{
						"astId": 171,
						"contract": "constracts/RockPaperScissors.sol:RockPaperScissors",
						"label": "_symbol",
						"offset": 0,
						"slot": "4",
						"type": "t_string_storage"
					},
					{
						"astId": 789,
						"contract": "constracts/RockPaperScissors.sol:RockPaperScissors",
						"label": "player1",
						"offset": 0,
						"slot": "5",
						"type": "t_address"
					},
					{
						"astId": 792,
						"contract": "constracts/RockPaperScissors.sol:RockPaperScissors",
						"label": "player1Option",
						"offset": 20,
						"slot": "5",
						"type": "t_enum(Option)785"
					},
					{
						"astId": 794,
						"contract": "constracts/RockPaperScissors.sol:RockPaperScissors",
						"label": "player2",
						"offset": 0,
						"slot": "6",
						"type": "t_address"
					},
					{
						"astId": 797,
						"contract": "constracts/RockPaperScissors.sol:RockPaperScissors",
						"label": "player2Option",
						"offset": 20,
						"slot": "6",
						"type": "t_enum(Option)785"
					},
					{
						"astId": 800,
						"contract": "constracts/RockPaperScissors.sol:RockPaperScissors",
						"label": "bet",
						"offset": 0,
						"slot": "7",
						"type": "t_uint256"
					},
					{
						"astId": 803,
						"contract": "constracts/RockPaperScissors.sol:RockPaperScissors",
						"label": "gameStatus",
						"offset": 0,
						"slot": "8",
						"type": "t_string_storage"
					}
				],
				"types": {
					"t_address": {
						"encoding": "inplace",
						"label": "address",
						"numberOfBytes": "20"
					},
					"t_enum(Option)785": {
						"encoding": "inplace",
						"label": "enum Option",
						"numberOfBytes": "1"
					},
					"t_mapping(t_address,t_mapping(t_address,t_uint256))": {
						"encoding": "mapping",
						"key": "t_address",
						"label": "mapping(address => mapping(address => uint256))",
						"numberOfBytes": "32",
						"value": "t_mapping(t_address,t_uint256)"
					},
					"t_mapping(t_address,t_uint256)": {
						"encoding": "mapping",
						"key": "t_address",
						"label": "mapping(address => uint256)",
						"numberOfBytes": "32",
						"value": "t_uint256"
					},
					"t_string_storage": {
						"encoding": "bytes",
						"label": "string",
						"numberOfBytes": "32"
					},
					"t_uint256": {
						"encoding": "inplace",
						"label": "uint256",
						"numberOfBytes": "32"
					}
				}
			},
			"userdoc": {
				"kind": "user",
				"methods": {},
				"version": 1
			}
		}
	}
}